{
  "address": "0xbeB1777E82368256eaEC3ce234E001658C9e6eAB",
  "abi": [
    {
      "inputs": [
        {
          "internalType": "address",
          "name": "_logic",
          "type": "address"
        }
      ],
      "stateMutability": "nonpayable",
      "type": "constructor"
    },
    {
      "anonymous": false,
      "inputs": [
        {
          "indexed": false,
          "internalType": "address",
          "name": "previousAdmin",
          "type": "address"
        },
        {
          "indexed": false,
          "internalType": "address",
          "name": "newAdmin",
          "type": "address"
        }
      ],
      "name": "AdminChanged",
      "type": "event"
    },
    {
      "anonymous": false,
      "inputs": [
        {
          "indexed": true,
          "internalType": "address",
          "name": "beacon",
          "type": "address"
        }
      ],
      "name": "BeaconUpgraded",
      "type": "event"
    },
    {
      "anonymous": false,
      "inputs": [
        {
          "indexed": true,
          "internalType": "address",
          "name": "previousGovernor",
          "type": "address"
        },
        {
          "indexed": true,
          "internalType": "address",
          "name": "newGovernor",
          "type": "address"
        }
      ],
      "name": "GovernorshipTransferred",
      "type": "event"
    },
    {
      "anonymous": false,
      "inputs": [
        {
          "indexed": true,
          "internalType": "address",
          "name": "previousGovernor",
          "type": "address"
        },
        {
          "indexed": true,
          "internalType": "address",
          "name": "newGovernor",
          "type": "address"
        }
      ],
      "name": "PendingGovernorshipTransfer",
      "type": "event"
    },
    {
      "anonymous": false,
      "inputs": [
        {
          "indexed": true,
          "internalType": "address",
          "name": "implementation",
          "type": "address"
        }
      ],
      "name": "Upgraded",
      "type": "event"
    },
    {
      "stateMutability": "payable",
      "type": "fallback"
    },
    {
      "inputs": [],
      "name": "admin",
      "outputs": [
        {
          "internalType": "address",
          "name": "",
          "type": "address"
        }
      ],
      "stateMutability": "view",
      "type": "function"
    },
    {
      "inputs": [],
      "name": "claimGovernance",
      "outputs": [],
      "stateMutability": "nonpayable",
      "type": "function"
    },
    {
      "inputs": [],
      "name": "governor",
      "outputs": [
        {
          "internalType": "address",
          "name": "",
          "type": "address"
        }
      ],
      "stateMutability": "view",
      "type": "function"
    },
    {
      "inputs": [],
      "name": "implementation",
      "outputs": [
        {
          "internalType": "address",
          "name": "",
          "type": "address"
        }
      ],
      "stateMutability": "view",
      "type": "function"
    },
    {
      "inputs": [],
      "name": "isGovernor",
      "outputs": [
        {
          "internalType": "bool",
          "name": "",
          "type": "bool"
        }
      ],
      "stateMutability": "view",
      "type": "function"
    },
    {
      "inputs": [
        {
          "internalType": "address",
          "name": "_newGovernor",
          "type": "address"
        }
      ],
      "name": "transferGovernance",
      "outputs": [],
      "stateMutability": "nonpayable",
      "type": "function"
    },
    {
      "inputs": [
        {
          "internalType": "address",
          "name": "newImplementation",
          "type": "address"
        }
      ],
      "name": "upgradeTo",
      "outputs": [],
      "stateMutability": "nonpayable",
      "type": "function"
    },
    {
      "inputs": [
        {
          "internalType": "address",
          "name": "newImplementation",
          "type": "address"
        },
        {
          "internalType": "bytes",
          "name": "data",
          "type": "bytes"
        }
      ],
      "name": "upgradeToAndCall",
      "outputs": [],
      "stateMutability": "payable",
      "type": "function"
    },
    {
      "stateMutability": "payable",
      "type": "receive"
    }
  ],
  "transactionHash": "0x2d9e19b89e5889e70919929b6b0627d335160f48e2daf56d3700a6a6c12a5ff7",
  "args": [
    "0x24E5D81d391Df1F87f87247c7EE70DDa044Cf902"
  ],
  "solcInputHash": "6d55562f18290db1490a9966c143cba3",
  "bytecode": "0x60806040523480156200001157600080fd5b50604051620017ab380380620017ab8339818101604052810190620000379190620004fc565b806040518060200160405280600081525081816200005b336200017260201b60201c565b6200006b620001a160201b60201c565b73ffffffffffffffffffffffffffffffffffffffff16600073ffffffffffffffffffffffffffffffffffffffff167fc7c0c772add429241571afb3805861fb3cfa2af374534088b76cdb4325a87e9a60405160405180910390a360017f360894a13ba1a3210667c828492db98dca3e2076cc3735a920a3ca505d382bbd60001c620000f79190620006a1565b60001b7f360894a13ba1a3210667c828492db98dca3e2076cc3735a920a3ca505d382bbc60001b1462000153577f4e487b7100000000000000000000000000000000000000000000000000000000600052600160045260246000fd5b6200016782826000620001d260201b60201c565b505050505062000848565b60007f7bea13895fa79d2831e0a9e28edede30099005a50d652d8957cf8a607ee6ca4a60001b90508181555050565b6000807f7bea13895fa79d2831e0a9e28edede30099005a50d652d8957cf8a607ee6ca4a60001b9050805491505090565b620001e3836200021560201b60201c565b600082511180620001f15750805b1562000210576200020e83836200026c60201b620004a11760201c565b505b505050565b6200022681620002a260201b60201c565b8073ffffffffffffffffffffffffffffffffffffffff167fbc7cd75a20ee27fd9adebab32041f755214dbc6bffa90cc0225b39da2e5c2d3b60405160405180910390a250565b60606200029a838360405180606001604052806027815260200162001784602791396200037860201b60201c565b905092915050565b620002b8816200045c60201b620004ce1760201c565b620002fa576040517f08c379a0000000000000000000000000000000000000000000000000000000008152600401620002f1906200062b565b60405180910390fd5b80620003347f360894a13ba1a3210667c828492db98dca3e2076cc3735a920a3ca505d382bbc60001b6200046f60201b620004e11760201c565b60000160006101000a81548173ffffffffffffffffffffffffffffffffffffffff021916908373ffffffffffffffffffffffffffffffffffffffff16021790555050565b60606200038b846200045c60201b60201c565b620003cd576040517f08c379a0000000000000000000000000000000000000000000000000000000008152600401620003c4906200064d565b60405180910390fd5b6000808573ffffffffffffffffffffffffffffffffffffffff1685604051620003f79190620005ee565b600060405180830381855af49150503d806000811462000434576040519150601f19603f3d011682016040523d82523d6000602084013e62000439565b606091505b5091509150620004518282866200047960201b60201c565b925050509392505050565b600080823b905060008111915050919050565b6000819050919050565b606083156200048b57829050620004de565b6000835111156200049f5782518084602001fd5b816040517f08c379a0000000000000000000000000000000000000000000000000000000008152600401620004d5919062000607565b60405180910390fd5b9392505050565b600081519050620004f6816200082e565b92915050565b6000602082840312156200050f57600080fd5b60006200051f84828501620004e5565b91505092915050565b600062000535826200066f565b62000541818562000685565b9350620005538185602086016200071a565b80840191505092915050565b60006200056c826200067a565b62000578818562000690565b93506200058a8185602086016200071a565b62000595816200077f565b840191505092915050565b6000620005af602d8362000690565b9150620005bc8262000790565b604082019050919050565b6000620005d660268362000690565b9150620005e382620007df565b604082019050919050565b6000620005fc828462000528565b915081905092915050565b600060208201905081810360008301526200062381846200055f565b905092915050565b600060208201905081810360008301526200064681620005a0565b9050919050565b600060208201905081810360008301526200066881620005c7565b9050919050565b600081519050919050565b600081519050919050565b600081905092915050565b600082825260208201905092915050565b6000620006ae8262000710565b9150620006bb8362000710565b925082821015620006d157620006d062000750565b5b828203905092915050565b6000620006e982620006f0565b9050919050565b600073ffffffffffffffffffffffffffffffffffffffff82169050919050565b6000819050919050565b60005b838110156200073a5780820151818401526020810190506200071d565b838111156200074a576000848401525b50505050565b7f4e487b7100000000000000000000000000000000000000000000000000000000600052601160045260246000fd5b6000601f19601f8301169050919050565b7f455243313936373a206e657720696d706c656d656e746174696f6e206973206e60008201527f6f74206120636f6e747261637400000000000000000000000000000000000000602082015250565b7f416464726573733a2064656c65676174652063616c6c20746f206e6f6e2d636f60008201527f6e74726163740000000000000000000000000000000000000000000000000000602082015250565b6200083981620006dc565b81146200084557600080fd5b50565b610f2c80620008586000396000f3fe60806040526004361061007f5760003560e01c80635d36b1901161004e5780635d36b19014610133578063c7af33521461014a578063d38bfff414610175578063f851a4401461019e5761008e565b80630c340a24146100985780633659cfe6146100c35780634f1ef286146100ec5780635c60da1b146101085761008e565b3661008e5761008c6101c9565b005b6100966101c9565b005b3480156100a457600080fd5b506100ad6101e3565b6040516100ba9190610bbe565b60405180910390f35b3480156100cf57600080fd5b506100ea60048036038101906100e591906109b1565b6101f2565b005b610106600480360381019061010191906109da565b610245565b005b34801561011457600080fd5b5061011d610312565b60405161012a9190610bbe565b60405180910390f35b34801561013f57600080fd5b50610148610321565b005b34801561015657600080fd5b5061015f6103a1565b60405161016c9190610bd9565b60405180910390f35b34801561018157600080fd5b5061019c600480360381019061019791906109b1565b6103de565b005b3480156101aa57600080fd5b506101b3610492565b6040516101c09190610bbe565b60405180910390f35b6101d16104eb565b6101e16101dc6104ed565b6104fc565b565b60006101ed610522565b905090565b6101fa6103a1565b610239576040517f08c379a000000000000000000000000000000000000000000000000000000000815260040161023090610c16565b60405180910390fd5b61024281610553565b50565b61024d6103a1565b61028c576040517f08c379a000000000000000000000000000000000000000000000000000000000815260040161028390610c16565b60405180910390fd5b61029583610553565b60008373ffffffffffffffffffffffffffffffffffffffff1683836040516102be929190610b8e565b600060405180830381855af49150503d80600081146102f9576040519150601f19603f3d011682016040523d82523d6000602084013e6102fe565b606091505b505090508061030c57600080fd5b50505050565b600061031c6104ed565b905090565b6103296105a2565b73ffffffffffffffffffffffffffffffffffffffff163373ffffffffffffffffffffffffffffffffffffffff1614610396576040517f08c379a000000000000000000000000000000000000000000000000000000000815260040161038d90610c96565b60405180910390fd5b61039f336105d3565b565b60006103ab610522565b73ffffffffffffffffffffffffffffffffffffffff163373ffffffffffffffffffffffffffffffffffffffff1614905090565b6103e66103a1565b610425576040517f08c379a000000000000000000000000000000000000000000000000000000000815260040161041c90610c16565b60405180910390fd5b61042e816106b0565b8073ffffffffffffffffffffffffffffffffffffffff1661044d610522565b73ffffffffffffffffffffffffffffffffffffffff167fa39cc5eb22d0f34d8beaefee8a3f17cc229c1a1d1ef87a5ad47313487b1c4f0d60405160405180910390a350565b600061049c610522565b905090565b60606104c68383604051806060016040528060278152602001610ed0602791396106df565b905092915050565b600080823b905060008111915050919050565b6000819050919050565b565b60006104f76107ac565b905090565b3660008037600080366000845af43d6000803e806000811461051d573d6000f35b3d6000fd5b6000807f7bea13895fa79d2831e0a9e28edede30099005a50d652d8957cf8a607ee6ca4a60001b9050805491505090565b61055c81610803565b8073ffffffffffffffffffffffffffffffffffffffff167fbc7cd75a20ee27fd9adebab32041f755214dbc6bffa90cc0225b39da2e5c2d3b60405160405180910390a250565b6000807f44c4d30b2eaad5130ad70c3ba6972730566f3e6359ab83e800d905c61b1c51db60001b9050805491505090565b600073ffffffffffffffffffffffffffffffffffffffff168173ffffffffffffffffffffffffffffffffffffffff161415610643576040517f08c379a000000000000000000000000000000000000000000000000000000000815260040161063a90610c36565b60405180910390fd5b8073ffffffffffffffffffffffffffffffffffffffff16610662610522565b73ffffffffffffffffffffffffffffffffffffffff167fc7c0c772add429241571afb3805861fb3cfa2af374534088b76cdb4325a87e9a60405160405180910390a36106ad816108bc565b50565b60007f44c4d30b2eaad5130ad70c3ba6972730566f3e6359ab83e800d905c61b1c51db60001b90508181555050565b60606106ea846104ce565b610729576040517f08c379a000000000000000000000000000000000000000000000000000000000815260040161072090610c76565b60405180910390fd5b6000808573ffffffffffffffffffffffffffffffffffffffff16856040516107519190610ba7565b600060405180830381855af49150503d806000811461078c576040519150601f19603f3d011682016040523d82523d6000602084013e610791565b606091505b50915091506107a18282866108eb565b925050509392505050565b60006107da7f360894a13ba1a3210667c828492db98dca3e2076cc3735a920a3ca505d382bbc60001b6104e1565b60000160009054906101000a900473ffffffffffffffffffffffffffffffffffffffff16905090565b61080c816104ce565b61084b576040517f08c379a000000000000000000000000000000000000000000000000000000000815260040161084290610c56565b60405180910390fd5b806108787f360894a13ba1a3210667c828492db98dca3e2076cc3735a920a3ca505d382bbc60001b6104e1565b60000160006101000a81548173ffffffffffffffffffffffffffffffffffffffff021916908373ffffffffffffffffffffffffffffffffffffffff16021790555050565b60007f7bea13895fa79d2831e0a9e28edede30099005a50d652d8957cf8a607ee6ca4a60001b90508181555050565b606083156108fb5782905061094b565b60008351111561090e5782518084602001fd5b816040517f08c379a00000000000000000000000000000000000000000000000000000000081526004016109429190610bf4565b60405180910390fd5b9392505050565b60008135905061096181610eb8565b92915050565b60008083601f84011261097957600080fd5b8235905067ffffffffffffffff81111561099257600080fd5b6020830191508360018202830111156109aa57600080fd5b9250929050565b6000602082840312156109c357600080fd5b60006109d184828501610952565b91505092915050565b6000806000604084860312156109ef57600080fd5b60006109fd86828701610952565b935050602084013567ffffffffffffffff811115610a1a57600080fd5b610a2686828701610967565b92509250509250925092565b610a3b81610ce8565b82525050565b610a4a81610cfa565b82525050565b6000610a5c8385610ccc565b9350610a69838584610d26565b82840190509392505050565b6000610a8082610cb6565b610a8a8185610ccc565b9350610a9a818560208601610d35565b80840191505092915050565b6000610ab182610cc1565b610abb8185610cd7565b9350610acb818560208601610d35565b610ad481610d68565b840191505092915050565b6000610aec601a83610cd7565b9150610af782610d79565b602082019050919050565b6000610b0f601a83610cd7565b9150610b1a82610da2565b602082019050919050565b6000610b32602d83610cd7565b9150610b3d82610dcb565b604082019050919050565b6000610b55602683610cd7565b9150610b6082610e1a565b604082019050919050565b6000610b78603083610cd7565b9150610b8382610e69565b604082019050919050565b6000610b9b828486610a50565b91508190509392505050565b6000610bb38284610a75565b915081905092915050565b6000602082019050610bd36000830184610a32565b92915050565b6000602082019050610bee6000830184610a41565b92915050565b60006020820190508181036000830152610c0e8184610aa6565b905092915050565b60006020820190508181036000830152610c2f81610adf565b9050919050565b60006020820190508181036000830152610c4f81610b02565b9050919050565b60006020820190508181036000830152610c6f81610b25565b9050919050565b60006020820190508181036000830152610c8f81610b48565b9050919050565b60006020820190508181036000830152610caf81610b6b565b9050919050565b600081519050919050565b600081519050919050565b600081905092915050565b600082825260208201905092915050565b6000610cf382610d06565b9050919050565b60008115159050919050565b600073ffffffffffffffffffffffffffffffffffffffff82169050919050565b82818337600083830152505050565b60005b83811015610d53578082015181840152602081019050610d38565b83811115610d62576000848401525b50505050565b6000601f19601f8301169050919050565b7f43616c6c6572206973206e6f742074686520476f7665726e6f72000000000000600082015250565b7f4e657720476f7665726e6f722069732061646472657373283029000000000000600082015250565b7f455243313936373a206e657720696d706c656d656e746174696f6e206973206e60008201527f6f74206120636f6e747261637400000000000000000000000000000000000000602082015250565b7f416464726573733a2064656c65676174652063616c6c20746f206e6f6e2d636f60008201527f6e74726163740000000000000000000000000000000000000000000000000000602082015250565b7f4f6e6c79207468652070656e64696e6720476f7665726e6f722063616e20636f60008201527f6d706c6574652074686520636c61696d00000000000000000000000000000000602082015250565b610ec181610ce8565b8114610ecc57600080fd5b5056fe416464726573733a206c6f772d6c6576656c2064656c65676174652063616c6c206661696c6564a2646970667358221220a6ba0a3045febaca393c25ec0d84feadb974e58afc3c610fa4b390042c41c75f64736f6c63430008040033416464726573733a206c6f772d6c6576656c2064656c65676174652063616c6c206661696c6564",
  "devdoc": {
    "kind": "dev",
    "methods": {
      "admin()": {
        "returns": {
          "_0": "The address of the proxy admin/it's also the governor."
        }
      },
      "claimGovernance()": {
        "details": "Claim Governance of the contract to a new account (`newGovernor`). Can only be called by the new Governor."
      },
      "governor()": {
        "details": "Returns the address of the current Governor."
      },
      "implementation()": {
        "returns": {
          "_0": "The address of the implementation."
        }
      },
      "isGovernor()": {
        "details": "Returns true if the caller is the current Governor."
      },
      "transferGovernance(address)": {
        "details": "Transfers Governance of the contract to a new account (`newGovernor`). Can only be called by the current Governor. Must be claimed for this to complete",
        "params": {
          "_newGovernor": "Address of the new Governor"
        }
      },
      "upgradeTo(address)": {
        "details": "Upgrade the backing implementation of the proxy. Only the admin can call this function.",
        "params": {
          "newImplementation": "Address of the new implementation."
        }
      },
      "upgradeToAndCall(address,bytes)": {
        "details": "Upgrade the backing implementation of the proxy and call a function on the new implementation. This is useful to initialize the proxied contract.",
        "params": {
          "data": "Data to send as msg.data in the low level call. It should include the signature and the parameters of the function to be called, as described in https://solidity.readthedocs.io/en/v0.4.24/abi-spec.html#function-selector-and-argument-encoding.",
          "newImplementation": "Address of the new implementation."
        }
      }
    },
    "version": 1
  },
  "userdoc": {
    "kind": "user",
    "methods": {},
    "notice": "IngestMatery",
    "version": 1
  },
  "storageLayout": {
    "storage": [],
    "types": null
  }
}