{
  "address": "0xd040EfdCE9cF9038D34397aEAe9d4A0c51f07CF3",
  "abi": [
    {
      "inputs": [],
      "stateMutability": "nonpayable",
      "type": "constructor"
    },
    {
      "anonymous": false,
      "inputs": [
        {
          "indexed": true,
          "internalType": "address",
          "name": "addr",
          "type": "address"
        },
        {
          "indexed": true,
          "internalType": "address",
          "name": "deployer",
          "type": "address"
        }
      ],
      "name": "CreateToken",
      "type": "event"
    },
    {
      "inputs": [
        {
          "internalType": "string",
          "name": "name",
          "type": "string"
        },
        {
          "internalType": "string",
          "name": "symbol",
          "type": "string"
        },
        {
          "internalType": "string",
          "name": "baseURI",
          "type": "string"
        }
      ],
      "name": "createToken",
      "outputs": [
        {
          "internalType": "address",
          "name": "",
          "type": "address"
        }
      ],
      "stateMutability": "nonpayable",
      "type": "function"
    },
    {
      "inputs": [
        {
          "internalType": "address",
          "name": "minter",
          "type": "address"
        },
        {
          "internalType": "string",
          "name": "name",
          "type": "string"
        },
        {
          "internalType": "string",
          "name": "symbol",
          "type": "string"
        },
        {
          "internalType": "string",
          "name": "baseURI",
          "type": "string"
        }
      ],
      "name": "createTokenWithMinter",
      "outputs": [
        {
          "internalType": "address",
          "name": "",
          "type": "address"
        }
      ],
      "stateMutability": "nonpayable",
      "type": "function"
    }
  ],
  "transactionHash": "0x8800d2e6a5c3fe2e97f2796ba3f8572b1c4c69bc48b4dd7d6c97276d4b9629c6",
  "args": [],
  "solcInputHash": "870fdabf2f96b5f5eb96fc8740df88ff",
  "bytecode": "0x60a060405234801561001057600080fd5b5060405161001d90610075565b604051809103906000f080158015610039573d6000803e3d6000fd5b5073ffffffffffffffffffffffffffffffffffffffff1660808173ffffffffffffffffffffffffffffffffffffffff1660601b81525050610082565b614aba806106fb83390190565b60805160601c61065c61009f600039600060e1015261065c6000f3fe608060405234801561001057600080fd5b50600436106100365760003560e01c80630cbf5d721461003b57806394aed7d01461006b575b600080fd5b6100556004803603810190610050919061031e565b61009b565b60405161006291906104da565b60405180910390f35b610085600480360381019061008091906103d7565b6100ba565b60405161009291906104da565b60405180910390f35b60006100ad33898989898989896100d9565b9050979650505050505050565b60006100cd3360008989898989896100d9565b90509695505050505050565b6000806101057f00000000000000000000000000000000000000000000000000000000000000006101ea565b90508073ffffffffffffffffffffffffffffffffffffffff16633f2f5ee28b8b8b8b8b8b8b8b6040518963ffffffff1660e01b815260040161014e9897969594939291906104f5565b600060405180830381600087803b15801561016857600080fd5b505af115801561017c573d6000803e3d6000fd5b505050503373ffffffffffffffffffffffffffffffffffffffff168173ffffffffffffffffffffffffffffffffffffffff167f62ec089d6c661de888091dd8fd0550160f8a27e337ad3f847b01a94d7064207f60405160405180910390a38091505098975050505050505050565b60006040517f3d602d80600a3d3981f3363d3d373d3d3d363d7300000000000000000000000081528260601b60148201527f5af43d82803e903d91602b57fd5bf3000000000000000000000000000000000060288201526037816000f0915050600073ffffffffffffffffffffffffffffffffffffffff168173ffffffffffffffffffffffffffffffffffffffff1614156102ba576040517f08c379a00000000000000000000000000000000000000000000000000000000081526004016102b190610563565b60405180910390fd5b919050565b6000813590506102ce8161060f565b92915050565b60008083601f8401126102e657600080fd5b8235905067ffffffffffffffff8111156102ff57600080fd5b60208301915083600182028301111561031757600080fd5b9250929050565b60008060008060008060006080888a03121561033957600080fd5b60006103478a828b016102bf565b975050602088013567ffffffffffffffff81111561036457600080fd5b6103708a828b016102d4565b9650965050604088013567ffffffffffffffff81111561038f57600080fd5b61039b8a828b016102d4565b9450945050606088013567ffffffffffffffff8111156103ba57600080fd5b6103c68a828b016102d4565b925092505092959891949750929550565b600080600080600080606087890312156103f057600080fd5b600087013567ffffffffffffffff81111561040a57600080fd5b61041689828a016102d4565b9650965050602087013567ffffffffffffffff81111561043557600080fd5b61044189828a016102d4565b9450945050604087013567ffffffffffffffff81111561046057600080fd5b61046c89828a016102d4565b92509250509295509295509295565b61048481610594565b82525050565b60006104968385610583565b93506104a38385846105c6565b6104ac836105d5565b840190509392505050565b60006104c4601683610583565b91506104cf826105e6565b602082019050919050565b60006020820190506104ef600083018461047b565b92915050565b600060a08201905061050a600083018b61047b565b610517602083018a61047b565b818103604083015261052a81888a61048a565b9050818103606083015261053f81868861048a565b9050818103608083015261055481848661048a565b90509998505050505050505050565b6000602082019050818103600083015261057c816104b7565b9050919050565b600082825260208201905092915050565b600061059f826105a6565b9050919050565b600073ffffffffffffffffffffffffffffffffffffffff82169050919050565b82818337600083830152505050565b6000601f19601f8301169050919050565b7f455243313136373a20637265617465206661696c656400000000000000000000600082015250565b61061881610594565b811461062357600080fd5b5056fea2646970667358221220a86ca3af95973037479be427772ec3790839ad338c8d0bd9c832ff99a9a7ad8264736f6c63430008040033608060405234801561001057600080fd5b50614a9a806100206000396000f3fe608060405234801561001057600080fd5b50600436106101ce5760003560e01c806355f804b311610104578063a217fddf116100a2578063d539139311610071578063d53913931461054b578063d547741f14610569578063e8a3d48514610585578063e985e9c5146105a3576101ce565b8063a217fddf146104c5578063a22cb465146104e3578063b88d4fde146104ff578063c87b56dd1461051b576101ce565b806370a08231116100de57806370a082311461042b57806391d148541461045b57806395d89b411461048b578063a1448194146104a9576101ce565b806355f804b3146103c35780636352211e146103df5780636b34c7ad1461040f576101ce565b8063248a9ca31161017157806336568abe1161014b57806336568abe1461033f5780633f2f5ee21461035b57806342842e0e146103775780634f6ccce714610393576101ce565b8063248a9ca3146102c35780632f2ff15d146102f35780632f745c591461030f576101ce565b8063081812fc116101ad578063081812fc1461023d578063095ea7b31461026d57806318160ddd1461028957806323b872dd146102a7576101ce565b8062059fa3146101d357806301ffc9a7146101ef57806306fdde031461021f575b600080fd5b6101ed60048036038101906101e89190613550565b6105d3565b005b61020960048036038101906102049190613763565b610630565b6040516102169190613ceb565b60405180910390f35b610227610642565b6040516102349190613d21565b60405180910390f35b610257600480360381019061025291906137fa565b6106d4565b6040516102649190613c84565b60405180910390f35b610287600480360381019061028291906136c2565b610759565b005b610291610871565b60405161029e9190613fa3565b60405180910390f35b6102c160048036038101906102bc9190613550565b61087e565b005b6102dd60048036038101906102d891906136fe565b6108de565b6040516102ea9190613d06565b60405180910390f35b61030d60048036038101906103089190613727565b6108fe565b005b610329600480360381019061032491906136c2565b610927565b6040516103369190613fa3565b60405180910390f35b61035960048036038101906103549190613727565b6109cc565b005b61037560048036038101906103709190613491565b610a4f565b005b610391600480360381019061038c9190613550565b610bec565b005b6103ad60048036038101906103a891906137fa565b610c0c565b6040516103ba9190613fa3565b60405180910390f35b6103dd60048036038101906103d891906137b5565b610ca3565b005b6103f960048036038101906103f491906137fa565b610cec565b6040516104069190613c84565b60405180910390f35b6104296004803603810190610424919061361a565b610d9e565b005b6104456004803603810190610440919061342c565b610ec0565b6040516104529190613fa3565b60405180910390f35b61047560048036038101906104709190613727565b610f78565b6040516104829190613ceb565b60405180910390f35b610493610fe3565b6040516104a09190613d21565b60405180910390f35b6104c360048036038101906104be91906136c2565b611075565b005b6104cd6110b6565b6040516104da9190613d06565b60405180910390f35b6104fd60048036038101906104f89190613686565b6110bd565b005b6105196004803603810190610514919061359f565b61123e565b005b610535600480360381019061053091906137fa565b6112a0565b6040516105429190613d21565b60405180910390f35b610553611347565b6040516105609190613d06565b60405180910390f35b610583600480360381019061057e9190613727565b61136b565b005b61058d611394565b60405161059a9190613d21565b60405180910390f35b6105bd60048036038101906105b89190613455565b6113e7565b6040516105ca9190613ceb565b60405180910390f35b7f9f2df0fed2c77648de5860a4cc508cd0818c85b8b8a1ab4ceeef8d981c8956a66106058161060061147b565b611483565b61060f8483611520565b61062a848484604051806020016040528060008152506116ee565b50505050565b600061063b8261174a565b9050919050565b60606065805461065190614287565b80601f016020809104026020016040519081016040528092919081815260200182805461067d90614287565b80156106ca5780601f1061069f576101008083540402835291602001916106ca565b820191906000526020600020905b8154815290600101906020018083116106ad57829003601f168201915b5050505050905090565b60006106df826117c4565b61071e576040517f08c379a000000000000000000000000000000000000000000000000000000000815260040161071590613ec3565b60405180910390fd5b6069600083815260200190815260200160002060009054906101000a900473ffffffffffffffffffffffffffffffffffffffff169050919050565b600061076482610cec565b90508073ffffffffffffffffffffffffffffffffffffffff168373ffffffffffffffffffffffffffffffffffffffff1614156107d5576040517f08c379a00000000000000000000000000000000000000000000000000000000081526004016107cc90613f23565b60405180910390fd5b8073ffffffffffffffffffffffffffffffffffffffff166107f461147b565b73ffffffffffffffffffffffffffffffffffffffff16148061082357506108228161081d61147b565b6113e7565b5b610862576040517f08c379a000000000000000000000000000000000000000000000000000000000815260040161085990613e23565b60405180910390fd5b61086c8383611830565b505050565b6000609980549050905090565b61088f61088961147b565b826118e9565b6108ce576040517f08c379a00000000000000000000000000000000000000000000000000000000081526004016108c590613f43565b60405180910390fd5b6108d98383836119c7565b505050565b600060c96000838152602001908152602001600020600101549050919050565b610907826108de565b6109188161091361147b565b611483565b6109228383611c23565b505050565b600061093283610ec0565b8210610973576040517f08c379a000000000000000000000000000000000000000000000000000000000815260040161096a90613d63565b60405180910390fd5b609760008473ffffffffffffffffffffffffffffffffffffffff1673ffffffffffffffffffffffffffffffffffffffff168152602001908152602001600020600083815260200190815260200160002054905092915050565b6109d461147b565b73ffffffffffffffffffffffffffffffffffffffff168173ffffffffffffffffffffffffffffffffffffffff1614610a41576040517f08c379a0000000000000000000000000000000000000000000000000000000008152600401610a3890613f83565b60405180910390fd5b610a4b8282611d04565b5050565b600060019054906101000a900460ff1680610a75575060008054906101000a900460ff16155b610ab4576040517f08c379a0000000000000000000000000000000000000000000000000000000008152600401610aab90613e83565b60405180910390fd5b60008060019054906101000a900460ff161590508015610b04576001600060016101000a81548160ff02191690831515021790555060016000806101000a81548160ff0219169083151502179055505b610b0c611de6565b610b168484611ed7565b8160fb9080519060200190610b2c929190613121565b50610b3a6000801b87611fcc565b610b647f9f2df0fed2c77648de5860a4cc508cd0818c85b8b8a1ab4ceeef8d981c8956a687611fcc565b600073ffffffffffffffffffffffffffffffffffffffff168573ffffffffffffffffffffffffffffffffffffffff1614610bc357610bc27f9f2df0fed2c77648de5860a4cc508cd0818c85b8b8a1ab4ceeef8d981c8956a686611fcc565b5b8015610be45760008060016101000a81548160ff0219169083151502179055505b505050505050565b610c078383836040518060200160405280600081525061123e565b505050565b6000610c16610871565b8210610c57576040517f08c379a0000000000000000000000000000000000000000000000000000000008152600401610c4e90613f63565b60405180910390fd5b60998281548110610c91577f4e487b7100000000000000000000000000000000000000000000000000000000600052603260045260246000fd5b90600052602060002001549050919050565b7f9f2df0fed2c77648de5860a4cc508cd0818c85b8b8a1ab4ceeef8d981c8956a6610cd581610cd061147b565b611483565b828260fb9190610ce69291906131a7565b50505050565b6000806067600084815260200190815260200160002060009054906101000a900473ffffffffffffffffffffffffffffffffffffffff169050600073ffffffffffffffffffffffffffffffffffffffff168173ffffffffffffffffffffffffffffffffffffffff161415610d95576040517f08c379a0000000000000000000000000000000000000000000000000000000008152600401610d8c90613e63565b60405180910390fd5b80915050919050565b7f9f2df0fed2c77648de5860a4cc508cd0818c85b8b8a1ab4ceeef8d981c8956a6610dd081610dcb61147b565b611483565b60005b84849050811015610eb857610e2786868684818110610e1b577f4e487b7100000000000000000000000000000000000000000000000000000000600052603260045260246000fd5b90506020020135611520565b600073ffffffffffffffffffffffffffffffffffffffff168373ffffffffffffffffffffffffffffffffffffffff1614610ea557610ea483868684818110610e98577f4e487b7100000000000000000000000000000000000000000000000000000000600052603260045260246000fd5b90506020020135611830565b5b8080610eb0906142ea565b915050610dd3565b505050505050565b60008073ffffffffffffffffffffffffffffffffffffffff168273ffffffffffffffffffffffffffffffffffffffff161415610f31576040517f08c379a0000000000000000000000000000000000000000000000000000000008152600401610f2890613e43565b60405180910390fd5b606860008373ffffffffffffffffffffffffffffffffffffffff1673ffffffffffffffffffffffffffffffffffffffff168152602001908152602001600020549050919050565b600060c9600084815260200190815260200160002060000160008373ffffffffffffffffffffffffffffffffffffffff1673ffffffffffffffffffffffffffffffffffffffff16815260200190815260200160002060009054906101000a900460ff16905092915050565b606060668054610ff290614287565b80601f016020809104026020016040519081016040528092919081815260200182805461101e90614287565b801561106b5780601f106110405761010080835404028352916020019161106b565b820191906000526020600020905b81548152906001019060200180831161104e57829003601f168201915b5050505050905090565b7f9f2df0fed2c77648de5860a4cc508cd0818c85b8b8a1ab4ceeef8d981c8956a66110a7816110a261147b565b611483565b6110b18383611fda565b505050565b6000801b81565b6110c561147b565b73ffffffffffffffffffffffffffffffffffffffff168273ffffffffffffffffffffffffffffffffffffffff161415611133576040517f08c379a000000000000000000000000000000000000000000000000000000000815260040161112a90613de3565b60405180910390fd5b80606a600061114061147b565b73ffffffffffffffffffffffffffffffffffffffff1673ffffffffffffffffffffffffffffffffffffffff16815260200190815260200160002060008473ffffffffffffffffffffffffffffffffffffffff1673ffffffffffffffffffffffffffffffffffffffff16815260200190815260200160002060006101000a81548160ff0219169083151502179055508173ffffffffffffffffffffffffffffffffffffffff166111ed61147b565b73ffffffffffffffffffffffffffffffffffffffff167f17307eab39ab6107e8899845ad3d59bd9653f200f220920489ca2b5937696c31836040516112329190613ceb565b60405180910390a35050565b61124f61124961147b565b836118e9565b61128e576040517f08c379a000000000000000000000000000000000000000000000000000000000815260040161128590613f43565b60405180910390fd5b61129a848484846116ee565b50505050565b60606112ab826117c4565b6112ea576040517f08c379a00000000000000000000000000000000000000000000000000000000081526004016112e190613f03565b60405180910390fd5b60006112f4611ff8565b90506000815111611314576040518060200160405280600081525061133f565b8061131e8461208a565b60405160200161132f929190613c04565b6040516020818303038152906040525b915050919050565b7f9f2df0fed2c77648de5860a4cc508cd0818c85b8b8a1ab4ceeef8d981c8956a681565b611374826108de565b6113858161138061147b565b611483565b61138f8383611d04565b505050565b606060006113a0611ff8565b905060008151116113c057604051806020016040528060008152506113e1565b806040516020016113d19190613c28565b6040516020818303038152906040525b91505090565b6000606a60008473ffffffffffffffffffffffffffffffffffffffff1673ffffffffffffffffffffffffffffffffffffffff16815260200190815260200160002060008373ffffffffffffffffffffffffffffffffffffffff1673ffffffffffffffffffffffffffffffffffffffff16815260200190815260200160002060009054906101000a900460ff16905092915050565b600033905090565b61148d8282610f78565b61151c576114b28173ffffffffffffffffffffffffffffffffffffffff166014612237565b6114c08360001c6020612237565b6040516020016114d1929190613c4a565b6040516020818303038152906040526040517f08c379a00000000000000000000000000000000000000000000000000000000081526004016115139190613d21565b60405180910390fd5b5050565b600073ffffffffffffffffffffffffffffffffffffffff168273ffffffffffffffffffffffffffffffffffffffff161415611590576040517f08c379a000000000000000000000000000000000000000000000000000000000815260040161158790613ea3565b60405180910390fd5b611599816117c4565b156115d9576040517f08c379a00000000000000000000000000000000000000000000000000000000081526004016115d090613da3565b60405180910390fd5b6115e560008383612531565b6001606860008473ffffffffffffffffffffffffffffffffffffffff1673ffffffffffffffffffffffffffffffffffffffff16815260200190815260200160002060008282546116359190614088565b92505081905550816067600083815260200190815260200160002060006101000a81548173ffffffffffffffffffffffffffffffffffffffff021916908373ffffffffffffffffffffffffffffffffffffffff160217905550808273ffffffffffffffffffffffffffffffffffffffff16600073ffffffffffffffffffffffffffffffffffffffff167fddf252ad1be2c89b69c2b068fc378daa952ba7f163c4a11628f55a4df523b3ef60405160405180910390a45050565b6116f98484846119c7565b61170584848484612645565b611744576040517f08c379a000000000000000000000000000000000000000000000000000000000815260040161173b90613d83565b60405180910390fd5b50505050565b60007f7965db0b000000000000000000000000000000000000000000000000000000007bffffffffffffffffffffffffffffffffffffffffffffffffffffffff1916827bffffffffffffffffffffffffffffffffffffffffffffffffffffffff191614806117bd57506117bc826127dc565b5b9050919050565b60008073ffffffffffffffffffffffffffffffffffffffff166067600084815260200190815260200160002060009054906101000a900473ffffffffffffffffffffffffffffffffffffffff1673ffffffffffffffffffffffffffffffffffffffff1614159050919050565b816069600083815260200190815260200160002060006101000a81548173ffffffffffffffffffffffffffffffffffffffff021916908373ffffffffffffffffffffffffffffffffffffffff160217905550808273ffffffffffffffffffffffffffffffffffffffff166118a383610cec565b73ffffffffffffffffffffffffffffffffffffffff167f8c5be1e5ebec7d5bd14f71427d1e84f3dd0314c0f7b2291e5b200ac8c7c3b92560405160405180910390a45050565b60006118f4826117c4565b611933576040517f08c379a000000000000000000000000000000000000000000000000000000000815260040161192a90613e03565b60405180910390fd5b600061193e83610cec565b90508073ffffffffffffffffffffffffffffffffffffffff168473ffffffffffffffffffffffffffffffffffffffff1614806119ad57508373ffffffffffffffffffffffffffffffffffffffff16611995846106d4565b73ffffffffffffffffffffffffffffffffffffffff16145b806119be57506119bd81856113e7565b5b91505092915050565b8273ffffffffffffffffffffffffffffffffffffffff166119e782610cec565b73ffffffffffffffffffffffffffffffffffffffff1614611a3d576040517f08c379a0000000000000000000000000000000000000000000000000000000008152600401611a3490613ee3565b60405180910390fd5b600073ffffffffffffffffffffffffffffffffffffffff168273ffffffffffffffffffffffffffffffffffffffff161415611aad576040517f08c379a0000000000000000000000000000000000000000000000000000000008152600401611aa490613dc3565b60405180910390fd5b611ab8838383612531565b611ac3600082611830565b6001606860008573ffffffffffffffffffffffffffffffffffffffff1673ffffffffffffffffffffffffffffffffffffffff1681526020019081526020016000206000828254611b139190614169565b925050819055506001606860008473ffffffffffffffffffffffffffffffffffffffff1673ffffffffffffffffffffffffffffffffffffffff1681526020019081526020016000206000828254611b6a9190614088565b92505081905550816067600083815260200190815260200160002060006101000a81548173ffffffffffffffffffffffffffffffffffffffff021916908373ffffffffffffffffffffffffffffffffffffffff160217905550808273ffffffffffffffffffffffffffffffffffffffff168473ffffffffffffffffffffffffffffffffffffffff167fddf252ad1be2c89b69c2b068fc378daa952ba7f163c4a11628f55a4df523b3ef60405160405180910390a4505050565b611c2d8282610f78565b611d0057600160c9600084815260200190815260200160002060000160008373ffffffffffffffffffffffffffffffffffffffff1673ffffffffffffffffffffffffffffffffffffffff16815260200190815260200160002060006101000a81548160ff021916908315150217905550611ca561147b565b73ffffffffffffffffffffffffffffffffffffffff168173ffffffffffffffffffffffffffffffffffffffff16837f2f8788117e7eff1d82e926ec794901d17c78024a50270940304540a733656f0d60405160405180910390a45b5050565b611d0e8282610f78565b15611de257600060c9600084815260200190815260200160002060000160008373ffffffffffffffffffffffffffffffffffffffff1673ffffffffffffffffffffffffffffffffffffffff16815260200190815260200160002060006101000a81548160ff021916908315150217905550611d8761147b565b73ffffffffffffffffffffffffffffffffffffffff168173ffffffffffffffffffffffffffffffffffffffff16837ff6391f5c32d9c69d2a47ea670b442974b53935d1edc7fd64eb21e047a839171b60405160405180910390a45b5050565b600060019054906101000a900460ff1680611e0c575060008054906101000a900460ff16155b611e4b576040517f08c379a0000000000000000000000000000000000000000000000000000000008152600401611e4290613e83565b60405180910390fd5b60008060019054906101000a900460ff161590508015611e9b576001600060016101000a81548160ff02191690831515021790555060016000806101000a81548160ff0219169083151502179055505b611ea3612856565b611eab61292f565b611eb3612a08565b8015611ed45760008060016101000a81548160ff0219169083151502179055505b50565b600060019054906101000a900460ff1680611efd575060008054906101000a900460ff16155b611f3c576040517f08c379a0000000000000000000000000000000000000000000000000000000008152600401611f3390613e83565b60405180910390fd5b60008060019054906101000a900460ff161590508015611f8c576001600060016101000a81548160ff02191690831515021790555060016000806101000a81548160ff0219169083151502179055505b611f94612856565b611f9c61292f565b611fa68383612ae1565b8015611fc75760008060016101000a81548160ff0219169083151502179055505b505050565b611fd68282611c23565b5050565b611ff4828260405180602001604052806000815250612bea565b5050565b606060fb805461200790614287565b80601f016020809104026020016040519081016040528092919081815260200182805461203390614287565b80156120805780601f1061205557610100808354040283529160200191612080565b820191906000526020600020905b81548152906001019060200180831161206357829003601f168201915b5050505050905090565b606060008214156120d2576040518060400160405280600181526020017f30000000000000000000000000000000000000000000000000000000000000008152509050612232565b600082905060005b600082146121045780806120ed906142ea565b915050600a826120fd91906140de565b91506120da565b60008167ffffffffffffffff811115612146577f4e487b7100000000000000000000000000000000000000000000000000000000600052604160045260246000fd5b6040519080825280601f01601f1916602001820160405280156121785781602001600182028036833780820191505090505b5090505b6000851461222b576001826121919190614169565b9150600a856121a09190614333565b60306121ac9190614088565b60f81b8183815181106121e8577f4e487b7100000000000000000000000000000000000000000000000000000000600052603260045260246000fd5b60200101907effffffffffffffffffffffffffffffffffffffffffffffffffffffffffffff1916908160001a905350600a8561222491906140de565b945061217c565b8093505050505b919050565b60606000600283600261224a919061410f565b6122549190614088565b67ffffffffffffffff811115612293577f4e487b7100000000000000000000000000000000000000000000000000000000600052604160045260246000fd5b6040519080825280601f01601f1916602001820160405280156122c55781602001600182028036833780820191505090505b5090507f300000000000000000000000000000000000000000000000000000000000000081600081518110612323577f4e487b7100000000000000000000000000000000000000000000000000000000600052603260045260246000fd5b60200101907effffffffffffffffffffffffffffffffffffffffffffffffffffffffffffff1916908160001a9053507f7800000000000000000000000000000000000000000000000000000000000000816001815181106123ad577f4e487b7100000000000000000000000000000000000000000000000000000000600052603260045260246000fd5b60200101907effffffffffffffffffffffffffffffffffffffffffffffffffffffffffffff1916908160001a905350600060018460026123ed919061410f565b6123f79190614088565b90505b60018111156124e3577f3031323334353637383961626364656600000000000000000000000000000000600f86166010811061245f577f4e487b7100000000000000000000000000000000000000000000000000000000600052603260045260246000fd5b1a60f81b82828151811061249c577f4e487b7100000000000000000000000000000000000000000000000000000000600052603260045260246000fd5b60200101907effffffffffffffffffffffffffffffffffffffffffffffffffffffffffffff1916908160001a905350600485901c9450806124dc9061425d565b90506123fa565b5060008414612527576040517f08c379a000000000000000000000000000000000000000000000000000000000815260040161251e90613d43565b60405180910390fd5b8091505092915050565b61253c838383612c45565b600073ffffffffffffffffffffffffffffffffffffffff168373ffffffffffffffffffffffffffffffffffffffff16141561257f5761257a81612c4a565b6125be565b8173ffffffffffffffffffffffffffffffffffffffff168373ffffffffffffffffffffffffffffffffffffffff16146125bd576125bc8382612c93565b5b5b600073ffffffffffffffffffffffffffffffffffffffff168273ffffffffffffffffffffffffffffffffffffffff161415612601576125fc81612e00565b612640565b8273ffffffffffffffffffffffffffffffffffffffff168273ffffffffffffffffffffffffffffffffffffffff161461263f5761263e8282612f43565b5b5b505050565b60006126668473ffffffffffffffffffffffffffffffffffffffff16612fc2565b156127cf578373ffffffffffffffffffffffffffffffffffffffff1663150b7a0261268f61147b565b8786866040518563ffffffff1660e01b81526004016126b19493929190613c9f565b602060405180830381600087803b1580156126cb57600080fd5b505af19250505080156126fc57506040513d601f19601f820116820180604052508101906126f9919061378c565b60015b61277f573d806000811461272c576040519150601f19603f3d011682016040523d82523d6000602084013e612731565b606091505b50600081511415612777576040517f08c379a000000000000000000000000000000000000000000000000000000000815260040161276e90613d83565b60405180910390fd5b805181602001fd5b63150b7a0260e01b7bffffffffffffffffffffffffffffffffffffffffffffffffffffffff1916817bffffffffffffffffffffffffffffffffffffffffffffffffffffffff1916149150506127d4565b600190505b949350505050565b60007f780e9d63000000000000000000000000000000000000000000000000000000007bffffffffffffffffffffffffffffffffffffffffffffffffffffffff1916827bffffffffffffffffffffffffffffffffffffffffffffffffffffffff1916148061284f575061284e82612fd5565b5b9050919050565b600060019054906101000a900460ff168061287c575060008054906101000a900460ff16155b6128bb576040517f08c379a00000000000000000000000000000000000000000000000000000000081526004016128b290613e83565b60405180910390fd5b60008060019054906101000a900460ff16159050801561290b576001600060016101000a81548160ff02191690831515021790555060016000806101000a81548160ff0219169083151502179055505b801561292c5760008060016101000a81548160ff0219169083151502179055505b50565b600060019054906101000a900460ff1680612955575060008054906101000a900460ff16155b612994576040517f08c379a000000000000000000000000000000000000000000000000000000000815260040161298b90613e83565b60405180910390fd5b60008060019054906101000a900460ff1615905080156129e4576001600060016101000a81548160ff02191690831515021790555060016000806101000a81548160ff0219169083151502179055505b8015612a055760008060016101000a81548160ff0219169083151502179055505b50565b600060019054906101000a900460ff1680612a2e575060008054906101000a900460ff16155b612a6d576040517f08c379a0000000000000000000000000000000000000000000000000000000008152600401612a6490613e83565b60405180910390fd5b60008060019054906101000a900460ff161590508015612abd576001600060016101000a81548160ff02191690831515021790555060016000806101000a81548160ff0219169083151502179055505b8015612ade5760008060016101000a81548160ff0219169083151502179055505b50565b600060019054906101000a900460ff1680612b07575060008054906101000a900460ff16155b612b46576040517f08c379a0000000000000000000000000000000000000000000000000000000008152600401612b3d90613e83565b60405180910390fd5b60008060019054906101000a900460ff161590508015612b96576001600060016101000a81548160ff02191690831515021790555060016000806101000a81548160ff0219169083151502179055505b8260659080519060200190612bac929190613121565b508160669080519060200190612bc3929190613121565b508015612be55760008060016101000a81548160ff0219169083151502179055505b505050565b612bf48383611520565b612c016000848484612645565b612c40576040517f08c379a0000000000000000000000000000000000000000000000000000000008152600401612c3790613d83565b60405180910390fd5b505050565b505050565b609980549050609a600083815260200190815260200160002081905550609981908060018154018082558091505060019003906000526020600020016000909190919091505550565b60006001612ca084610ec0565b612caa9190614169565b9050600060986000848152602001908152602001600020549050818114612d8f576000609760008673ffffffffffffffffffffffffffffffffffffffff1673ffffffffffffffffffffffffffffffffffffffff168152602001908152602001600020600084815260200190815260200160002054905080609760008773ffffffffffffffffffffffffffffffffffffffff1673ffffffffffffffffffffffffffffffffffffffff168152602001908152602001600020600084815260200190815260200160002081905550816098600083815260200190815260200160002081905550505b6098600084815260200190815260200160002060009055609760008573ffffffffffffffffffffffffffffffffffffffff1673ffffffffffffffffffffffffffffffffffffffff16815260200190815260200160002060008381526020019081526020016000206000905550505050565b60006001609980549050612e149190614169565b90506000609a6000848152602001908152602001600020549050600060998381548110612e6a577f4e487b7100000000000000000000000000000000000000000000000000000000600052603260045260246000fd5b906000526020600020015490508060998381548110612eb2577f4e487b7100000000000000000000000000000000000000000000000000000000600052603260045260246000fd5b906000526020600020018190555081609a600083815260200190815260200160002081905550609a6000858152602001908152602001600020600090556099805480612f27577f4e487b7100000000000000000000000000000000000000000000000000000000600052603160045260246000fd5b6001900381819060005260206000200160009055905550505050565b6000612f4e83610ec0565b905081609760008573ffffffffffffffffffffffffffffffffffffffff1673ffffffffffffffffffffffffffffffffffffffff168152602001908152602001600020600083815260200190815260200160002081905550806098600084815260200190815260200160002081905550505050565b600080823b905060008111915050919050565b60007f80ac58cd000000000000000000000000000000000000000000000000000000007bffffffffffffffffffffffffffffffffffffffffffffffffffffffff1916827bffffffffffffffffffffffffffffffffffffffffffffffffffffffff191614806130a057507f5b5e139f000000000000000000000000000000000000000000000000000000007bffffffffffffffffffffffffffffffffffffffffffffffffffffffff1916827bffffffffffffffffffffffffffffffffffffffffffffffffffffffff1916145b806130b057506130af826130b7565b5b9050919050565b60007f01ffc9a7000000000000000000000000000000000000000000000000000000007bffffffffffffffffffffffffffffffffffffffffffffffffffffffff1916827bffffffffffffffffffffffffffffffffffffffffffffffffffffffff1916149050919050565b82805461312d90614287565b90600052602060002090601f01602090048101928261314f5760008555613196565b82601f1061316857805160ff1916838001178555613196565b82800160010185558215613196579182015b8281111561319557825182559160200191906001019061317a565b5b5090506131a3919061322d565b5090565b8280546131b390614287565b90600052602060002090601f0160209004810192826131d5576000855561321c565b82601f106131ee57803560ff191683800117855561321c565b8280016001018555821561321c579182015b8281111561321b578235825591602001919060010190613200565b5b509050613229919061322d565b5090565b5b8082111561324657600081600090555060010161322e565b5090565b600061325d61325884613fe3565b613fbe565b90508281526020810184848401111561327557600080fd5b61328084828561421b565b509392505050565b600061329b61329684614014565b613fbe565b9050828152602081018484840111156132b357600080fd5b6132be84828561421b565b509392505050565b6000813590506132d5816149f1565b92915050565b60008083601f8401126132ed57600080fd5b8235905067ffffffffffffffff81111561330657600080fd5b60208301915083602082028301111561331e57600080fd5b9250929050565b60008135905061333481614a08565b92915050565b60008135905061334981614a1f565b92915050565b60008135905061335e81614a36565b92915050565b60008151905061337381614a36565b92915050565b600082601f83011261338a57600080fd5b813561339a84826020860161324a565b91505092915050565b60008083601f8401126133b557600080fd5b8235905067ffffffffffffffff8111156133ce57600080fd5b6020830191508360018202830111156133e657600080fd5b9250929050565b600082601f8301126133fe57600080fd5b813561340e848260208601613288565b91505092915050565b60008135905061342681614a4d565b92915050565b60006020828403121561343e57600080fd5b600061344c848285016132c6565b91505092915050565b6000806040838503121561346857600080fd5b6000613476858286016132c6565b9250506020613487858286016132c6565b9150509250929050565b600080600080600060a086880312156134a957600080fd5b60006134b7888289016132c6565b95505060206134c8888289016132c6565b945050604086013567ffffffffffffffff8111156134e557600080fd5b6134f1888289016133ed565b935050606086013567ffffffffffffffff81111561350e57600080fd5b61351a888289016133ed565b925050608086013567ffffffffffffffff81111561353757600080fd5b613543888289016133ed565b9150509295509295909350565b60008060006060848603121561356557600080fd5b6000613573868287016132c6565b9350506020613584868287016132c6565b925050604061359586828701613417565b9150509250925092565b600080600080608085870312156135b557600080fd5b60006135c3878288016132c6565b94505060206135d4878288016132c6565b93505060406135e587828801613417565b925050606085013567ffffffffffffffff81111561360257600080fd5b61360e87828801613379565b91505092959194509250565b6000806000806060858703121561363057600080fd5b600061363e878288016132c6565b945050602085013567ffffffffffffffff81111561365b57600080fd5b613667878288016132db565b9350935050604061367a878288016132c6565b91505092959194509250565b6000806040838503121561369957600080fd5b60006136a7858286016132c6565b92505060206136b885828601613325565b9150509250929050565b600080604083850312156136d557600080fd5b60006136e3858286016132c6565b92505060206136f485828601613417565b9150509250929050565b60006020828403121561371057600080fd5b600061371e8482850161333a565b91505092915050565b6000806040838503121561373a57600080fd5b60006137488582860161333a565b9250506020613759858286016132c6565b9150509250929050565b60006020828403121561377557600080fd5b60006137838482850161334f565b91505092915050565b60006020828403121561379e57600080fd5b60006137ac84828501613364565b91505092915050565b600080602083850312156137c857600080fd5b600083013567ffffffffffffffff8111156137e257600080fd5b6137ee858286016133a3565b92509250509250929050565b60006020828403121561380c57600080fd5b600061381a84828501613417565b91505092915050565b61382c8161419d565b82525050565b61383b816141af565b82525050565b61384a816141bb565b82525050565b600061385b82614045565b613865818561405b565b935061387581856020860161422a565b61387e81614420565b840191505092915050565b600061389482614050565b61389e818561406c565b93506138ae81856020860161422a565b6138b781614420565b840191505092915050565b60006138cd82614050565b6138d7818561407d565b93506138e781856020860161422a565b80840191505092915050565b600061390060208361406c565b915061390b82614431565b602082019050919050565b6000613923600d8361407d565b915061392e8261445a565b600d82019050919050565b6000613946602b8361406c565b915061395182614483565b604082019050919050565b600061396960328361406c565b9150613974826144d2565b604082019050919050565b600061398c601c8361406c565b915061399782614521565b602082019050919050565b60006139af60248361406c565b91506139ba8261454a565b604082019050919050565b60006139d260198361406c565b91506139dd82614599565b602082019050919050565b60006139f5602c8361406c565b9150613a00826145c2565b604082019050919050565b6000613a1860388361406c565b9150613a2382614611565b604082019050919050565b6000613a3b602a8361406c565b9150613a4682614660565b604082019050919050565b6000613a5e60298361406c565b9150613a69826146af565b604082019050919050565b6000613a81602e8361406c565b9150613a8c826146fe565b604082019050919050565b6000613aa460208361406c565b9150613aaf8261474d565b602082019050919050565b6000613ac7602c8361406c565b9150613ad282614776565b604082019050919050565b6000613aea60298361406c565b9150613af5826147c5565b604082019050919050565b6000613b0d602f8361406c565b9150613b1882614814565b604082019050919050565b6000613b3060218361406c565b9150613b3b82614863565b604082019050919050565b6000613b5360318361406c565b9150613b5e826148b2565b604082019050919050565b6000613b76602c8361406c565b9150613b8182614901565b604082019050919050565b6000613b9960178361407d565b9150613ba482614950565b601782019050919050565b6000613bbc60118361407d565b9150613bc782614979565b601182019050919050565b6000613bdf602f8361406c565b9150613bea826149a2565b604082019050919050565b613bfe81614211565b82525050565b6000613c1082856138c2565b9150613c1c82846138c2565b91508190509392505050565b6000613c3482846138c2565b9150613c3f82613916565b915081905092915050565b6000613c5582613b8c565b9150613c6182856138c2565b9150613c6c82613baf565b9150613c7882846138c2565b91508190509392505050565b6000602082019050613c996000830184613823565b92915050565b6000608082019050613cb46000830187613823565b613cc16020830186613823565b613cce6040830185613bf5565b8181036060830152613ce08184613850565b905095945050505050565b6000602082019050613d006000830184613832565b92915050565b6000602082019050613d1b6000830184613841565b92915050565b60006020820190508181036000830152613d3b8184613889565b905092915050565b60006020820190508181036000830152613d5c816138f3565b9050919050565b60006020820190508181036000830152613d7c81613939565b9050919050565b60006020820190508181036000830152613d9c8161395c565b9050919050565b60006020820190508181036000830152613dbc8161397f565b9050919050565b60006020820190508181036000830152613ddc816139a2565b9050919050565b60006020820190508181036000830152613dfc816139c5565b9050919050565b60006020820190508181036000830152613e1c816139e8565b9050919050565b60006020820190508181036000830152613e3c81613a0b565b9050919050565b60006020820190508181036000830152613e5c81613a2e565b9050919050565b60006020820190508181036000830152613e7c81613a51565b9050919050565b60006020820190508181036000830152613e9c81613a74565b9050919050565b60006020820190508181036000830152613ebc81613a97565b9050919050565b60006020820190508181036000830152613edc81613aba565b9050919050565b60006020820190508181036000830152613efc81613add565b9050919050565b60006020820190508181036000830152613f1c81613b00565b9050919050565b60006020820190508181036000830152613f3c81613b23565b9050919050565b60006020820190508181036000830152613f5c81613b46565b9050919050565b60006020820190508181036000830152613f7c81613b69565b9050919050565b60006020820190508181036000830152613f9c81613bd2565b9050919050565b6000602082019050613fb86000830184613bf5565b92915050565b6000613fc8613fd9565b9050613fd482826142b9565b919050565b6000604051905090565b600067ffffffffffffffff821115613ffe57613ffd6143f1565b5b61400782614420565b9050602081019050919050565b600067ffffffffffffffff82111561402f5761402e6143f1565b5b61403882614420565b9050602081019050919050565b600081519050919050565b600081519050919050565b600082825260208201905092915050565b600082825260208201905092915050565b600081905092915050565b600061409382614211565b915061409e83614211565b9250827fffffffffffffffffffffffffffffffffffffffffffffffffffffffffffffffff038211156140d3576140d2614364565b5b828201905092915050565b60006140e982614211565b91506140f483614211565b92508261410457614103614393565b5b828204905092915050565b600061411a82614211565b915061412583614211565b9250817fffffffffffffffffffffffffffffffffffffffffffffffffffffffffffffffff048311821515161561415e5761415d614364565b5b828202905092915050565b600061417482614211565b915061417f83614211565b92508282101561419257614191614364565b5b828203905092915050565b60006141a8826141f1565b9050919050565b60008115159050919050565b6000819050919050565b60007fffffffff0000000000000000000000000000000000000000000000000000000082169050919050565b600073ffffffffffffffffffffffffffffffffffffffff82169050919050565b6000819050919050565b82818337600083830152505050565b60005b8381101561424857808201518184015260208101905061422d565b83811115614257576000848401525b50505050565b600061426882614211565b9150600082141561427c5761427b614364565b5b600182039050919050565b6000600282049050600182168061429f57607f821691505b602082108114156142b3576142b26143c2565b5b50919050565b6142c282614420565b810181811067ffffffffffffffff821117156142e1576142e06143f1565b5b80604052505050565b60006142f582614211565b91507fffffffffffffffffffffffffffffffffffffffffffffffffffffffffffffffff82141561432857614327614364565b5b600182019050919050565b600061433e82614211565b915061434983614211565b92508261435957614358614393565b5b828206905092915050565b7f4e487b7100000000000000000000000000000000000000000000000000000000600052601160045260246000fd5b7f4e487b7100000000000000000000000000000000000000000000000000000000600052601260045260246000fd5b7f4e487b7100000000000000000000000000000000000000000000000000000000600052602260045260246000fd5b7f4e487b7100000000000000000000000000000000000000000000000000000000600052604160045260246000fd5b6000601f19601f8301169050919050565b7f537472696e67733a20686578206c656e67746820696e73756666696369656e74600082015250565b7f636f6e74726163742e6a736f6e00000000000000000000000000000000000000600082015250565b7f455243373231456e756d657261626c653a206f776e657220696e646578206f7560008201527f74206f6620626f756e6473000000000000000000000000000000000000000000602082015250565b7f4552433732313a207472616e7366657220746f206e6f6e20455243373231526560008201527f63656976657220696d706c656d656e7465720000000000000000000000000000602082015250565b7f4552433732313a20746f6b656e20616c7265616479206d696e74656400000000600082015250565b7f4552433732313a207472616e7366657220746f20746865207a65726f2061646460008201527f7265737300000000000000000000000000000000000000000000000000000000602082015250565b7f4552433732313a20617070726f766520746f2063616c6c657200000000000000600082015250565b7f4552433732313a206f70657261746f7220717565727920666f72206e6f6e657860008201527f697374656e7420746f6b656e0000000000000000000000000000000000000000602082015250565b7f4552433732313a20617070726f76652063616c6c6572206973206e6f74206f7760008201527f6e6572206e6f7220617070726f76656420666f7220616c6c0000000000000000602082015250565b7f4552433732313a2062616c616e636520717565727920666f7220746865207a6560008201527f726f206164647265737300000000000000000000000000000000000000000000602082015250565b7f4552433732313a206f776e657220717565727920666f72206e6f6e657869737460008201527f656e7420746f6b656e0000000000000000000000000000000000000000000000602082015250565b7f496e697469616c697a61626c653a20636f6e747261637420697320616c72656160008201527f647920696e697469616c697a6564000000000000000000000000000000000000602082015250565b7f4552433732313a206d696e7420746f20746865207a65726f2061646472657373600082015250565b7f4552433732313a20617070726f76656420717565727920666f72206e6f6e657860008201527f697374656e7420746f6b656e0000000000000000000000000000000000000000602082015250565b7f4552433732313a207472616e73666572206f6620746f6b656e2074686174206960008201527f73206e6f74206f776e0000000000000000000000000000000000000000000000602082015250565b7f4552433732314d657461646174613a2055524920717565727920666f72206e6f60008201527f6e6578697374656e7420746f6b656e0000000000000000000000000000000000602082015250565b7f4552433732313a20617070726f76616c20746f2063757272656e74206f776e6560008201527f7200000000000000000000000000000000000000000000000000000000000000602082015250565b7f4552433732313a207472616e736665722063616c6c6572206973206e6f74206f60008201527f776e6572206e6f7220617070726f766564000000000000000000000000000000602082015250565b7f455243373231456e756d657261626c653a20676c6f62616c20696e646578206f60008201527f7574206f6620626f756e64730000000000000000000000000000000000000000602082015250565b7f416363657373436f6e74726f6c3a206163636f756e7420000000000000000000600082015250565b7f206973206d697373696e6720726f6c6520000000000000000000000000000000600082015250565b7f416363657373436f6e74726f6c3a2063616e206f6e6c792072656e6f756e636560008201527f20726f6c657320666f722073656c660000000000000000000000000000000000602082015250565b6149fa8161419d565b8114614a0557600080fd5b50565b614a11816141af565b8114614a1c57600080fd5b50565b614a28816141bb565b8114614a3357600080fd5b50565b614a3f816141c5565b8114614a4a57600080fd5b50565b614a5681614211565b8114614a6157600080fd5b5056fea26469706673582212200ab1520b8fa65af1ae4818dac1edacf5fa95dd5013cbf5a75ef01eb82a66d85d64736f6c63430008040033",
  "devdoc": {
    "kind": "dev",
    "methods": {
      "createToken(string,string,string)": {
        "params": {
          "baseURI": "base URL that combines with token ID for metadata      location",
          "name": "ERC721 metadata name of the collection",
          "symbol": "ERC721 symbol"
        },
        "returns": {
          "_0": "address of the newly created contract"
        }
      },
      "createTokenWithMinter(address,string,string,string)": {
        "params": {
          "baseURI": "base URL that combines with token ID for metadata      location",
          "minter": "address is an account (other than the owner) with      permissions to mint tokens",
          "name": "ERC721 metadata name of the collection",
          "symbol": "ERC721 symbol"
        },
        "returns": {
          "_0": "address of the newly created contract"
        }
      }
    },
    "version": 1
  },
  "userdoc": {
    "kind": "user",
    "methods": {
      "createToken(string,string,string)": {
        "notice": "Deploy an ERC721 contract"
      },
      "createTokenWithMinter(address,string,string,string)": {
        "notice": "Deploy an ERC721 contract with an account set as minter"
      }
    },
    "version": 1
  },
  "storageLayout": {
    "storage": [],
    "types": null
  }
}