{
  "address": "0xe1F9B9197080637D712955346d67feBF26827189",
  "abi": [
    {
      "anonymous": false,
      "inputs": [
        {
          "indexed": true,
          "internalType": "address",
          "name": "previousGovernor",
          "type": "address"
        },
        {
          "indexed": true,
          "internalType": "address",
          "name": "newGovernor",
          "type": "address"
        }
      ],
      "name": "GovernorshipTransferred",
      "type": "event"
    },
    {
      "anonymous": false,
      "inputs": [
        {
          "indexed": false,
          "internalType": "address",
          "name": "controllerAddress",
          "type": "address"
        }
      ],
      "name": "NewController",
      "type": "event"
    },
    {
      "anonymous": false,
      "inputs": [
        {
          "indexed": false,
          "internalType": "address",
          "name": "account",
          "type": "address"
        }
      ],
      "name": "Paused",
      "type": "event"
    },
    {
      "anonymous": false,
      "inputs": [
        {
          "indexed": true,
          "internalType": "address",
          "name": "previousGovernor",
          "type": "address"
        },
        {
          "indexed": true,
          "internalType": "address",
          "name": "newGovernor",
          "type": "address"
        }
      ],
      "name": "PendingGovernorshipTransfer",
      "type": "event"
    },
    {
      "anonymous": false,
      "inputs": [
        {
          "indexed": true,
          "internalType": "address",
          "name": "asset",
          "type": "address"
        },
        {
          "indexed": true,
          "internalType": "address",
          "name": "toAddress",
          "type": "address"
        },
        {
          "indexed": false,
          "internalType": "uint256",
          "name": "amount",
          "type": "uint256"
        }
      ],
      "name": "RewardsSent",
      "type": "event"
    },
    {
      "anonymous": false,
      "inputs": [
        {
          "indexed": false,
          "internalType": "address",
          "name": "account",
          "type": "address"
        }
      ],
      "name": "Unpaused",
      "type": "event"
    },
    {
      "inputs": [],
      "name": "claimGovernance",
      "outputs": [],
      "stateMutability": "nonpayable",
      "type": "function"
    },
    {
      "inputs": [],
      "name": "controller",
      "outputs": [
        {
          "internalType": "address",
          "name": "",
          "type": "address"
        }
      ],
      "stateMutability": "view",
      "type": "function"
    },
    {
      "inputs": [],
      "name": "governor",
      "outputs": [
        {
          "internalType": "address",
          "name": "",
          "type": "address"
        }
      ],
      "stateMutability": "view",
      "type": "function"
    },
    {
      "inputs": [
        {
          "internalType": "address",
          "name": "controllerAddress",
          "type": "address"
        }
      ],
      "name": "initialize",
      "outputs": [],
      "stateMutability": "nonpayable",
      "type": "function"
    },
    {
      "inputs": [],
      "name": "isGovernor",
      "outputs": [
        {
          "internalType": "bool",
          "name": "",
          "type": "bool"
        }
      ],
      "stateMutability": "view",
      "type": "function"
    },
    {
      "inputs": [],
      "name": "pause",
      "outputs": [],
      "stateMutability": "nonpayable",
      "type": "function"
    },
    {
      "inputs": [],
      "name": "paused",
      "outputs": [
        {
          "internalType": "bool",
          "name": "",
          "type": "bool"
        }
      ],
      "stateMutability": "view",
      "type": "function"
    },
    {
      "inputs": [
        {
          "internalType": "address",
          "name": "tokenAddress",
          "type": "address"
        },
        {
          "internalType": "uint256",
          "name": "tokenAmount",
          "type": "uint256"
        },
        {
          "internalType": "address",
          "name": "toAddress",
          "type": "address"
        }
      ],
      "name": "recoverERC20",
      "outputs": [
        {
          "internalType": "bool",
          "name": "",
          "type": "bool"
        }
      ],
      "stateMutability": "nonpayable",
      "type": "function"
    },
    {
      "inputs": [
        {
          "internalType": "address",
          "name": "userAddress",
          "type": "address"
        },
        {
          "internalType": "uint256",
          "name": "amount",
          "type": "uint256"
        }
      ],
      "name": "sendETHRewards",
      "outputs": [
        {
          "internalType": "bool",
          "name": "",
          "type": "bool"
        }
      ],
      "stateMutability": "nonpayable",
      "type": "function"
    },
    {
      "inputs": [
        {
          "internalType": "address",
          "name": "tokenAddress",
          "type": "address"
        },
        {
          "internalType": "address",
          "name": "userAddress",
          "type": "address"
        },
        {
          "internalType": "uint256",
          "name": "amount",
          "type": "uint256"
        }
      ],
      "name": "sendTokenRewards",
      "outputs": [
        {
          "internalType": "bool",
          "name": "",
          "type": "bool"
        }
      ],
      "stateMutability": "nonpayable",
      "type": "function"
    },
    {
      "inputs": [
        {
          "internalType": "address",
          "name": "controllerAddress",
          "type": "address"
        }
      ],
      "name": "setController",
      "outputs": [],
      "stateMutability": "nonpayable",
      "type": "function"
    },
    {
      "inputs": [
        {
          "internalType": "address",
          "name": "_newGovernor",
          "type": "address"
        }
      ],
      "name": "transferGovernance",
      "outputs": [],
      "stateMutability": "nonpayable",
      "type": "function"
    },
    {
      "inputs": [],
      "name": "unpause",
      "outputs": [],
      "stateMutability": "nonpayable",
      "type": "function"
    },
    {
      "stateMutability": "payable",
      "type": "receive"
    }
  ],
  "transactionHash": "0x34ceb3630f96d660da9a9837451d836e8175458671982878731e5daadc7c215e",
  "args": [],
  "numDeployments": 1,
  "solcInputHash": "dd9a2e41f9cf4986a2d8fd0249872d04",
  "bytecode": "0x608060405234801561001057600080fd5b506100273360008051602061116083398151915255565b600080516020611160833981519152546040516001600160a01b03909116906000907fc7c0c772add429241571afb3805861fb3cfa2af374534088b76cdb4325a87e9a908290a36110e38061007d6000396000f3fe6080604052600436106100c65760003560e01c806392eefe9b1161007f578063c4d66de811610059578063c4d66de8146101ed578063c7af33521461020d578063d38bfff414610222578063f77c47911461024257600080fd5b806392eefe9b1461018d578063b51609b4146101ad578063c340a84d146101cd57600080fd5b80630c340a24146100d25780633f4ba83a1461010457806343c256981461011b5780635c975abb1461014b5780635d36b190146101635780638456cb591461017857600080fd5b366100cd57005b600080fd5b3480156100de57600080fd5b506100e7610262565b6040516001600160a01b0390911681526020015b60405180910390f35b34801561011057600080fd5b5061011961027f565b005b34801561012757600080fd5b5061013b610136366004610ede565b6102b6565b60405190151581526020016100fb565b34801561015757600080fd5b5060335460ff1661013b565b34801561016f57600080fd5b506101196104ed565b34801561018457600080fd5b50610119610591565b34801561019957600080fd5b506101196101a8366004610e89565b6105bd565b3480156101b957600080fd5b5061013b6101c8366004610f07565b61063f565b3480156101d957600080fd5b5061013b6101e8366004610ea3565b61069b565b3480156101f957600080fd5b50610119610208366004610e89565b610827565b34801561021957600080fd5b5061013b610904565b34801561022e57600080fd5b5061011961023d366004610e89565b610935565b34801561024e57600080fd5b506065546100e7906001600160a01b031681565b600061027a60008051602061108e8339815191525490565b905090565b610287610904565b6102ac5760405162461bcd60e51b81526004016102a390610fb1565b60405180910390fd5b6102b46109d9565b565b60006102c460335460ff1690565b156102e15760405162461bcd60e51b81526004016102a390610fe8565b6065546001600160a01b0316336001600160a01b0316146103445760405162461bcd60e51b815260206004820152601f60248201527f4665655661756c743a2053656e646572206e6f7420636f6e74726f6c6c65720060448201526064016102a3565b6001600160a01b03831661039a5760405162461bcd60e51b815260206004820152601b60248201527f4665655661756c743a2045544820746f20626c61636b20686f6c65000000000060448201526064016102a3565b600082116103ea5760405162461bcd60e51b815260206004820152601f60248201527f4665655661756c743a20417474656d707420746f2073656e642030204554480060448201526064016102a3565b6040518281526001600160a01b0384169073eeeeeeeeeeeeeeeeeeeeeeeeeeeeeeeeeeeeeeee907fae501bad6aaaa2e4d0f8643a69c2f725af29d188b67090354351375fce5ff0b89060200160405180910390a36000836001600160a01b031683610af090604051600060405180830381858888f193505050503d8060008114610490576040519150601f19603f3d011682016040523d82523d6000602084013e610495565b606091505b50509050806104e65760405162461bcd60e51b815260206004820152601d60248201527f4665655661756c743a20455448207472616e73666572206661696c656400000060448201526064016102a3565b9392505050565b7f44c4d30b2eaad5130ad70c3ba6972730566f3e6359ab83e800d905c61b1c51db546001600160a01b0316336001600160a01b0316146105885760405162461bcd60e51b815260206004820152603060248201527f4f6e6c79207468652070656e64696e6720476f7665726e6f722063616e20636f60448201526f6d706c6574652074686520636c61696d60801b60648201526084016102a3565b6102b433610a6c565b610599610904565b6105b55760405162461bcd60e51b81526004016102a390610fb1565b6102b4610b30565b6105c5610904565b6105e15760405162461bcd60e51b81526004016102a390610fb1565b6040516001600160a01b03821681527fe253457d9ad994ca9682fc3bbc38c890dca73a2d5ecee3809e548bac8b00d7c69060200160405180910390a1606580546001600160a01b0319166001600160a01b0392909216919091179055565b6000610649610904565b6106655760405162461bcd60e51b81526004016102a390610fb1565b60335460ff16156106885760405162461bcd60e51b81526004016102a390610fe8565b610693848385610b88565b949350505050565b60006106a960335460ff1690565b156106c65760405162461bcd60e51b81526004016102a390610fe8565b6065546001600160a01b0316336001600160a01b0316146107295760405162461bcd60e51b815260206004820152601f60248201527f4665655661756c743a2053656e646572206e6f7420636f6e74726f6c6c65720060448201526064016102a3565b6001600160a01b03831661077f5760405162461bcd60e51b815260206004820152601d60248201527f4665655661756c743a20546f6b656e20746f20626c61636b20686f6c6500000060448201526064016102a3565b600082116107cf5760405162461bcd60e51b815260206004820152601b60248201527f4665655661756c743a20417474656d707420746f2073656e642030000000000060448201526064016102a3565b826001600160a01b0316846001600160a01b03167fae501bad6aaaa2e4d0f8643a69c2f725af29d188b67090354351375fce5ff0b88460405161081491815260200190565b60405180910390a3610693848484610b88565b600054610100900460ff166108425760005460ff1615610846565b303b155b6108a95760405162461bcd60e51b815260206004820152602e60248201527f496e697469616c697a61626c653a20636f6e747261637420697320616c72656160448201526d191e481a5b9a5d1a585b1a5e995960921b60648201526084016102a3565b600054610100900460ff161580156108cb576000805461ffff19166101011790555b6108d3610ba8565b606580546001600160a01b0319166001600160a01b0384161790558015610900576000805461ff00191690555b5050565b600061091c60008051602061108e8339815191525490565b6001600160a01b0316336001600160a01b031614905090565b61093d610904565b6109595760405162461bcd60e51b81526004016102a390610fb1565b610981817f44c4d30b2eaad5130ad70c3ba6972730566f3e6359ab83e800d905c61b1c51db55565b806001600160a01b03166109a160008051602061108e8339815191525490565b6001600160a01b03167fa39cc5eb22d0f34d8beaefee8a3f17cc229c1a1d1ef87a5ad47313487b1c4f0d60405160405180910390a350565b60335460ff16610a225760405162461bcd60e51b815260206004820152601460248201527314185d5cd8589b194e881b9bdd081c185d5cd95960621b60448201526064016102a3565b6033805460ff191690557f5db9ee0a495bf2e6ff9c91a7834c1ba4fdd244a5e8aa4e537bd38aeae4b073aa335b6040516001600160a01b03909116815260200160405180910390a1565b6001600160a01b038116610ac25760405162461bcd60e51b815260206004820152601a60248201527f4e657720476f7665726e6f72206973206164647265737328302900000000000060448201526064016102a3565b806001600160a01b0316610ae260008051602061108e8339815191525490565b6001600160a01b03167fc7c0c772add429241571afb3805861fb3cfa2af374534088b76cdb4325a87e9a60405160405180910390a3610b2d8160008051602061108e83398151915255565b50565b60335460ff1615610b535760405162461bcd60e51b81526004016102a390610fe8565b6033805460ff191660011790557f62e78cea01bee320cd4e420270b5ea74000d11b0c9f74754ebdbfc544b05a258610a4f3390565b6000610b9e6001600160a01b0385168484610bdf565b5060019392505050565b600054610100900460ff16610bcf5760405162461bcd60e51b81526004016102a390611012565b610bd7610c36565b6102b4610c5d565b604080516001600160a01b038416602482015260448082018490528251808303909101815260649091019091526020810180516001600160e01b031663a9059cbb60e01b179052610c31908490610c90565b505050565b600054610100900460ff166102b45760405162461bcd60e51b81526004016102a390611012565b600054610100900460ff16610c845760405162461bcd60e51b81526004016102a390611012565b6033805460ff19169055565b6000610ce5826040518060400160405280602081526020017f5361666545524332303a206c6f772d6c6576656c2063616c6c206661696c6564815250856001600160a01b0316610d629092919063ffffffff16565b805190915015610c315780806020019051810190610d039190610f42565b610c315760405162461bcd60e51b815260206004820152602a60248201527f5361666545524332303a204552433230206f7065726174696f6e20646964206e6044820152691bdd081cdd58d8d9595960b21b60648201526084016102a3565b6060610693848460008585843b610dbb5760405162461bcd60e51b815260206004820152601d60248201527f416464726573733a2063616c6c20746f206e6f6e2d636f6e747261637400000060448201526064016102a3565b600080866001600160a01b03168587604051610dd79190610f62565b60006040518083038185875af1925050503d8060008114610e14576040519150601f19603f3d011682016040523d82523d6000602084013e610e19565b606091505b5091509150610e29828286610e34565b979650505050505050565b60608315610e435750816104e6565b825115610e535782518084602001fd5b8160405162461bcd60e51b81526004016102a39190610f7e565b80356001600160a01b0381168114610e8457600080fd5b919050565b600060208284031215610e9a578081fd5b6104e682610e6d565b600080600060608486031215610eb7578182fd5b610ec084610e6d565b9250610ece60208501610e6d565b9150604084013590509250925092565b60008060408385031215610ef0578182fd5b610ef983610e6d565b946020939093013593505050565b600080600060608486031215610f1b578283fd5b610f2484610e6d565b925060208401359150610f3960408501610e6d565b90509250925092565b600060208284031215610f53578081fd5b815180151581146104e6578182fd5b60008251610f7481846020870161105d565b9190910192915050565b6020815260008251806020840152610f9d81604085016020870161105d565b601f01601f19169190910160400192915050565b6020808252601a908201527f43616c6c6572206973206e6f742074686520476f7665726e6f72000000000000604082015260600190565b60208082526010908201526f14185d5cd8589b194e881c185d5cd95960821b604082015260600190565b6020808252602b908201527f496e697469616c697a61626c653a20636f6e7472616374206973206e6f74206960408201526a6e697469616c697a696e6760a81b606082015260800190565b60005b83811015611078578181015183820152602001611060565b83811115611087576000848401525b5050505056fe7bea13895fa79d2831e0a9e28edede30099005a50d652d8957cf8a607ee6ca4aa26469706673582212208a59b67e27b1253a3060076fefdedc4019cd68375e2fdb2b1e6e6bed1611c35d64736f6c634300080400337bea13895fa79d2831e0a9e28edede30099005a50d652d8957cf8a607ee6ca4a",
  "devdoc": {
    "kind": "dev",
    "methods": {
      "claimGovernance()": {
        "details": "Claim Governance of the contract to a new account (`newGovernor`). Can only be called by the new Governor."
      },
      "governor()": {
        "details": "Returns the address of the current Governor."
      },
      "initialize(address)": {
        "params": {
          "controllerAddress": "- Address for the account that will receive the      rewards"
        }
      },
      "isGovernor()": {
        "details": "Returns true if the caller is the current Governor."
      },
      "paused()": {
        "details": "Returns true if the contract is paused, and false otherwise."
      },
      "recoverERC20(address,uint256,address)": {
        "params": {
          "toAddress": "- address of the recipient of the tokens",
          "tokenAddress": "- address of the token to recover",
          "tokenAmount": "- amount of the token to recover"
        }
      },
      "sendETHRewards(address,uint256)": {
        "details": "Send ETH rewards to a user. Can only be called by controller.",
        "params": {
          "amount": "- amount of ETH (in wei)",
          "userAddress": "- address of the recipient of the ETH"
        }
      },
      "sendTokenRewards(address,address,uint256)": {
        "details": "Send token rewards to a user. Can only be called by controller.",
        "params": {
          "amount": "- amount of the token to send",
          "tokenAddress": "- address of the token to send",
          "userAddress": "- address of the recipient of the tokens"
        }
      },
      "transferGovernance(address)": {
        "details": "Transfers Governance of the contract to a new account (`newGovernor`). Can only be called by the current Governor. Must be claimed for this to complete",
        "params": {
          "_newGovernor": "Address of the new Governor"
        }
      }
    },
    "title": "Story FeeVault contract",
    "version": 1
  },
  "userdoc": {
    "kind": "user",
    "methods": {
      "pause()": {
        "notice": "Pause all funds movement functionality"
      },
      "recoverERC20(address,uint256,address)": {
        "notice": "Recover ERC20 tokens sent to contract.  This can only be called      by the governor."
      },
      "setController(address)": {
        "notice": "Set series address"
      },
      "unpause()": {
        "notice": "Pause all funds movement functionality"
      }
    },
    "notice": "Contract to collect NFT sales profits and rewards to be distributed      to OGN stakers.",
    "version": 1
  },
  "storageLayout": {
    "storage": [
      {
        "astId": 886,
        "contract": "contracts/staking/FeeVault.sol:FeeVault",
        "label": "_initialized",
        "offset": 0,
        "slot": "0",
        "type": "t_bool"
      },
      {
        "astId": 889,
        "contract": "contracts/staking/FeeVault.sol:FeeVault",
        "label": "_initializing",
        "offset": 1,
        "slot": "0",
        "type": "t_bool"
      },
      {
        "astId": 3075,
        "contract": "contracts/staking/FeeVault.sol:FeeVault",
        "label": "__gap",
        "offset": 0,
        "slot": "1",
        "type": "t_array(t_uint256)50_storage"
      },
      {
        "astId": 974,
        "contract": "contracts/staking/FeeVault.sol:FeeVault",
        "label": "_paused",
        "offset": 0,
        "slot": "51",
        "type": "t_bool"
      },
      {
        "astId": 1065,
        "contract": "contracts/staking/FeeVault.sol:FeeVault",
        "label": "__gap",
        "offset": 0,
        "slot": "52",
        "type": "t_array(t_uint256)49_storage"
      },
      {
        "astId": 13199,
        "contract": "contracts/staking/FeeVault.sol:FeeVault",
        "label": "controller",
        "offset": 0,
        "slot": "101",
        "type": "t_address"
      }
    ],
    "types": {
      "t_address": {
        "encoding": "inplace",
        "label": "address",
        "numberOfBytes": "20"
      },
      "t_array(t_uint256)49_storage": {
        "base": "t_uint256",
        "encoding": "inplace",
        "label": "uint256[49]",
        "numberOfBytes": "1568"
      },
      "t_array(t_uint256)50_storage": {
        "base": "t_uint256",
        "encoding": "inplace",
        "label": "uint256[50]",
        "numberOfBytes": "1600"
      },
      "t_bool": {
        "encoding": "inplace",
        "label": "bool",
        "numberOfBytes": "1"
      },
      "t_uint256": {
        "encoding": "inplace",
        "label": "uint256",
        "numberOfBytes": "32"
      }
    }
  }
}