{
  "address": "0x23Aa27018d35E2Bb0C4cCE9A63fB4f643e124C11",
  "abi": [
    {
      "anonymous": false,
      "inputs": [
        {
          "indexed": true,
          "internalType": "address",
          "name": "previousGovernor",
          "type": "address"
        },
        {
          "indexed": true,
          "internalType": "address",
          "name": "newGovernor",
          "type": "address"
        }
      ],
      "name": "GovernorshipTransferred",
      "type": "event"
    },
    {
      "anonymous": false,
      "inputs": [
        {
          "indexed": true,
          "internalType": "address",
          "name": "newCollector",
          "type": "address"
        },
        {
          "indexed": true,
          "internalType": "address",
          "name": "oldCollector",
          "type": "address"
        }
      ],
      "name": "NewCollector",
      "type": "event"
    },
    {
      "anonymous": false,
      "inputs": [
        {
          "indexed": true,
          "internalType": "address",
          "name": "previousGovernor",
          "type": "address"
        },
        {
          "indexed": true,
          "internalType": "address",
          "name": "newGovernor",
          "type": "address"
        }
      ],
      "name": "PendingGovernorshipTransfer",
      "type": "event"
    },
    {
      "inputs": [],
      "name": "claimGovernance",
      "outputs": [],
      "stateMutability": "nonpayable",
      "type": "function"
    },
    {
      "inputs": [
        {
          "internalType": "bytes32",
          "name": "salt",
          "type": "bytes32"
        },
        {
          "internalType": "address",
          "name": "asset",
          "type": "address"
        },
        {
          "internalType": "uint256",
          "name": "amount",
          "type": "uint256"
        }
      ],
      "name": "collect",
      "outputs": [],
      "stateMutability": "nonpayable",
      "type": "function"
    },
    {
      "inputs": [
        {
          "internalType": "bytes32[]",
          "name": "salts",
          "type": "bytes32[]"
        },
        {
          "internalType": "address[]",
          "name": "assets",
          "type": "address[]"
        },
        {
          "internalType": "uint256[]",
          "name": "amounts",
          "type": "uint256[]"
        }
      ],
      "name": "collectBatch",
      "outputs": [],
      "stateMutability": "nonpayable",
      "type": "function"
    },
    {
      "inputs": [],
      "name": "collector",
      "outputs": [
        {
          "internalType": "address",
          "name": "",
          "type": "address"
        }
      ],
      "stateMutability": "view",
      "type": "function"
    },
    {
      "inputs": [
        {
          "internalType": "bytes32",
          "name": "salt",
          "type": "bytes32"
        }
      ],
      "name": "getAddress",
      "outputs": [
        {
          "internalType": "address",
          "name": "",
          "type": "address"
        }
      ],
      "stateMutability": "view",
      "type": "function"
    },
    {
      "inputs": [],
      "name": "governor",
      "outputs": [
        {
          "internalType": "address",
          "name": "",
          "type": "address"
        }
      ],
      "stateMutability": "view",
      "type": "function"
    },
    {
      "inputs": [
        {
          "internalType": "address",
          "name": "_midProxy",
          "type": "address"
        }
      ],
      "name": "initialize",
      "outputs": [],
      "stateMutability": "nonpayable",
      "type": "function"
    },
    {
      "inputs": [],
      "name": "isGovernor",
      "outputs": [
        {
          "internalType": "bool",
          "name": "",
          "type": "bool"
        }
      ],
      "stateMutability": "view",
      "type": "function"
    },
    {
      "inputs": [
        {
          "internalType": "address",
          "name": "_collector",
          "type": "address"
        }
      ],
      "name": "setCollector",
      "outputs": [],
      "stateMutability": "nonpayable",
      "type": "function"
    },
    {
      "inputs": [
        {
          "internalType": "address",
          "name": "_newGovernor",
          "type": "address"
        }
      ],
      "name": "transferGovernance",
      "outputs": [],
      "stateMutability": "nonpayable",
      "type": "function"
    }
  ],
  "transactionHash": "0x6c390c46cdcd3180d95dfc7220df731b97c4fb4292f3c5f492a2c17dea0fc26c",
  "args": [],
  "numDeployments": 1,
  "solcInputHash": "dd9a2e41f9cf4986a2d8fd0249872d04",
  "bytecode": "0x608060405234801561001057600080fd5b5061002733600080516020610cb883398151915255565b600080516020610cb8833981519152546040516001600160a01b03909116906000907fc7c0c772add429241571afb3805861fb3cfa2af374534088b76cdb4325a87e9a908290a3610c3b8061007d6000396000f3fe608060405234801561001057600080fd5b506004361061009e5760003560e01c8063c4d66de811610066578063c4d66de81461010b578063c7af33521461011e578063d38bfff414610136578063ec3f5f7914610149578063fb5b82d01461015c57600080fd5b80630c340a24146100a357806321f8a721146100c8578063596fce3b146100db5780635d36b190146100f0578063913e77ad146100f8575b600080fd5b6100ab61016f565b6040516001600160a01b0390911681526020015b60405180910390f35b6100ab6100d6366004610af8565b61018c565b6100ee6100e9366004610b10565b610209565b005b6100ee610339565b6001546100ab906001600160a01b031681565b6100ee610119366004610a48565b6103df565b61012661054a565b60405190151581526020016100bf565b6100ee610144366004610a48565b61057b565b6100ee610157366004610a62565b61061f565b6100ee61016a366004610a48565b610790565b6000610187600080516020610be68339815191525490565b905090565b600080546201000090046001600160a01b03166101e75760405162461bcd60e51b8152602060048201526014602482015273135a59141c9bde1e481b5d5cdd081899481cd95d60621b60448201526064015b60405180910390fd5b600054610203906201000090046001600160a01b031683610811565b92915050565b6001546001600160a01b031633146102335760405162461bcd60e51b81526004016101de90610b44565b60008054610250906201000090046001600160a01b031685610811565b9050803b6102d15760008054610275906201000090046001600160a01b03168661087e565b9050816001600160a01b0316816001600160a01b0316146102cf5760405162461bcd60e51b8152602060048201526014602482015273082c8c8e4cae6e6cae640daeae6e840dac2e8c6d60631b60448201526064016101de565b505b604051631ae0d5eb60e21b81526001600160a01b03848116600483015260248201849052821690636b8357ac90604401600060405180830381600087803b15801561031b57600080fd5b505af115801561032f573d6000803e3d6000fd5b5050505050505050565b7f44c4d30b2eaad5130ad70c3ba6972730566f3e6359ab83e800d905c61b1c51db546001600160a01b0316336001600160a01b0316146103d45760405162461bcd60e51b815260206004820152603060248201527f4f6e6c79207468652070656e64696e6720476f7665726e6f722063616e20636f60448201526f6d706c6574652074686520636c61696d60801b60648201526084016101de565b6103dd3361091e565b565b600054610100900460ff166103fa5760005460ff16156103fe565b303b155b6104615760405162461bcd60e51b815260206004820152602e60248201527f496e697469616c697a61626c653a20636f6e747261637420697320616c72656160448201526d191e481a5b9a5d1a585b1a5e995960921b60648201526084016101de565b600054610100900460ff16158015610483576000805461ffff19166101011790555b61048b61054a565b6104a75760405162461bcd60e51b81526004016101de90610b87565b600080546001600160a01b038085166201000090810262010000600160b01b03199093169290921792839055600180546001600160a01b031916331790559104166105345760405162461bcd60e51b815260206004820152601f60248201527f496e676573744d61737465723a206d696450726f7879206d757374207365740060448201526064016101de565b8015610546576000805461ff00191690555b5050565b6000610562600080516020610be68339815191525490565b6001600160a01b0316336001600160a01b031614905090565b61058361054a565b61059f5760405162461bcd60e51b81526004016101de90610b87565b6105c7817f44c4d30b2eaad5130ad70c3ba6972730566f3e6359ab83e800d905c61b1c51db55565b806001600160a01b03166105e7600080516020610be68339815191525490565b6001600160a01b03167fa39cc5eb22d0f34d8beaefee8a3f17cc229c1a1d1ef87a5ad47313487b1c4f0d60405160405180910390a350565b6001546001600160a01b031633146106495760405162461bcd60e51b81526004016101de90610b44565b848381146106995760405162461bcd60e51b815260206004820152601860248201527f417373657473206c656e677468206d757374206d61746368000000000000000060448201526064016101de565b8082146106e85760405162461bcd60e51b815260206004820152601960248201527f416d6f756e7473206c656e677468206d757374206d617463680000000000000060448201526064016101de565b60005b8181101561032f5761077e88888381811061071657634e487b7160e01b600052603260045260246000fd5b9050602002013587878481811061073d57634e487b7160e01b600052603260045260246000fd5b90506020020160208101906107529190610a48565b86868581811061077257634e487b7160e01b600052603260045260246000fd5b90506020020135610209565b8061078881610bbe565b9150506106eb565b61079861054a565b6107b45760405162461bcd60e51b81526004016101de90610b87565b6001546040516001600160a01b03918216918316907f703f903d15d7018d46411f5f27e15d986844408e3c78842846232cca6a43884790600090a3600180546001600160a01b0319166001600160a01b0392909216919091179055565b6000610877838330604051733d602d80600a3d3981f3363d3d373d3d3d363d7360601b8152606093841b60148201526f5af43d82803e903d91602b57fd5bf3ff60801b6028820152921b6038830152604c8201526037808220606c830152605591012090565b9392505050565b6000604051733d602d80600a3d3981f3363d3d373d3d3d363d7360601b81528360601b60148201526e5af43d82803e903d91602b57fd5bf360881b6028820152826037826000f59150506001600160a01b0381166102035760405162461bcd60e51b815260206004820152601760248201527f455243313136373a2063726561746532206661696c656400000000000000000060448201526064016101de565b6001600160a01b0381166109745760405162461bcd60e51b815260206004820152601a60248201527f4e657720476f7665726e6f72206973206164647265737328302900000000000060448201526064016101de565b806001600160a01b0316610994600080516020610be68339815191525490565b6001600160a01b03167fc7c0c772add429241571afb3805861fb3cfa2af374534088b76cdb4325a87e9a60405160405180910390a36109df81600080516020610be683398151915255565b50565b80356001600160a01b03811681146109f957600080fd5b919050565b60008083601f840112610a0f578182fd5b50813567ffffffffffffffff811115610a26578182fd5b6020830191508360208260051b8501011115610a4157600080fd5b9250929050565b600060208284031215610a59578081fd5b610877826109e2565b60008060008060008060608789031215610a7a578182fd5b863567ffffffffffffffff80821115610a91578384fd5b610a9d8a838b016109fe565b90985096506020890135915080821115610ab5578384fd5b610ac18a838b016109fe565b90965094506040890135915080821115610ad9578384fd5b50610ae689828a016109fe565b979a9699509497509295939492505050565b600060208284031215610b09578081fd5b5035919050565b600080600060608486031215610b24578283fd5b83359250610b34602085016109e2565b9150604084013590509250925092565b60208082526023908201527f4d61737465723a2043616c6c6572206973206e6f742074686520436f6c6c65636040820152623a37b960e91b606082015260800190565b6020808252601a908201527f43616c6c6572206973206e6f742074686520476f7665726e6f72000000000000604082015260600190565b6000600019821415610bde57634e487b7160e01b81526011600452602481fd5b506001019056fe7bea13895fa79d2831e0a9e28edede30099005a50d652d8957cf8a607ee6ca4aa26469706673582212209fc1b202c1fe76fd11e38cdca910e6605b4bdef865f13cf62276084958c2852a64736f6c634300080400337bea13895fa79d2831e0a9e28edede30099005a50d652d8957cf8a607ee6ca4a",
  "devdoc": {
    "kind": "dev",
    "methods": {
      "claimGovernance()": {
        "details": "Claim Governance of the contract to a new account (`newGovernor`). Can only be called by the new Governor."
      },
      "governor()": {
        "details": "Returns the address of the current Governor."
      },
      "isGovernor()": {
        "details": "Returns true if the caller is the current Governor."
      },
      "transferGovernance(address)": {
        "details": "Transfers Governance of the contract to a new account (`newGovernor`). Can only be called by the current Governor. Must be claimed for this to complete",
        "params": {
          "_newGovernor": "Address of the new Governor"
        }
      }
    },
    "version": 1
  },
  "userdoc": {
    "kind": "user",
    "methods": {},
    "version": 1
  },
  "storageLayout": {
    "storage": [
      {
        "astId": 4912,
        "contract": "contracts/ingest/IngestMaster.sol:IngestMaster",
        "label": "_initialized",
        "offset": 0,
        "slot": "0",
        "type": "t_bool"
      },
      {
        "astId": 4915,
        "contract": "contracts/ingest/IngestMaster.sol:IngestMaster",
        "label": "_initializing",
        "offset": 1,
        "slot": "0",
        "type": "t_bool"
      },
      {
        "astId": 9285,
        "contract": "contracts/ingest/IngestMaster.sol:IngestMaster",
        "label": "midProxy",
        "offset": 2,
        "slot": "0",
        "type": "t_address"
      },
      {
        "astId": 9287,
        "contract": "contracts/ingest/IngestMaster.sol:IngestMaster",
        "label": "collector",
        "offset": 0,
        "slot": "1",
        "type": "t_address"
      }
    ],
    "types": {
      "t_address": {
        "encoding": "inplace",
        "label": "address",
        "numberOfBytes": "20"
      },
      "t_bool": {
        "encoding": "inplace",
        "label": "bool",
        "numberOfBytes": "1"
      }
    }
  }
}