{
  "address": "0x86881585cB3DfD2dDAA7A490E16F844B357eb67C",
  "abi": [
    {
      "anonymous": false,
      "inputs": [
        {
          "indexed": true,
          "internalType": "address",
          "name": "previousGovernor",
          "type": "address"
        },
        {
          "indexed": true,
          "internalType": "address",
          "name": "newGovernor",
          "type": "address"
        }
      ],
      "name": "GovernorshipTransferred",
      "type": "event"
    },
    {
      "anonymous": false,
      "inputs": [
        {
          "indexed": true,
          "internalType": "address",
          "name": "newCollector",
          "type": "address"
        },
        {
          "indexed": true,
          "internalType": "address",
          "name": "oldCollector",
          "type": "address"
        }
      ],
      "name": "NewEndpointImplementation",
      "type": "event"
    },
    {
      "anonymous": false,
      "inputs": [
        {
          "indexed": true,
          "internalType": "address",
          "name": "newMaster",
          "type": "address"
        },
        {
          "indexed": true,
          "internalType": "address",
          "name": "oldMaster",
          "type": "address"
        }
      ],
      "name": "NewMaster",
      "type": "event"
    },
    {
      "anonymous": false,
      "inputs": [
        {
          "indexed": true,
          "internalType": "address",
          "name": "newPool",
          "type": "address"
        },
        {
          "indexed": true,
          "internalType": "address",
          "name": "oldPool",
          "type": "address"
        }
      ],
      "name": "NewPool",
      "type": "event"
    },
    {
      "anonymous": false,
      "inputs": [
        {
          "indexed": true,
          "internalType": "address",
          "name": "previousGovernor",
          "type": "address"
        },
        {
          "indexed": true,
          "internalType": "address",
          "name": "newGovernor",
          "type": "address"
        }
      ],
      "name": "PendingGovernorshipTransfer",
      "type": "event"
    },
    {
      "inputs": [],
      "name": "claimGovernance",
      "outputs": [],
      "stateMutability": "nonpayable",
      "type": "function"
    },
    {
      "inputs": [],
      "name": "endpointImplementation",
      "outputs": [
        {
          "internalType": "address",
          "name": "",
          "type": "address"
        }
      ],
      "stateMutability": "view",
      "type": "function"
    },
    {
      "inputs": [],
      "name": "governor",
      "outputs": [
        {
          "internalType": "address",
          "name": "",
          "type": "address"
        }
      ],
      "stateMutability": "view",
      "type": "function"
    },
    {
      "inputs": [],
      "name": "isGovernor",
      "outputs": [
        {
          "internalType": "bool",
          "name": "",
          "type": "bool"
        }
      ],
      "stateMutability": "view",
      "type": "function"
    },
    {
      "inputs": [],
      "name": "master",
      "outputs": [
        {
          "internalType": "address",
          "name": "",
          "type": "address"
        }
      ],
      "stateMutability": "view",
      "type": "function"
    },
    {
      "inputs": [],
      "name": "pool",
      "outputs": [
        {
          "internalType": "address",
          "name": "",
          "type": "address"
        }
      ],
      "stateMutability": "view",
      "type": "function"
    },
    {
      "inputs": [
        {
          "internalType": "address",
          "name": "addr",
          "type": "address"
        }
      ],
      "name": "setEndpointImplementation",
      "outputs": [],
      "stateMutability": "nonpayable",
      "type": "function"
    },
    {
      "inputs": [
        {
          "internalType": "address",
          "name": "addr",
          "type": "address"
        }
      ],
      "name": "setMaster",
      "outputs": [],
      "stateMutability": "nonpayable",
      "type": "function"
    },
    {
      "inputs": [
        {
          "internalType": "address",
          "name": "addr",
          "type": "address"
        }
      ],
      "name": "setPool",
      "outputs": [],
      "stateMutability": "nonpayable",
      "type": "function"
    },
    {
      "inputs": [
        {
          "internalType": "address",
          "name": "_newGovernor",
          "type": "address"
        }
      ],
      "name": "transferGovernance",
      "outputs": [],
      "stateMutability": "nonpayable",
      "type": "function"
    }
  ],
  "transactionHash": "0x8e45bfea4edca8d302eac6c1de599f12f5cec0364f9beacbb08eb851d6699056",
  "args": [],
  "numDeployments": 1,
  "solcInputHash": "dd9a2e41f9cf4986a2d8fd0249872d04",
  "bytecode": "0x608060405234801561001057600080fd5b506100273360008051602061068e83398151915255565b60008051602061068e833981519152546040516001600160a01b03909116906000907fc7c0c772add429241571afb3805861fb3cfa2af374534088b76cdb4325a87e9a908290a36106118061007d6000396000f3fe608060405234801561001057600080fd5b506004361061009e5760003560e01c80636b9ab8c3116100665780636b9ab8c31461010b5780636e2c779a1461011e578063c7af335214610131578063d38bfff414610149578063ee97f7f31461015c57600080fd5b80630c340a24146100a357806316f0115b146100c857806326fae0d3146100db5780634437152a146100f05780635d36b19014610103575b600080fd5b6100ab61016f565b6040516001600160a01b0390911681526020015b60405180910390f35b6002546100ab906001600160a01b031681565b6100ee6100e9366004610556565b61018c565b005b6100ee6100fe366004610556565b610216565b6100ee610297565b6100ee610119366004610556565b61033d565b6000546100ab906001600160a01b031681565b6101396103bd565b60405190151581526020016100bf565b6100ee610157366004610556565b6103ee565b6001546100ab906001600160a01b031681565b60006101876000805160206105bc8339815191525490565b905090565b6101946103bd565b6101b95760405162461bcd60e51b81526004016101b090610584565b60405180910390fd5b6001546040516001600160a01b03918216918316907f86252e3757e33841641a80f45eb868576e3205beeb90ea3a70114de9a7d313b090600090a3600180546001600160a01b0319166001600160a01b0392909216919091179055565b61021e6103bd565b61023a5760405162461bcd60e51b81526004016101b090610584565b6002546040516001600160a01b03918216918316907f77948cb83ef3caff9ac13dfab1ea1f8a6875c98370287ce587f5dbc74cc5b6b090600090a3600280546001600160a01b0319166001600160a01b0392909216919091179055565b7f44c4d30b2eaad5130ad70c3ba6972730566f3e6359ab83e800d905c61b1c51db546001600160a01b0316336001600160a01b0316146103325760405162461bcd60e51b815260206004820152603060248201527f4f6e6c79207468652070656e64696e6720476f7665726e6f722063616e20636f60448201526f6d706c6574652074686520636c61696d60801b60648201526084016101b0565b61033b33610492565b565b6103456103bd565b6103615760405162461bcd60e51b81526004016101b090610584565b600080546040516001600160a01b0391821692918416917f8d2065282a4348c35ad3bc6d40ab75481ba38bf106502fe1545a1575d4d76fa991a3600080546001600160a01b0319166001600160a01b0392909216919091179055565b60006103d56000805160206105bc8339815191525490565b6001600160a01b0316336001600160a01b031614905090565b6103f66103bd565b6104125760405162461bcd60e51b81526004016101b090610584565b61043a817f44c4d30b2eaad5130ad70c3ba6972730566f3e6359ab83e800d905c61b1c51db55565b806001600160a01b031661045a6000805160206105bc8339815191525490565b6001600160a01b03167fa39cc5eb22d0f34d8beaefee8a3f17cc229c1a1d1ef87a5ad47313487b1c4f0d60405160405180910390a350565b6001600160a01b0381166104e85760405162461bcd60e51b815260206004820152601a60248201527f4e657720476f7665726e6f72206973206164647265737328302900000000000060448201526064016101b0565b806001600160a01b03166105086000805160206105bc8339815191525490565b6001600160a01b03167fc7c0c772add429241571afb3805861fb3cfa2af374534088b76cdb4325a87e9a60405160405180910390a3610553816000805160206105bc83398151915255565b50565b600060208284031215610567578081fd5b81356001600160a01b038116811461057d578182fd5b9392505050565b6020808252601a908201527f43616c6c6572206973206e6f742074686520476f7665726e6f7200000000000060408201526060019056fe7bea13895fa79d2831e0a9e28edede30099005a50d652d8957cf8a607ee6ca4aa264697066735822122018559642b709e8c4e8e4d5aaac9d2d5efae817409a62c51d90798b2b4edf384664736f6c634300080400337bea13895fa79d2831e0a9e28edede30099005a50d652d8957cf8a607ee6ca4a",
  "devdoc": {
    "kind": "dev",
    "methods": {
      "claimGovernance()": {
        "details": "Claim Governance of the contract to a new account (`newGovernor`). Can only be called by the new Governor."
      },
      "governor()": {
        "details": "Returns the address of the current Governor."
      },
      "isGovernor()": {
        "details": "Returns true if the caller is the current Governor."
      },
      "transferGovernance(address)": {
        "details": "Transfers Governance of the contract to a new account (`newGovernor`). Can only be called by the current Governor. Must be claimed for this to complete",
        "params": {
          "_newGovernor": "Address of the new Governor"
        }
      }
    },
    "version": 1
  },
  "userdoc": {
    "kind": "user",
    "methods": {},
    "version": 1
  },
  "storageLayout": {
    "storage": [
      {
        "astId": 9545,
        "contract": "contracts/ingest/IngestRegistry.sol:IngestRegistry",
        "label": "endpointImplementation",
        "offset": 0,
        "slot": "0",
        "type": "t_address"
      },
      {
        "astId": 9547,
        "contract": "contracts/ingest/IngestRegistry.sol:IngestRegistry",
        "label": "master",
        "offset": 0,
        "slot": "1",
        "type": "t_address"
      },
      {
        "astId": 9549,
        "contract": "contracts/ingest/IngestRegistry.sol:IngestRegistry",
        "label": "pool",
        "offset": 0,
        "slot": "2",
        "type": "t_address"
      }
    ],
    "types": {
      "t_address": {
        "encoding": "inplace",
        "label": "address",
        "numberOfBytes": "20"
      }
    }
  }
}