{
  "address": "0x699F03E0b9741A1DF89a29bDAC727cA3Ab31c305",
  "abi": [
    {
      "inputs": [],
      "stateMutability": "nonpayable",
      "type": "constructor"
    },
    {
      "anonymous": false,
      "inputs": [
        {
          "indexed": true,
          "internalType": "address",
          "name": "addr",
          "type": "address"
        },
        {
          "indexed": true,
          "internalType": "address",
          "name": "deployer",
          "type": "address"
        }
      ],
      "name": "CreateToken",
      "type": "event"
    },
    {
      "inputs": [
        {
          "internalType": "string",
          "name": "name",
          "type": "string"
        },
        {
          "internalType": "string",
          "name": "symbol",
          "type": "string"
        },
        {
          "internalType": "string",
          "name": "baseURI",
          "type": "string"
        }
      ],
      "name": "createToken",
      "outputs": [
        {
          "internalType": "address",
          "name": "",
          "type": "address"
        }
      ],
      "stateMutability": "nonpayable",
      "type": "function"
    },
    {
      "inputs": [
        {
          "internalType": "address",
          "name": "minter",
          "type": "address"
        },
        {
          "internalType": "string",
          "name": "name",
          "type": "string"
        },
        {
          "internalType": "string",
          "name": "symbol",
          "type": "string"
        },
        {
          "internalType": "string",
          "name": "baseURI",
          "type": "string"
        }
      ],
      "name": "createTokenWithMinter",
      "outputs": [
        {
          "internalType": "address",
          "name": "",
          "type": "address"
        }
      ],
      "stateMutability": "nonpayable",
      "type": "function"
    }
  ],
  "transactionHash": "0x94bf8fc6d1d820bdaff5d51e93480ebe3717728db667e13da2448dd080820476",
  "args": [],
  "numDeployments": 1,
  "solcInputHash": "dd9a2e41f9cf4986a2d8fd0249872d04",
  "bytecode": "0x60a060405234801561001057600080fd5b5060405161001d9061004f565b604051809103906000f080158015610039573d6000803e3d6000fd5b5060601b6001600160601b03191660805261005c565b6126608061050583390190565b60805160601c61048c610079600039600060c1015261048c6000f3fe608060405234801561001057600080fd5b50600436106100365760003560e01c80630cbf5d721461003b57806394aed7d01461006a575b600080fd5b61004e61004936600461027f565b61007d565b6040516001600160a01b03909116815260200160405180910390f35b61004e610078366004610333565b61009b565b600061008f33898989898989896100b9565b98975050505050505050565b60006100ae3360008989898989896100b9565b979650505050505050565b6000806100e57f0000000000000000000000000000000000000000000000000000000000000000610197565b604051631f97af7160e11b81529091506001600160a01b03821690633f2f5ee290610122908d908d908d908d908d908d908d908d906004016103f2565b600060405180830381600087803b15801561013c57600080fd5b505af1158015610150573d6000803e3d6000fd5b50506040513392506001600160a01b03841691507f62ec089d6c661de888091dd8fd0550160f8a27e337ad3f847b01a94d7064207f90600090a39998505050505050505050565b6000604051733d602d80600a3d3981f3363d3d373d3d3d363d7360601b81528260601b60148201526e5af43d82803e903d91602b57fd5bf360881b60288201526037816000f09150506001600160a01b0381166102335760405162461bcd60e51b8152602060048201526016602482015275115490cc4c4d8dce8818dc99585d194819985a5b195960521b604482015260640160405180910390fd5b919050565b60008083601f840112610249578182fd5b50813567ffffffffffffffff811115610260578182fd5b60208301915083602082850101111561027857600080fd5b9250929050565b60008060008060008060006080888a031215610299578283fd5b87356001600160a01b03811681146102af578384fd5b9650602088013567ffffffffffffffff808211156102cb578485fd5b6102d78b838c01610238565b909850965060408a01359150808211156102ef578485fd5b6102fb8b838c01610238565b909650945060608a0135915080821115610313578384fd5b506103208a828b01610238565b989b979a50959850939692959293505050565b6000806000806000806060878903121561034b578182fd5b863567ffffffffffffffff80821115610362578384fd5b61036e8a838b01610238565b90985096506020890135915080821115610386578384fd5b6103928a838b01610238565b909650945060408901359150808211156103aa578384fd5b506103b789828a01610238565b979a9699509497509295939492505050565b81835281816020850137506000828201602090810191909152601f909101601f19169091010190565b6001600160a01b0389811682528816602082015260a06040820181905260009061041f908301888a6103c9565b82810360608401526104328187896103c9565b905082810360808401526104478185876103c9565b9b9a505050505050505050505056fea26469706673582212204cdac0baa90c07112279b3bee17ba35f7a6d9488c6eb18649f1514054894051364736f6c63430008040033608060405234801561001057600080fd5b50612640806100206000396000f3fe608060405234801561001057600080fd5b50600436106101ce5760003560e01c806355f804b311610104578063a217fddf116100a2578063d539139311610071578063d5391393146103d8578063d547741f146103ed578063e8a3d48514610400578063e985e9c51461040857600080fd5b8063a217fddf14610397578063a22cb4651461039f578063b88d4fde146103b2578063c87b56dd146103c557600080fd5b806370a08231116100de57806370a082311461035657806391d148541461036957806395d89b411461037c578063a14481941461038457600080fd5b806355f804b31461031d5780636352211e146103305780636b34c7ad1461034357600080fd5b8063248a9ca31161017157806336568abe1161014b57806336568abe146102d15780633f2f5ee2146102e457806342842e0e146102f75780634f6ccce71461030a57600080fd5b8063248a9ca3146102885780632f2ff15d146102ab5780632f745c59146102be57600080fd5b8063081812fc116101ad578063081812fc14610225578063095ea7b31461025057806318160ddd1461026357806323b872dd1461027557600080fd5b8062059fa3146101d357806301ffc9a7146101e857806306fdde0314610210575b600080fd5b6101e66101e1366004611fb9565b610444565b005b6101fb6101f636600461219c565b610488565b60405190151581526020015b60405180910390f35b610218610499565b604051610207919061237f565b610238610233366004612162565b61052b565b6040516001600160a01b039091168152602001610207565b6101e661025e366004612139565b6105c5565b6099545b604051908152602001610207565b6101e6610283366004611fb9565b6106db565b610267610296366004612162565b600090815260c9602052604090206001015490565b6101e66102b936600461217a565b61070c565b6102676102cc366004612139565b610732565b6101e66102df36600461217a565b6107c8565b6101e66102f2366004611f13565b610846565b6101e6610305366004611fb9565b610974565b610267610318366004612162565b61098f565b6101e661032b3660046121d4565b610a30565b61023861033e366004612162565b610a55565b6101e661035136600461206d565b610acc565b610267610364366004611ec7565b610b71565b6101fb61037736600461217a565b610bf8565b610218610c23565b6101e6610392366004612139565b610c32565b610267600081565b6101e66103ad3660046120ff565b610c55565b6101e66103c0366004611ff4565b610c60565b6102186103d3366004612162565b610c92565b6102676000805160206125eb83398151915281565b6101e66103fb36600461217a565b610d6d565b610218610d93565b6101fb610416366004611ee1565b6001600160a01b039182166000908152606a6020908152604080832093909416825291909152205460ff1690565b6000805160206125eb83398151915261045d8133610de6565b6104678483610e4a565b61048284848460405180602001604052806000815250610f98565b50505050565b600061049382610fcb565b92915050565b6060606580546104a890612525565b80601f01602080910402602001604051908101604052809291908181526020018280546104d490612525565b80156105215780601f106104f657610100808354040283529160200191610521565b820191906000526020600020905b81548152906001019060200180831161050457829003601f168201915b5050505050905090565b6000818152606760205260408120546001600160a01b03166105a95760405162461bcd60e51b815260206004820152602c60248201527f4552433732313a20617070726f76656420717565727920666f72206e6f6e657860448201526b34b9ba32b73a103a37b5b2b760a11b60648201526084015b60405180910390fd5b506000908152606960205260409020546001600160a01b031690565b60006105d082610a55565b9050806001600160a01b0316836001600160a01b0316141561063e5760405162461bcd60e51b815260206004820152602160248201527f4552433732313a20617070726f76616c20746f2063757272656e74206f776e656044820152603960f91b60648201526084016105a0565b336001600160a01b038216148061065a575061065a8133610416565b6106cc5760405162461bcd60e51b815260206004820152603860248201527f4552433732313a20617070726f76652063616c6c6572206973206e6f74206f7760448201527f6e6572206e6f7220617070726f76656420666f7220616c6c000000000000000060648201526084016105a0565b6106d68383610ff0565b505050565b6106e5338261105e565b6107015760405162461bcd60e51b81526004016105a0906123e4565b6106d6838383611155565b600082815260c960205260409020600101546107288133610de6565b6106d68383611300565b600061073d83610b71565b821061079f5760405162461bcd60e51b815260206004820152602b60248201527f455243373231456e756d657261626c653a206f776e657220696e646578206f7560448201526a74206f6620626f756e647360a81b60648201526084016105a0565b506001600160a01b03919091166000908152609760209081526040808320938352929052205490565b6001600160a01b03811633146108385760405162461bcd60e51b815260206004820152602f60248201527f416363657373436f6e74726f6c3a2063616e206f6e6c792072656e6f756e636560448201526e103937b632b9903337b91039b2b63360891b60648201526084016105a0565b6108428282611386565b5050565b600054610100900460ff166108615760005460ff1615610865565b303b155b6108c85760405162461bcd60e51b815260206004820152602e60248201527f496e697469616c697a61626c653a20636f6e747261637420697320616c72656160448201526d191e481a5b9a5d1a585b1a5e995960921b60648201526084016105a0565b600054610100900460ff161580156108ea576000805461ffff19166101011790555b6108f26113ed565b6108fc848461142e565b815161090f9060fb906020850190611d09565b5061091b60008761146f565b6109336000805160206125eb8339815191528761146f565b6001600160a01b0385161561095a5761095a6000805160206125eb8339815191528661146f565b801561096c576000805461ff00191690555b505050505050565b6106d683838360405180602001604052806000815250610c60565b600061099a60995490565b82106109fd5760405162461bcd60e51b815260206004820152602c60248201527f455243373231456e756d657261626c653a20676c6f62616c20696e646578206f60448201526b7574206f6620626f756e647360a01b60648201526084016105a0565b60998281548110610a1e57634e487b7160e01b600052603260045260246000fd5b90600052602060002001549050919050565b6000805160206125eb833981519152610a498133610de6565b61048260fb8484611d8d565b6000818152606760205260408120546001600160a01b0316806104935760405162461bcd60e51b815260206004820152602960248201527f4552433732313a206f776e657220717565727920666f72206e6f6e657869737460448201526832b73a103a37b5b2b760b91b60648201526084016105a0565b6000805160206125eb833981519152610ae58133610de6565b60005b8381101561096c57610b2086868684818110610b1457634e487b7160e01b600052603260045260246000fd5b90506020020135610e4a565b6001600160a01b03831615610b5f57610b5f83868684818110610b5357634e487b7160e01b600052603260045260246000fd5b90506020020135610ff0565b80610b6981612560565b915050610ae8565b60006001600160a01b038216610bdc5760405162461bcd60e51b815260206004820152602a60248201527f4552433732313a2062616c616e636520717565727920666f7220746865207a65604482015269726f206164647265737360b01b60648201526084016105a0565b506001600160a01b031660009081526068602052604090205490565b600091825260c9602090815260408084206001600160a01b0393909316845291905290205460ff1690565b6060606680546104a890612525565b6000805160206125eb833981519152610c4b8133610de6565b6106d68383611479565b610842338383611493565b610c6a338361105e565b610c865760405162461bcd60e51b81526004016105a0906123e4565b61048284848484610f98565b6000818152606760205260409020546060906001600160a01b0316610d115760405162461bcd60e51b815260206004820152602f60248201527f4552433732314d657461646174613a2055524920717565727920666f72206e6f60448201526e3732bc34b9ba32b73a103a37b5b2b760891b60648201526084016105a0565b6000610d1b611562565b90506000815111610d3b5760405180602001604052806000815250610d66565b80610d4584611571565b604051602001610d5692919061226d565b6040516020818303038152906040525b9392505050565b600082815260c96020526040902060010154610d898133610de6565b6106d68383611386565b60606000610d9f611562565b90506000815111610dbf5760405180602001604052806000815250610de0565b80604051602001610dd0919061229c565b6040516020818303038152906040525b91505090565b610df08282610bf8565b61084257610e08816001600160a01b0316601461168b565b610e1383602061168b565b604051602001610e249291906122cd565b60408051601f198184030181529082905262461bcd60e51b82526105a09160040161237f565b6001600160a01b038216610ea05760405162461bcd60e51b815260206004820181905260248201527f4552433732313a206d696e7420746f20746865207a65726f206164647265737360448201526064016105a0565b6000818152606760205260409020546001600160a01b031615610f055760405162461bcd60e51b815260206004820152601c60248201527f4552433732313a20746f6b656e20616c7265616479206d696e7465640000000060448201526064016105a0565b610f116000838361186d565b6001600160a01b0382166000908152606860205260408120805460019290610f3a908490612480565b909155505060008181526067602052604080822080546001600160a01b0319166001600160a01b03861690811790915590518392907fddf252ad1be2c89b69c2b068fc378daa952ba7f163c4a11628f55a4df523b3ef908290a45050565b610fa3848484611155565b610faf84848484611925565b6104825760405162461bcd60e51b81526004016105a090612392565b60006001600160e01b03198216637965db0b60e01b1480610493575061049382611a32565b600081815260696020526040902080546001600160a01b0319166001600160a01b038416908117909155819061102582610a55565b6001600160a01b03167f8c5be1e5ebec7d5bd14f71427d1e84f3dd0314c0f7b2291e5b200ac8c7c3b92560405160405180910390a45050565b6000818152606760205260408120546001600160a01b03166110d75760405162461bcd60e51b815260206004820152602c60248201527f4552433732313a206f70657261746f7220717565727920666f72206e6f6e657860448201526b34b9ba32b73a103a37b5b2b760a11b60648201526084016105a0565b60006110e283610a55565b9050806001600160a01b0316846001600160a01b0316148061111d5750836001600160a01b03166111128461052b565b6001600160a01b0316145b8061114d57506001600160a01b038082166000908152606a602090815260408083209388168352929052205460ff165b949350505050565b826001600160a01b031661116882610a55565b6001600160a01b0316146111d05760405162461bcd60e51b815260206004820152602960248201527f4552433732313a207472616e73666572206f6620746f6b656e2074686174206960448201526839903737ba1037bbb760b91b60648201526084016105a0565b6001600160a01b0382166112325760405162461bcd60e51b8152602060048201526024808201527f4552433732313a207472616e7366657220746f20746865207a65726f206164646044820152637265737360e01b60648201526084016105a0565b61123d83838361186d565b611248600082610ff0565b6001600160a01b03831660009081526068602052604081208054600192906112719084906124cb565b90915550506001600160a01b038216600090815260686020526040812080546001929061129f908490612480565b909155505060008181526067602052604080822080546001600160a01b0319166001600160a01b0386811691821790925591518493918716917fddf252ad1be2c89b69c2b068fc378daa952ba7f163c4a11628f55a4df523b3ef91a4505050565b61130a8282610bf8565b61084257600082815260c9602090815260408083206001600160a01b03851684529091529020805460ff191660011790556113423390565b6001600160a01b0316816001600160a01b0316837f2f8788117e7eff1d82e926ec794901d17c78024a50270940304540a733656f0d60405160405180910390a45050565b6113908282610bf8565b1561084257600082815260c9602090815260408083206001600160a01b0385168085529252808320805460ff1916905551339285917ff6391f5c32d9c69d2a47ea670b442974b53935d1edc7fd64eb21e047a839171b9190a45050565b600054610100900460ff166114145760405162461bcd60e51b81526004016105a090612435565b61141c611a57565b611424611a57565b61142c611a57565b565b600054610100900460ff166114555760405162461bcd60e51b81526004016105a090612435565b61145d611a57565b611465611a57565b6108428282611a7e565b6108428282611300565b610842828260405180602001604052806000815250611acc565b816001600160a01b0316836001600160a01b031614156114f55760405162461bcd60e51b815260206004820152601960248201527f4552433732313a20617070726f766520746f2063616c6c65720000000000000060448201526064016105a0565b6001600160a01b038381166000818152606a6020908152604080832094871680845294825291829020805460ff191686151590811790915591519182527f17307eab39ab6107e8899845ad3d59bd9653f200f220920489ca2b5937696c31910160405180910390a3505050565b606060fb80546104a890612525565b6060816115955750506040805180820190915260018152600360fc1b602082015290565b8160005b81156115bf57806115a981612560565b91506115b89050600a83612498565b9150611599565b60008167ffffffffffffffff8111156115e857634e487b7160e01b600052604160045260246000fd5b6040519080825280601f01601f191660200182016040528015611612576020820181803683370190505b5090505b841561114d576116276001836124cb565b9150611634600a8661257b565b61163f906030612480565b60f81b81838151811061166257634e487b7160e01b600052603260045260246000fd5b60200101906001600160f81b031916908160001a905350611684600a86612498565b9450611616565b6060600061169a8360026124ac565b6116a5906002612480565b67ffffffffffffffff8111156116cb57634e487b7160e01b600052604160045260246000fd5b6040519080825280601f01601f1916602001820160405280156116f5576020820181803683370190505b509050600360fc1b8160008151811061171e57634e487b7160e01b600052603260045260246000fd5b60200101906001600160f81b031916908160001a905350600f60fb1b8160018151811061175b57634e487b7160e01b600052603260045260246000fd5b60200101906001600160f81b031916908160001a905350600061177f8460026124ac565b61178a906001612480565b90505b600181111561181e576f181899199a1a9b1b9c1cb0b131b232b360811b85600f16601081106117cc57634e487b7160e01b600052603260045260246000fd5b1a60f81b8282815181106117f057634e487b7160e01b600052603260045260246000fd5b60200101906001600160f81b031916908160001a90535060049490941c936118178161250e565b905061178d565b508315610d665760405162461bcd60e51b815260206004820181905260248201527f537472696e67733a20686578206c656e67746820696e73756666696369656e7460448201526064016105a0565b6001600160a01b0383166118c8576118c381609980546000838152609a60205260408120829055600182018355919091527f72a152ddfb8e864297c917af52ea6c1c68aead0fee1a62673fcc7e0c94979d000155565b6118eb565b816001600160a01b0316836001600160a01b0316146118eb576118eb8382611aff565b6001600160a01b038216611902576106d681611b9c565b826001600160a01b0316826001600160a01b0316146106d6576106d68282611c75565b60006001600160a01b0384163b15611a2757604051630a85bd0160e11b81526001600160a01b0385169063150b7a0290611969903390899088908890600401612342565b602060405180830381600087803b15801561198357600080fd5b505af19250505080156119b3575060408051601f3d908101601f191682019092526119b0918101906121b8565b60015b611a0d573d8080156119e1576040519150601f19603f3d011682016040523d82523d6000602084013e6119e6565b606091505b508051611a055760405162461bcd60e51b81526004016105a090612392565b805181602001fd5b6001600160e01b031916630a85bd0160e11b14905061114d565b506001949350505050565b60006001600160e01b0319821663780e9d6360e01b1480610493575061049382611cb9565b600054610100900460ff1661142c5760405162461bcd60e51b81526004016105a090612435565b600054610100900460ff16611aa55760405162461bcd60e51b81526004016105a090612435565b8151611ab8906065906020850190611d09565b5080516106d6906066906020840190611d09565b611ad68383610e4a565b611ae36000848484611925565b6106d65760405162461bcd60e51b81526004016105a090612392565b60006001611b0c84610b71565b611b1691906124cb565b600083815260986020526040902054909150808214611b69576001600160a01b03841660009081526097602090815260408083208584528252808320548484528184208190558352609890915290208190555b5060009182526098602090815260408084208490556001600160a01b039094168352609781528383209183525290812055565b609954600090611bae906001906124cb565b6000838152609a602052604081205460998054939450909284908110611be457634e487b7160e01b600052603260045260246000fd5b906000526020600020015490508060998381548110611c1357634e487b7160e01b600052603260045260246000fd5b6000918252602080832090910192909255828152609a90915260408082208490558582528120556099805480611c5957634e487b7160e01b600052603160045260246000fd5b6001900381819060005260206000200160009055905550505050565b6000611c8083610b71565b6001600160a01b039093166000908152609760209081526040808320868452825280832085905593825260989052919091209190915550565b60006001600160e01b031982166380ac58cd60e01b1480611cea57506001600160e01b03198216635b5e139f60e01b145b8061049357506301ffc9a760e01b6001600160e01b0319831614610493565b828054611d1590612525565b90600052602060002090601f016020900481019282611d375760008555611d7d565b82601f10611d5057805160ff1916838001178555611d7d565b82800160010185558215611d7d579182015b82811115611d7d578251825591602001919060010190611d62565b50611d89929150611e01565b5090565b828054611d9990612525565b90600052602060002090601f016020900481019282611dbb5760008555611d7d565b82601f10611dd45782800160ff19823516178555611d7d565b82800160010185558215611d7d579182015b82811115611d7d578235825591602001919060010190611de6565b5b80821115611d895760008155600101611e02565b600067ffffffffffffffff80841115611e3157611e316125bb565b604051601f8501601f19908116603f01168101908282118183101715611e5957611e596125bb565b81604052809350858152868686011115611e7257600080fd5b858560208301376000602087830101525050509392505050565b80356001600160a01b0381168114611ea357600080fd5b919050565b600082601f830112611eb8578081fd5b610d6683833560208501611e16565b600060208284031215611ed8578081fd5b610d6682611e8c565b60008060408385031215611ef3578081fd5b611efc83611e8c565b9150611f0a60208401611e8c565b90509250929050565b600080600080600060a08688031215611f2a578081fd5b611f3386611e8c565b9450611f4160208701611e8c565b9350604086013567ffffffffffffffff80821115611f5d578283fd5b611f6989838a01611ea8565b94506060880135915080821115611f7e578283fd5b611f8a89838a01611ea8565b93506080880135915080821115611f9f578283fd5b50611fac88828901611ea8565b9150509295509295909350565b600080600060608486031215611fcd578283fd5b611fd684611e8c565b9250611fe460208501611e8c565b9150604084013590509250925092565b60008060008060808587031215612009578384fd5b61201285611e8c565b935061202060208601611e8c565b925060408501359150606085013567ffffffffffffffff811115612042578182fd5b8501601f81018713612052578182fd5b61206187823560208401611e16565b91505092959194509250565b60008060008060608587031215612082578384fd5b61208b85611e8c565b9350602085013567ffffffffffffffff808211156120a7578485fd5b818701915087601f8301126120ba578485fd5b8135818111156120c8578586fd5b8860208260051b85010111156120dc578586fd5b6020830195508094505050506120f460408601611e8c565b905092959194509250565b60008060408385031215612111578182fd5b61211a83611e8c565b91506020830135801515811461212e578182fd5b809150509250929050565b6000806040838503121561214b578182fd5b61215483611e8c565b946020939093013593505050565b600060208284031215612173578081fd5b5035919050565b6000806040838503121561218c578182fd5b82359150611f0a60208401611e8c565b6000602082840312156121ad578081fd5b8135610d66816125d1565b6000602082840312156121c9578081fd5b8151610d66816125d1565b600080602083850312156121e6578182fd5b823567ffffffffffffffff808211156121fd578384fd5b818501915085601f830112612210578384fd5b81358181111561221e578485fd5b86602082850101111561222f578485fd5b60209290920196919550909350505050565b600081518084526122598160208601602086016124e2565b601f01601f19169290920160200192915050565b6000835161227f8184602088016124e2565b8351908301906122938183602088016124e2565b01949350505050565b600082516122ae8184602087016124e2565b6c31b7b73a3930b1ba173539b7b760991b920191825250600d01919050565b7f416363657373436f6e74726f6c3a206163636f756e74200000000000000000008152600083516123058160178501602088016124e2565b7001034b99036b4b9b9b4b733903937b6329607d1b60179184019182015283516123368160288401602088016124e2565b01602801949350505050565b6001600160a01b038581168252841660208201526040810183905260806060820181905260009061237590830184612241565b9695505050505050565b602081526000610d666020830184612241565b60208082526032908201527f4552433732313a207472616e7366657220746f206e6f6e20455243373231526560408201527131b2b4bb32b91034b6b83632b6b2b73a32b960711b606082015260800190565b60208082526031908201527f4552433732313a207472616e736665722063616c6c6572206973206e6f74206f6040820152701ddb995c881b9bdc88185c1c1c9bdd9959607a1b606082015260800190565b6020808252602b908201527f496e697469616c697a61626c653a20636f6e7472616374206973206e6f74206960408201526a6e697469616c697a696e6760a81b606082015260800190565b600082198211156124935761249361258f565b500190565b6000826124a7576124a76125a5565b500490565b60008160001904831182151516156124c6576124c661258f565b500290565b6000828210156124dd576124dd61258f565b500390565b60005b838110156124fd5781810151838201526020016124e5565b838111156104825750506000910152565b60008161251d5761251d61258f565b506000190190565b600181811c9082168061253957607f821691505b6020821081141561255a57634e487b7160e01b600052602260045260246000fd5b50919050565b60006000198214156125745761257461258f565b5060010190565b60008261258a5761258a6125a5565b500690565b634e487b7160e01b600052601160045260246000fd5b634e487b7160e01b600052601260045260246000fd5b634e487b7160e01b600052604160045260246000fd5b6001600160e01b0319811681146125e757600080fd5b5056fe9f2df0fed2c77648de5860a4cc508cd0818c85b8b8a1ab4ceeef8d981c8956a6a264697066735822122088a45ead98be6e7140370b8cbcea116b8cc6b1efd253b59912628ae1c555d4f464736f6c63430008040033",
  "devdoc": {
    "kind": "dev",
    "methods": {
      "createToken(string,string,string)": {
        "params": {
          "baseURI": "base URL that combines with token ID for metadata      location",
          "name": "ERC721 metadata name of the collection",
          "symbol": "ERC721 symbol"
        },
        "returns": {
          "_0": "address of the newly created contract"
        }
      },
      "createTokenWithMinter(address,string,string,string)": {
        "params": {
          "baseURI": "base URL that combines with token ID for metadata      location",
          "minter": "address is an account (other than the owner) with      permissions to mint tokens",
          "name": "ERC721 metadata name of the collection",
          "symbol": "ERC721 symbol"
        },
        "returns": {
          "_0": "address of the newly created contract"
        }
      }
    },
    "version": 1
  },
  "userdoc": {
    "kind": "user",
    "methods": {
      "createToken(string,string,string)": {
        "notice": "Deploy an ERC721 contract"
      },
      "createTokenWithMinter(address,string,string,string)": {
        "notice": "Deploy an ERC721 contract with an account set as minter"
      }
    },
    "version": 1
  },
  "storageLayout": {
    "storage": [],
    "types": null
  }
}