{
  "address": "0xF7fA62CAbcD854D0d549cb9e17FDAeFe2DeE1f00",
  "abi": [
    {
      "anonymous": false,
      "inputs": [
        {
          "indexed": true,
          "internalType": "address",
          "name": "previousGovernor",
          "type": "address"
        },
        {
          "indexed": true,
          "internalType": "address",
          "name": "newGovernor",
          "type": "address"
        }
      ],
      "name": "GovernorshipTransferred",
      "type": "event"
    },
    {
      "anonymous": false,
      "inputs": [
        {
          "indexed": true,
          "internalType": "address",
          "name": "newCollector",
          "type": "address"
        },
        {
          "indexed": true,
          "internalType": "address",
          "name": "oldCollector",
          "type": "address"
        }
      ],
      "name": "NewCollector",
      "type": "event"
    },
    {
      "anonymous": false,
      "inputs": [
        {
          "indexed": true,
          "internalType": "address",
          "name": "previousGovernor",
          "type": "address"
        },
        {
          "indexed": true,
          "internalType": "address",
          "name": "newGovernor",
          "type": "address"
        }
      ],
      "name": "PendingGovernorshipTransfer",
      "type": "event"
    },
    {
      "inputs": [],
      "name": "claimGovernance",
      "outputs": [],
      "stateMutability": "nonpayable",
      "type": "function"
    },
    {
      "inputs": [
        {
          "internalType": "bytes32",
          "name": "salt",
          "type": "bytes32"
        },
        {
          "internalType": "address",
          "name": "asset",
          "type": "address"
        },
        {
          "internalType": "uint256",
          "name": "amount",
          "type": "uint256"
        }
      ],
      "name": "collect",
      "outputs": [],
      "stateMutability": "nonpayable",
      "type": "function"
    },
    {
      "inputs": [
        {
          "internalType": "bytes32[]",
          "name": "salts",
          "type": "bytes32[]"
        },
        {
          "internalType": "address[]",
          "name": "assets",
          "type": "address[]"
        },
        {
          "internalType": "uint256[]",
          "name": "amounts",
          "type": "uint256[]"
        }
      ],
      "name": "collectBatch",
      "outputs": [],
      "stateMutability": "nonpayable",
      "type": "function"
    },
    {
      "inputs": [],
      "name": "collector",
      "outputs": [
        {
          "internalType": "address",
          "name": "",
          "type": "address"
        }
      ],
      "stateMutability": "view",
      "type": "function"
    },
    {
      "inputs": [
        {
          "internalType": "bytes32",
          "name": "salt",
          "type": "bytes32"
        }
      ],
      "name": "getAddress",
      "outputs": [
        {
          "internalType": "address",
          "name": "",
          "type": "address"
        }
      ],
      "stateMutability": "view",
      "type": "function"
    },
    {
      "inputs": [],
      "name": "governor",
      "outputs": [
        {
          "internalType": "address",
          "name": "",
          "type": "address"
        }
      ],
      "stateMutability": "view",
      "type": "function"
    },
    {
      "inputs": [
        {
          "internalType": "address",
          "name": "_midProxy",
          "type": "address"
        }
      ],
      "name": "initialize",
      "outputs": [],
      "stateMutability": "nonpayable",
      "type": "function"
    },
    {
      "inputs": [],
      "name": "isGovernor",
      "outputs": [
        {
          "internalType": "bool",
          "name": "",
          "type": "bool"
        }
      ],
      "stateMutability": "view",
      "type": "function"
    },
    {
      "inputs": [
        {
          "internalType": "address",
          "name": "_collector",
          "type": "address"
        }
      ],
      "name": "setCollector",
      "outputs": [],
      "stateMutability": "nonpayable",
      "type": "function"
    },
    {
      "inputs": [
        {
          "internalType": "address",
          "name": "_newGovernor",
          "type": "address"
        }
      ],
      "name": "transferGovernance",
      "outputs": [],
      "stateMutability": "nonpayable",
      "type": "function"
    }
  ],
  "transactionHash": "0x456e53af058d57609d697e1e4d6f9b0936744b7d7932ab690726635994edab4c",
  "args": [],
  "solcInputHash": "76d69fe4bc08a2cd8951f7e9eb2ded96",
  "bytecode": "0x608060405234801561001057600080fd5b506100203361008d60201b60201c565b61002e6100bc60201b60201c565b73ffffffffffffffffffffffffffffffffffffffff16600073ffffffffffffffffffffffffffffffffffffffff167fc7c0c772add429241571afb3805861fb3cfa2af374534088b76cdb4325a87e9a60405160405180910390a36100ed565b60007f7bea13895fa79d2831e0a9e28edede30099005a50d652d8957cf8a607ee6ca4a60001b90508181555050565b6000807f7bea13895fa79d2831e0a9e28edede30099005a50d652d8957cf8a607ee6ca4a60001b9050805491505090565b6117ba806100fc6000396000f3fe608060405234801561001057600080fd5b506004361061009e5760003560e01c8063c4d66de811610066578063c4d66de814610135578063c7af335214610151578063d38bfff41461016f578063ec3f5f791461018b578063fb5b82d0146101a75761009e565b80630c340a24146100a357806321f8a721146100c1578063596fce3b146100f15780635d36b1901461010d578063913e77ad14610117575b600080fd5b6100ab6101c3565b6040516100b891906114a5565b60405180910390f35b6100db60048036038101906100d691906110ce565b6101d2565b6040516100e891906114a5565b60405180910390f35b61010b600480360381019061010691906110f7565b6102b7565b005b6101156104d5565b005b61011f610555565b60405161012c91906114a5565b60405180910390f35b61014f600480360381019061014a9190611001565b61057b565b005b6101596107b0565b60405161016691906114e9565b60405180910390f35b61018960048036038101906101849190611001565b6107ed565b005b6101a560048036038101906101a0919061102a565b6108a1565b005b6101c160048036038101906101bc9190611001565b610ac1565b005b60006101cd610bc8565b905090565b60008073ffffffffffffffffffffffffffffffffffffffff16600060029054906101000a900473ffffffffffffffffffffffffffffffffffffffff1673ffffffffffffffffffffffffffffffffffffffff161415610265576040517f08c379a000000000000000000000000000000000000000000000000000000000815260040161025c90611624565b60405180910390fd5b6102b082600060029054906101000a900473ffffffffffffffffffffffffffffffffffffffff1673ffffffffffffffffffffffffffffffffffffffff16610bf990919063ffffffff16565b9050919050565b3373ffffffffffffffffffffffffffffffffffffffff16600160009054906101000a900473ffffffffffffffffffffffffffffffffffffffff1673ffffffffffffffffffffffffffffffffffffffff1614610347576040517f08c379a000000000000000000000000000000000000000000000000000000000815260040161033e90611524565b60405180910390fd5b600061039484600060029054906101000a900473ffffffffffffffffffffffffffffffffffffffff1673ffffffffffffffffffffffffffffffffffffffff16610bf990919063ffffffff16565b905061039f81610c0e565b6104625760006103f085600060029054906101000a900473ffffffffffffffffffffffffffffffffffffffff1673ffffffffffffffffffffffffffffffffffffffff16610c2190919063ffffffff16565b90508173ffffffffffffffffffffffffffffffffffffffff168173ffffffffffffffffffffffffffffffffffffffff1614610460576040517f08c379a000000000000000000000000000000000000000000000000000000000815260040161045790611604565b60405180910390fd5b505b8073ffffffffffffffffffffffffffffffffffffffff16636b8357ac84846040518363ffffffff1660e01b815260040161049d9291906114c0565b600060405180830381600087803b1580156104b757600080fd5b505af11580156104cb573d6000803e3d6000fd5b5050505050505050565b6104dd610cf8565b73ffffffffffffffffffffffffffffffffffffffff163373ffffffffffffffffffffffffffffffffffffffff161461054a576040517f08c379a000000000000000000000000000000000000000000000000000000000815260040161054190611644565b60405180910390fd5b61055333610d29565b565b600160009054906101000a900473ffffffffffffffffffffffffffffffffffffffff1681565b600060019054906101000a900460ff16806105a1575060008054906101000a900460ff16155b6105e0576040517f08c379a00000000000000000000000000000000000000000000000000000000081526004016105d7906115e4565b60405180910390fd5b60008060019054906101000a900460ff161590508015610630576001600060016101000a81548160ff02191690831515021790555060016000806101000a81548160ff0219169083151502179055505b6106386107b0565b610677576040517f08c379a000000000000000000000000000000000000000000000000000000000815260040161066e90611564565b60405180910390fd5b81600060026101000a81548173ffffffffffffffffffffffffffffffffffffffff021916908373ffffffffffffffffffffffffffffffffffffffff16021790555033600160006101000a81548173ffffffffffffffffffffffffffffffffffffffff021916908373ffffffffffffffffffffffffffffffffffffffff160217905550600073ffffffffffffffffffffffffffffffffffffffff16600060029054906101000a900473ffffffffffffffffffffffffffffffffffffffff1673ffffffffffffffffffffffffffffffffffffffff16141561078b576040517f08c379a000000000000000000000000000000000000000000000000000000000815260040161078290611584565b60405180910390fd5b80156107ac5760008060016101000a81548160ff0219169083151502179055505b5050565b60006107ba610bc8565b73ffffffffffffffffffffffffffffffffffffffff163373ffffffffffffffffffffffffffffffffffffffff1614905090565b6107f56107b0565b610834576040517f08c379a000000000000000000000000000000000000000000000000000000000815260040161082b90611564565b60405180910390fd5b61083d81610e06565b8073ffffffffffffffffffffffffffffffffffffffff1661085c610bc8565b73ffffffffffffffffffffffffffffffffffffffff167fa39cc5eb22d0f34d8beaefee8a3f17cc229c1a1d1ef87a5ad47313487b1c4f0d60405160405180910390a350565b3373ffffffffffffffffffffffffffffffffffffffff16600160009054906101000a900473ffffffffffffffffffffffffffffffffffffffff1673ffffffffffffffffffffffffffffffffffffffff1614610931576040517f08c379a000000000000000000000000000000000000000000000000000000000815260040161092890611524565b60405180910390fd5b600086869050905084849050811461097e576040517f08c379a000000000000000000000000000000000000000000000000000000000815260040161097590611504565b60405180910390fd5b8282905081146109c3576040517f08c379a00000000000000000000000000000000000000000000000000000000081526004016109ba90611544565b60405180910390fd5b60005b81811015610ab757610aa4888883818110610a0a577f4e487b7100000000000000000000000000000000000000000000000000000000600052603260045260246000fd5b90506020020135878784818110610a4a577f4e487b7100000000000000000000000000000000000000000000000000000000600052603260045260246000fd5b9050602002016020810190610a5f9190611001565b868685818110610a98577f4e487b7100000000000000000000000000000000000000000000000000000000600052603260045260246000fd5b905060200201356102b7565b8080610aaf906116c7565b9150506109c6565b5050505050505050565b610ac96107b0565b610b08576040517f08c379a0000000000000000000000000000000000000000000000000000000008152600401610aff90611564565b60405180910390fd5b600160009054906101000a900473ffffffffffffffffffffffffffffffffffffffff1673ffffffffffffffffffffffffffffffffffffffff168173ffffffffffffffffffffffffffffffffffffffff167f703f903d15d7018d46411f5f27e15d986844408e3c78842846232cca6a43884760405160405180910390a380600160006101000a81548173ffffffffffffffffffffffffffffffffffffffff021916908373ffffffffffffffffffffffffffffffffffffffff16021790555050565b6000807f7bea13895fa79d2831e0a9e28edede30099005a50d652d8957cf8a607ee6ca4a60001b9050805491505090565b6000610c06838330610e35565b905092915050565b600080823b905060008111915050919050565b60006040517f3d602d80600a3d3981f3363d3d373d3d3d363d7300000000000000000000000081528360601b60148201527f5af43d82803e903d91602b57fd5bf300000000000000000000000000000000006028820152826037826000f5915050600073ffffffffffffffffffffffffffffffffffffffff168173ffffffffffffffffffffffffffffffffffffffff161415610cf2576040517f08c379a0000000000000000000000000000000000000000000000000000000008152600401610ce9906115a4565b60405180910390fd5b92915050565b6000807f44c4d30b2eaad5130ad70c3ba6972730566f3e6359ab83e800d905c61b1c51db60001b9050805491505090565b600073ffffffffffffffffffffffffffffffffffffffff168173ffffffffffffffffffffffffffffffffffffffff161415610d99576040517f08c379a0000000000000000000000000000000000000000000000000000000008152600401610d90906115c4565b60405180910390fd5b8073ffffffffffffffffffffffffffffffffffffffff16610db8610bc8565b73ffffffffffffffffffffffffffffffffffffffff167fc7c0c772add429241571afb3805861fb3cfa2af374534088b76cdb4325a87e9a60405160405180910390a3610e0381610eb5565b50565b60007f44c4d30b2eaad5130ad70c3ba6972730566f3e6359ab83e800d905c61b1c51db60001b90508181555050565b60006040517f3d602d80600a3d3981f3363d3d373d3d3d363d7300000000000000000000000081528460601b60148201527f5af43d82803e903d91602b57fd5bf3ff0000000000000000000000000000000060288201528260601b603882015283604c82015260378120606c820152605560378201209150509392505050565b60007f7bea13895fa79d2831e0a9e28edede30099005a50d652d8957cf8a607ee6ca4a60001b90508181555050565b600081359050610ef38161173f565b92915050565b60008083601f840112610f0b57600080fd5b8235905067ffffffffffffffff811115610f2457600080fd5b602083019150836020820283011115610f3c57600080fd5b9250929050565b60008083601f840112610f5557600080fd5b8235905067ffffffffffffffff811115610f6e57600080fd5b602083019150836020820283011115610f8657600080fd5b9250929050565b60008083601f840112610f9f57600080fd5b8235905067ffffffffffffffff811115610fb857600080fd5b602083019150836020820283011115610fd057600080fd5b9250929050565b600081359050610fe681611756565b92915050565b600081359050610ffb8161176d565b92915050565b60006020828403121561101357600080fd5b600061102184828501610ee4565b91505092915050565b6000806000806000806060878903121561104357600080fd5b600087013567ffffffffffffffff81111561105d57600080fd5b61106989828a01610f43565b9650965050602087013567ffffffffffffffff81111561108857600080fd5b61109489828a01610ef9565b9450945050604087013567ffffffffffffffff8111156110b357600080fd5b6110bf89828a01610f8d565b92509250509295509295509295565b6000602082840312156110e057600080fd5b60006110ee84828501610fd7565b91505092915050565b60008060006060848603121561110c57600080fd5b600061111a86828701610fd7565b935050602061112b86828701610ee4565b925050604061113c86828701610fec565b9150509250925092565b61114f81611675565b82525050565b61115e81611687565b82525050565b6000611171601883611664565b91507f417373657473206c656e677468206d757374206d6174636800000000000000006000830152602082019050919050565b60006111b1602383611664565b91507f4d61737465723a2043616c6c6572206973206e6f742074686520436f6c6c656360008301527f746f7200000000000000000000000000000000000000000000000000000000006020830152604082019050919050565b6000611217601983611664565b91507f416d6f756e7473206c656e677468206d757374206d61746368000000000000006000830152602082019050919050565b6000611257601a83611664565b91507f43616c6c6572206973206e6f742074686520476f7665726e6f720000000000006000830152602082019050919050565b6000611297601f83611664565b91507f496e676573744d61737465723a206d696450726f7879206d75737420736574006000830152602082019050919050565b60006112d7601783611664565b91507f455243313136373a2063726561746532206661696c65640000000000000000006000830152602082019050919050565b6000611317601a83611664565b91507f4e657720476f7665726e6f7220697320616464726573732830290000000000006000830152602082019050919050565b6000611357602e83611664565b91507f496e697469616c697a61626c653a20636f6e747261637420697320616c72656160008301527f647920696e697469616c697a65640000000000000000000000000000000000006020830152604082019050919050565b60006113bd601483611664565b91507f416464726573736573206d757374206d617463680000000000000000000000006000830152602082019050919050565b60006113fd601483611664565b91507f4d696450726f7879206d757374206265207365740000000000000000000000006000830152602082019050919050565b600061143d603083611664565b91507f4f6e6c79207468652070656e64696e6720476f7665726e6f722063616e20636f60008301527f6d706c6574652074686520636c61696d000000000000000000000000000000006020830152604082019050919050565b61149f816116bd565b82525050565b60006020820190506114ba6000830184611146565b92915050565b60006040820190506114d56000830185611146565b6114e26020830184611496565b9392505050565b60006020820190506114fe6000830184611155565b92915050565b6000602082019050818103600083015261151d81611164565b9050919050565b6000602082019050818103600083015261153d816111a4565b9050919050565b6000602082019050818103600083015261155d8161120a565b9050919050565b6000602082019050818103600083015261157d8161124a565b9050919050565b6000602082019050818103600083015261159d8161128a565b9050919050565b600060208201905081810360008301526115bd816112ca565b9050919050565b600060208201905081810360008301526115dd8161130a565b9050919050565b600060208201905081810360008301526115fd8161134a565b9050919050565b6000602082019050818103600083015261161d816113b0565b9050919050565b6000602082019050818103600083015261163d816113f0565b9050919050565b6000602082019050818103600083015261165d81611430565b9050919050565b600082825260208201905092915050565b60006116808261169d565b9050919050565b60008115159050919050565b6000819050919050565b600073ffffffffffffffffffffffffffffffffffffffff82169050919050565b6000819050919050565b60006116d2826116bd565b91507fffffffffffffffffffffffffffffffffffffffffffffffffffffffffffffffff82141561170557611704611710565b5b600182019050919050565b7f4e487b7100000000000000000000000000000000000000000000000000000000600052601160045260246000fd5b61174881611675565b811461175357600080fd5b50565b61175f81611693565b811461176a57600080fd5b50565b611776816116bd565b811461178157600080fd5b5056fea2646970667358221220a91f3bf709674e638700f122d93f934a8c56f4ae86f2125963a045126c9beb7d64736f6c63430008000033",
  "devdoc": {
    "kind": "dev",
    "methods": {
      "claimGovernance()": {
        "details": "Claim Governance of the contract to a new account (`newGovernor`). Can only be called by the new Governor."
      },
      "governor()": {
        "details": "Returns the address of the current Governor."
      },
      "isGovernor()": {
        "details": "Returns true if the caller is the current Governor."
      },
      "transferGovernance(address)": {
        "details": "Transfers Governance of the contract to a new account (`newGovernor`). Can only be called by the current Governor. Must be claimed for this to complete",
        "params": {
          "_newGovernor": "Address of the new Governor"
        }
      }
    },
    "version": 1
  },
  "userdoc": {
    "kind": "user",
    "methods": {},
    "version": 1
  },
  "storageLayout": {
    "storage": [
      {
        "astId": 355,
        "contract": "contracts/ingest/IngestMaster.sol:IngestMaster",
        "label": "_initialized",
        "offset": 0,
        "slot": "0",
        "type": "t_bool"
      },
      {
        "astId": 358,
        "contract": "contracts/ingest/IngestMaster.sol:IngestMaster",
        "label": "_initializing",
        "offset": 1,
        "slot": "0",
        "type": "t_bool"
      },
      {
        "astId": 3497,
        "contract": "contracts/ingest/IngestMaster.sol:IngestMaster",
        "label": "midProxy",
        "offset": 2,
        "slot": "0",
        "type": "t_address"
      },
      {
        "astId": 3499,
        "contract": "contracts/ingest/IngestMaster.sol:IngestMaster",
        "label": "collector",
        "offset": 0,
        "slot": "1",
        "type": "t_address"
      }
    ],
    "types": {
      "t_address": {
        "encoding": "inplace",
        "label": "address",
        "numberOfBytes": "20"
      },
      "t_bool": {
        "encoding": "inplace",
        "label": "bool",
        "numberOfBytes": "1"
      }
    }
  }
}