{
  "address": "0x01B41e94c9b4D0dE21006FF30B2Dd60F015910F6",
  "abi": [
    {
      "anonymous": false,
      "inputs": [
        {
          "indexed": true,
          "internalType": "address",
          "name": "previousGovernor",
          "type": "address"
        },
        {
          "indexed": true,
          "internalType": "address",
          "name": "newGovernor",
          "type": "address"
        }
      ],
      "name": "GovernorshipTransferred",
      "type": "event"
    },
    {
      "anonymous": false,
      "inputs": [
        {
          "indexed": true,
          "internalType": "address",
          "name": "newCollector",
          "type": "address"
        },
        {
          "indexed": true,
          "internalType": "address",
          "name": "oldCollector",
          "type": "address"
        }
      ],
      "name": "NewEndpointImplementation",
      "type": "event"
    },
    {
      "anonymous": false,
      "inputs": [
        {
          "indexed": true,
          "internalType": "address",
          "name": "newMaster",
          "type": "address"
        },
        {
          "indexed": true,
          "internalType": "address",
          "name": "oldMaster",
          "type": "address"
        }
      ],
      "name": "NewMaster",
      "type": "event"
    },
    {
      "anonymous": false,
      "inputs": [
        {
          "indexed": true,
          "internalType": "address",
          "name": "newPool",
          "type": "address"
        },
        {
          "indexed": true,
          "internalType": "address",
          "name": "oldPool",
          "type": "address"
        }
      ],
      "name": "NewPool",
      "type": "event"
    },
    {
      "anonymous": false,
      "inputs": [
        {
          "indexed": true,
          "internalType": "address",
          "name": "previousGovernor",
          "type": "address"
        },
        {
          "indexed": true,
          "internalType": "address",
          "name": "newGovernor",
          "type": "address"
        }
      ],
      "name": "PendingGovernorshipTransfer",
      "type": "event"
    },
    {
      "inputs": [],
      "name": "claimGovernance",
      "outputs": [],
      "stateMutability": "nonpayable",
      "type": "function"
    },
    {
      "inputs": [],
      "name": "endpointImplementation",
      "outputs": [
        {
          "internalType": "address",
          "name": "",
          "type": "address"
        }
      ],
      "stateMutability": "view",
      "type": "function"
    },
    {
      "inputs": [],
      "name": "governor",
      "outputs": [
        {
          "internalType": "address",
          "name": "",
          "type": "address"
        }
      ],
      "stateMutability": "view",
      "type": "function"
    },
    {
      "inputs": [],
      "name": "isGovernor",
      "outputs": [
        {
          "internalType": "bool",
          "name": "",
          "type": "bool"
        }
      ],
      "stateMutability": "view",
      "type": "function"
    },
    {
      "inputs": [],
      "name": "master",
      "outputs": [
        {
          "internalType": "address",
          "name": "",
          "type": "address"
        }
      ],
      "stateMutability": "view",
      "type": "function"
    },
    {
      "inputs": [],
      "name": "pool",
      "outputs": [
        {
          "internalType": "address",
          "name": "",
          "type": "address"
        }
      ],
      "stateMutability": "view",
      "type": "function"
    },
    {
      "inputs": [
        {
          "internalType": "address",
          "name": "addr",
          "type": "address"
        }
      ],
      "name": "setEndpointImplementation",
      "outputs": [],
      "stateMutability": "nonpayable",
      "type": "function"
    },
    {
      "inputs": [
        {
          "internalType": "address",
          "name": "addr",
          "type": "address"
        }
      ],
      "name": "setMaster",
      "outputs": [],
      "stateMutability": "nonpayable",
      "type": "function"
    },
    {
      "inputs": [
        {
          "internalType": "address",
          "name": "addr",
          "type": "address"
        }
      ],
      "name": "setPool",
      "outputs": [],
      "stateMutability": "nonpayable",
      "type": "function"
    },
    {
      "inputs": [
        {
          "internalType": "address",
          "name": "_newGovernor",
          "type": "address"
        }
      ],
      "name": "transferGovernance",
      "outputs": [],
      "stateMutability": "nonpayable",
      "type": "function"
    }
  ],
  "transactionHash": "0x4046d4f490b556117c46e4e70662ba54578f9195650f75bd47e955e29b42c617",
  "args": [],
  "solcInputHash": "76d69fe4bc08a2cd8951f7e9eb2ded96",
  "bytecode": "0x608060405234801561001057600080fd5b506100203361008d60201b60201c565b61002e6100bc60201b60201c565b73ffffffffffffffffffffffffffffffffffffffff16600073ffffffffffffffffffffffffffffffffffffffff167fc7c0c772add429241571afb3805861fb3cfa2af374534088b76cdb4325a87e9a60405160405180910390a36100ed565b60007f7bea13895fa79d2831e0a9e28edede30099005a50d652d8957cf8a607ee6ca4a60001b90508181555050565b6000807f7bea13895fa79d2831e0a9e28edede30099005a50d652d8957cf8a607ee6ca4a60001b9050805491505090565b610ac6806100fc6000396000f3fe608060405234801561001057600080fd5b506004361061009e5760003560e01c80636b9ab8c3116100665780636b9ab8c3146101215780636e2c779a1461013d578063c7af33521461015b578063d38bfff414610179578063ee97f7f3146101955761009e565b80630c340a24146100a357806316f0115b146100c157806326fae0d3146100df5780634437152a146100fb5780635d36b19014610117575b600080fd5b6100ab6101b3565b6040516100b89190610994565b60405180910390f35b6100c96101c2565b6040516100d69190610994565b60405180910390f35b6100f960048036038101906100f49190610867565b6101e8565b005b61011560048036038101906101109190610867565b6102ef565b005b61011f6103f6565b005b61013b60048036038101906101369190610867565b610476565b005b61014561057a565b6040516101529190610994565b60405180910390f35b61016361059e565b60405161017091906109af565b60405180910390f35b610193600480360381019061018e9190610867565b6105db565b005b61019d61068f565b6040516101aa9190610994565b60405180910390f35b60006101bd6106b5565b905090565b600260009054906101000a900473ffffffffffffffffffffffffffffffffffffffff1681565b6101f061059e565b61022f576040517f08c379a0000000000000000000000000000000000000000000000000000000008152600401610226906109ca565b60405180910390fd5b600160009054906101000a900473ffffffffffffffffffffffffffffffffffffffff1673ffffffffffffffffffffffffffffffffffffffff168173ffffffffffffffffffffffffffffffffffffffff167f86252e3757e33841641a80f45eb868576e3205beeb90ea3a70114de9a7d313b060405160405180910390a380600160006101000a81548173ffffffffffffffffffffffffffffffffffffffff021916908373ffffffffffffffffffffffffffffffffffffffff16021790555050565b6102f761059e565b610336576040517f08c379a000000000000000000000000000000000000000000000000000000000815260040161032d906109ca565b60405180910390fd5b600260009054906101000a900473ffffffffffffffffffffffffffffffffffffffff1673ffffffffffffffffffffffffffffffffffffffff168173ffffffffffffffffffffffffffffffffffffffff167f77948cb83ef3caff9ac13dfab1ea1f8a6875c98370287ce587f5dbc74cc5b6b060405160405180910390a380600260006101000a81548173ffffffffffffffffffffffffffffffffffffffff021916908373ffffffffffffffffffffffffffffffffffffffff16021790555050565b6103fe6106e6565b73ffffffffffffffffffffffffffffffffffffffff163373ffffffffffffffffffffffffffffffffffffffff161461046b576040517f08c379a000000000000000000000000000000000000000000000000000000000815260040161046290610a0a565b60405180910390fd5b61047433610717565b565b61047e61059e565b6104bd576040517f08c379a00000000000000000000000000000000000000000000000000000000081526004016104b4906109ca565b60405180910390fd5b60008054906101000a900473ffffffffffffffffffffffffffffffffffffffff1673ffffffffffffffffffffffffffffffffffffffff168173ffffffffffffffffffffffffffffffffffffffff167f8d2065282a4348c35ad3bc6d40ab75481ba38bf106502fe1545a1575d4d76fa960405160405180910390a3806000806101000a81548173ffffffffffffffffffffffffffffffffffffffff021916908373ffffffffffffffffffffffffffffffffffffffff16021790555050565b60008054906101000a900473ffffffffffffffffffffffffffffffffffffffff1681565b60006105a86106b5565b73ffffffffffffffffffffffffffffffffffffffff163373ffffffffffffffffffffffffffffffffffffffff1614905090565b6105e361059e565b610622576040517f08c379a0000000000000000000000000000000000000000000000000000000008152600401610619906109ca565b60405180910390fd5b61062b816107f4565b8073ffffffffffffffffffffffffffffffffffffffff1661064a6106b5565b73ffffffffffffffffffffffffffffffffffffffff167fa39cc5eb22d0f34d8beaefee8a3f17cc229c1a1d1ef87a5ad47313487b1c4f0d60405160405180910390a350565b600160009054906101000a900473ffffffffffffffffffffffffffffffffffffffff1681565b6000807f7bea13895fa79d2831e0a9e28edede30099005a50d652d8957cf8a607ee6ca4a60001b9050805491505090565b6000807f44c4d30b2eaad5130ad70c3ba6972730566f3e6359ab83e800d905c61b1c51db60001b9050805491505090565b600073ffffffffffffffffffffffffffffffffffffffff168173ffffffffffffffffffffffffffffffffffffffff161415610787576040517f08c379a000000000000000000000000000000000000000000000000000000000815260040161077e906109ea565b60405180910390fd5b8073ffffffffffffffffffffffffffffffffffffffff166107a66106b5565b73ffffffffffffffffffffffffffffffffffffffff167fc7c0c772add429241571afb3805861fb3cfa2af374534088b76cdb4325a87e9a60405160405180910390a36107f181610823565b50565b60007f44c4d30b2eaad5130ad70c3ba6972730566f3e6359ab83e800d905c61b1c51db60001b90508181555050565b60007f7bea13895fa79d2831e0a9e28edede30099005a50d652d8957cf8a607ee6ca4a60001b90508181555050565b60008135905061086181610a79565b92915050565b60006020828403121561087957600080fd5b600061088784828501610852565b91505092915050565b61089981610a3b565b82525050565b6108a881610a4d565b82525050565b60006108bb601a83610a2a565b91507f43616c6c6572206973206e6f742074686520476f7665726e6f720000000000006000830152602082019050919050565b60006108fb601a83610a2a565b91507f4e657720476f7665726e6f7220697320616464726573732830290000000000006000830152602082019050919050565b600061093b603083610a2a565b91507f4f6e6c79207468652070656e64696e6720476f7665726e6f722063616e20636f60008301527f6d706c6574652074686520636c61696d000000000000000000000000000000006020830152604082019050919050565b60006020820190506109a96000830184610890565b92915050565b60006020820190506109c4600083018461089f565b92915050565b600060208201905081810360008301526109e3816108ae565b9050919050565b60006020820190508181036000830152610a03816108ee565b9050919050565b60006020820190508181036000830152610a238161092e565b9050919050565b600082825260208201905092915050565b6000610a4682610a59565b9050919050565b60008115159050919050565b600073ffffffffffffffffffffffffffffffffffffffff82169050919050565b610a8281610a3b565b8114610a8d57600080fd5b5056fea264697066735822122003a2e58ec7d9d51aba7118495bcad820c28baca04c1434981e8f300d5374634c64736f6c63430008000033",
  "devdoc": {
    "kind": "dev",
    "methods": {
      "claimGovernance()": {
        "details": "Claim Governance of the contract to a new account (`newGovernor`). Can only be called by the new Governor."
      },
      "governor()": {
        "details": "Returns the address of the current Governor."
      },
      "isGovernor()": {
        "details": "Returns true if the caller is the current Governor."
      },
      "transferGovernance(address)": {
        "details": "Transfers Governance of the contract to a new account (`newGovernor`). Can only be called by the current Governor. Must be claimed for this to complete",
        "params": {
          "_newGovernor": "Address of the new Governor"
        }
      }
    },
    "version": 1
  },
  "userdoc": {
    "kind": "user",
    "methods": {},
    "version": 1
  },
  "storageLayout": {
    "storage": [
      {
        "astId": 3757,
        "contract": "contracts/ingest/IngestRegistry.sol:IngestRegistry",
        "label": "endpointImplementation",
        "offset": 0,
        "slot": "0",
        "type": "t_address"
      },
      {
        "astId": 3759,
        "contract": "contracts/ingest/IngestRegistry.sol:IngestRegistry",
        "label": "master",
        "offset": 0,
        "slot": "1",
        "type": "t_address"
      },
      {
        "astId": 3761,
        "contract": "contracts/ingest/IngestRegistry.sol:IngestRegistry",
        "label": "pool",
        "offset": 0,
        "slot": "2",
        "type": "t_address"
      }
    ],
    "types": {
      "t_address": {
        "encoding": "inplace",
        "label": "address",
        "numberOfBytes": "20"
      }
    }
  }
}