{
  "address": "0xF5c631EB077665fcB4995281a8016FB9bDEfa547",
  "abi": [
    {
      "inputs": [
        {
          "internalType": "address",
          "name": "_logic",
          "type": "address"
        }
      ],
      "stateMutability": "nonpayable",
      "type": "constructor"
    },
    {
      "anonymous": false,
      "inputs": [
        {
          "indexed": true,
          "internalType": "address",
          "name": "previousGovernor",
          "type": "address"
        },
        {
          "indexed": true,
          "internalType": "address",
          "name": "newGovernor",
          "type": "address"
        }
      ],
      "name": "GovernorshipTransferred",
      "type": "event"
    },
    {
      "anonymous": false,
      "inputs": [
        {
          "indexed": true,
          "internalType": "address",
          "name": "previousGovernor",
          "type": "address"
        },
        {
          "indexed": true,
          "internalType": "address",
          "name": "newGovernor",
          "type": "address"
        }
      ],
      "name": "PendingGovernorshipTransfer",
      "type": "event"
    },
    {
      "anonymous": false,
      "inputs": [
        {
          "indexed": true,
          "internalType": "address",
          "name": "implementation",
          "type": "address"
        }
      ],
      "name": "Upgraded",
      "type": "event"
    },
    {
      "stateMutability": "payable",
      "type": "fallback"
    },
    {
      "inputs": [],
      "name": "admin",
      "outputs": [
        {
          "internalType": "address",
          "name": "",
          "type": "address"
        }
      ],
      "stateMutability": "view",
      "type": "function"
    },
    {
      "inputs": [],
      "name": "claimGovernance",
      "outputs": [],
      "stateMutability": "nonpayable",
      "type": "function"
    },
    {
      "inputs": [],
      "name": "governor",
      "outputs": [
        {
          "internalType": "address",
          "name": "",
          "type": "address"
        }
      ],
      "stateMutability": "view",
      "type": "function"
    },
    {
      "inputs": [],
      "name": "implementation",
      "outputs": [
        {
          "internalType": "address",
          "name": "",
          "type": "address"
        }
      ],
      "stateMutability": "view",
      "type": "function"
    },
    {
      "inputs": [],
      "name": "isGovernor",
      "outputs": [
        {
          "internalType": "bool",
          "name": "",
          "type": "bool"
        }
      ],
      "stateMutability": "view",
      "type": "function"
    },
    {
      "inputs": [
        {
          "internalType": "address",
          "name": "_newGovernor",
          "type": "address"
        }
      ],
      "name": "transferGovernance",
      "outputs": [],
      "stateMutability": "nonpayable",
      "type": "function"
    },
    {
      "inputs": [
        {
          "internalType": "address",
          "name": "newImplementation",
          "type": "address"
        }
      ],
      "name": "upgradeTo",
      "outputs": [],
      "stateMutability": "nonpayable",
      "type": "function"
    },
    {
      "inputs": [
        {
          "internalType": "address",
          "name": "newImplementation",
          "type": "address"
        },
        {
          "internalType": "bytes",
          "name": "data",
          "type": "bytes"
        }
      ],
      "name": "upgradeToAndCall",
      "outputs": [],
      "stateMutability": "payable",
      "type": "function"
    },
    {
      "stateMutability": "payable",
      "type": "receive"
    }
  ],
  "transactionHash": "0xe17bcab67feab510b87051924c4138596f10c7305c022b873a40ecd298f9286b",
  "args": [
    "0xF7fA62CAbcD854D0d549cb9e17FDAeFe2DeE1f00"
  ],
  "solcInputHash": "76d69fe4bc08a2cd8951f7e9eb2ded96",
  "bytecode": "0x60806040523480156200001157600080fd5b50604051620016003803806200160083398181016040528101906200003791906200042a565b806040518060200160405280600081525081816200005b336200019360201b60201c565b6200006b620001c260201b60201c565b73ffffffffffffffffffffffffffffffffffffffff16600073ffffffffffffffffffffffffffffffffffffffff167fc7c0c772add429241571afb3805861fb3cfa2af374534088b76cdb4325a87e9a60405160405180910390a360017f360894a13ba1a3210667c828492db98dca3e2076cc3735a920a3ca505d382bbd60001c620000f7919062000651565b60001b7f360894a13ba1a3210667c828492db98dca3e2076cc3735a920a3ca505d382bbc60001b1462000153577f4e487b7100000000000000000000000000000000000000000000000000000000600052600160045260246000fd5b6200016482620001f360201b60201c565b60008151111562000188576200018682826200027a60201b620004a11760201c565b505b50505050506200075a565b60007f7bea13895fa79d2831e0a9e28edede30099005a50d652d8957cf8a607ee6ca4a60001b90508181555050565b6000807f7bea13895fa79d2831e0a9e28edede30099005a50d652d8957cf8a607ee6ca4a60001b9050805491505090565b6200020981620002b060201b620004ce1760201c565b6200024b576040517f08c379a00000000000000000000000000000000000000000000000000000000081526004016200024290620005db565b60405180910390fd5b60007f360894a13ba1a3210667c828492db98dca3e2076cc3735a920a3ca505d382bbc60001b90508181555050565b6060620002a88383604051806060016040528060278152602001620015d960279139620002c360201b60201c565b905092915050565b600080823b905060008111915050919050565b6060620002d684620002b060201b60201c565b62000318576040517f08c379a00000000000000000000000000000000000000000000000000000000081526004016200030f90620005fd565b60405180910390fd5b6000808573ffffffffffffffffffffffffffffffffffffffff16856040516200034291906200059e565b600060405180830381855af49150503d80600081146200037f576040519150601f19603f3d011682016040523d82523d6000602084013e62000384565b606091505b50915091506200039c828286620003a760201b60201c565b925050509392505050565b60608315620003b9578290506200040c565b600083511115620003cd5782518084602001fd5b816040517f08c379a0000000000000000000000000000000000000000000000000000000008152600401620004039190620005b7565b60405180910390fd5b9392505050565b600081519050620004248162000740565b92915050565b6000602082840312156200043d57600080fd5b60006200044d8482850162000413565b91505092915050565b600062000463826200061f565b6200046f818562000635565b935062000481818560208601620006ca565b80840191505092915050565b60006200049a826200062a565b620004a6818562000640565b9350620004b8818560208601620006ca565b620004c3816200072f565b840191505092915050565b6000620004dd60328362000640565b91507f4552433139363750726f78793a206e657720696d706c656d656e746174696f6e60008301527f206973206e6f74206120636f6e747261637400000000000000000000000000006020830152604082019050919050565b60006200054560268362000640565b91507f416464726573733a2064656c65676174652063616c6c20746f206e6f6e2d636f60008301527f6e747261637400000000000000000000000000000000000000000000000000006020830152604082019050919050565b6000620005ac828462000456565b915081905092915050565b60006020820190508181036000830152620005d381846200048d565b905092915050565b60006020820190508181036000830152620005f681620004ce565b9050919050565b60006020820190508181036000830152620006188162000536565b9050919050565b600081519050919050565b600081519050919050565b600081905092915050565b600082825260208201905092915050565b60006200065e82620006c0565b91506200066b83620006c0565b92508282101562000681576200068062000700565b5b828203905092915050565b60006200069982620006a0565b9050919050565b600073ffffffffffffffffffffffffffffffffffffffff82169050919050565b6000819050919050565b60005b83811015620006ea578082015181840152602081019050620006cd565b83811115620006fa576000848401525b50505050565b7f4e487b7100000000000000000000000000000000000000000000000000000000600052601160045260246000fd5b6000601f19601f8301169050919050565b6200074b816200068c565b81146200075757600080fd5b50565b610e6f806200076a6000396000f3fe60806040526004361061007f5760003560e01c80635d36b1901161004e5780635d36b19014610133578063c7af33521461014a578063d38bfff414610175578063f851a4401461019e5761008e565b80630c340a24146100985780633659cfe6146100c35780634f1ef286146100ec5780635c60da1b146101085761008e565b3661008e5761008c6101c9565b005b6100966101c9565b005b3480156100a457600080fd5b506100ad6101e3565b6040516100ba9190610c40565b60405180910390f35b3480156100cf57600080fd5b506100ea60048036038101906100e59190610930565b6101f2565b005b61010660048036038101906101019190610959565b610245565b005b34801561011457600080fd5b5061011d610312565b60405161012a9190610c40565b60405180910390f35b34801561013f57600080fd5b50610148610321565b005b34801561015657600080fd5b5061015f6103a1565b60405161016c9190610c5b565b60405180910390f35b34801561018157600080fd5b5061019c60048036038101906101979190610930565b6103de565b005b3480156101aa57600080fd5b506101b3610492565b6040516101c09190610c40565b60405180910390f35b6101d16104e1565b6101e16101dc6104e3565b610514565b565b60006101ed61053a565b905090565b6101fa6103a1565b610239576040517f08c379a000000000000000000000000000000000000000000000000000000000815260040161023090610cb8565b60405180910390fd5b6102428161056b565b50565b61024d6103a1565b61028c576040517f08c379a000000000000000000000000000000000000000000000000000000000815260040161028390610cb8565b60405180910390fd5b6102958361056b565b60008373ffffffffffffffffffffffffffffffffffffffff1683836040516102be929190610c10565b600060405180830381855af49150503d80600081146102f9576040519150601f19603f3d011682016040523d82523d6000602084013e6102fe565b606091505b505090508061030c57600080fd5b50505050565b600061031c6104e3565b905090565b6103296105ba565b73ffffffffffffffffffffffffffffffffffffffff163373ffffffffffffffffffffffffffffffffffffffff1614610396576040517f08c379a000000000000000000000000000000000000000000000000000000000815260040161038d90610d18565b60405180910390fd5b61039f336105eb565b565b60006103ab61053a565b73ffffffffffffffffffffffffffffffffffffffff163373ffffffffffffffffffffffffffffffffffffffff1614905090565b6103e66103a1565b610425576040517f08c379a000000000000000000000000000000000000000000000000000000000815260040161041c90610cb8565b60405180910390fd5b61042e816106c8565b8073ffffffffffffffffffffffffffffffffffffffff1661044d61053a565b73ffffffffffffffffffffffffffffffffffffffff167fa39cc5eb22d0f34d8beaefee8a3f17cc229c1a1d1ef87a5ad47313487b1c4f0d60405160405180910390a350565b600061049c61053a565b905090565b60606104c68383604051806060016040528060278152602001610e13602791396106f7565b905092915050565b600080823b905060008111915050919050565b565b6000807f360894a13ba1a3210667c828492db98dca3e2076cc3735a920a3ca505d382bbc60001b9050805491505090565b3660008037600080366000845af43d6000803e8060008114610535573d6000f35b3d6000fd5b6000807f7bea13895fa79d2831e0a9e28edede30099005a50d652d8957cf8a607ee6ca4a60001b9050805491505090565b610574816107c4565b8073ffffffffffffffffffffffffffffffffffffffff167fbc7cd75a20ee27fd9adebab32041f755214dbc6bffa90cc0225b39da2e5c2d3b60405160405180910390a250565b6000807f44c4d30b2eaad5130ad70c3ba6972730566f3e6359ab83e800d905c61b1c51db60001b9050805491505090565b600073ffffffffffffffffffffffffffffffffffffffff168173ffffffffffffffffffffffffffffffffffffffff16141561065b576040517f08c379a000000000000000000000000000000000000000000000000000000000815260040161065290610cd8565b60405180910390fd5b8073ffffffffffffffffffffffffffffffffffffffff1661067a61053a565b73ffffffffffffffffffffffffffffffffffffffff167fc7c0c772add429241571afb3805861fb3cfa2af374534088b76cdb4325a87e9a60405160405180910390a36106c58161083b565b50565b60007f44c4d30b2eaad5130ad70c3ba6972730566f3e6359ab83e800d905c61b1c51db60001b90508181555050565b6060610702846104ce565b610741576040517f08c379a000000000000000000000000000000000000000000000000000000000815260040161073890610cf8565b60405180910390fd5b6000808573ffffffffffffffffffffffffffffffffffffffff16856040516107699190610c29565b600060405180830381855af49150503d80600081146107a4576040519150601f19603f3d011682016040523d82523d6000602084013e6107a9565b606091505b50915091506107b982828661086a565b925050509392505050565b6107cd816104ce565b61080c576040517f08c379a000000000000000000000000000000000000000000000000000000000815260040161080390610c98565b60405180910390fd5b60007f360894a13ba1a3210667c828492db98dca3e2076cc3735a920a3ca505d382bbc60001b90508181555050565b60007f7bea13895fa79d2831e0a9e28edede30099005a50d652d8957cf8a607ee6ca4a60001b90508181555050565b6060831561087a578290506108ca565b60008351111561088d5782518084602001fd5b816040517f08c379a00000000000000000000000000000000000000000000000000000000081526004016108c19190610c76565b60405180910390fd5b9392505050565b6000813590506108e081610dfb565b92915050565b60008083601f8401126108f857600080fd5b8235905067ffffffffffffffff81111561091157600080fd5b60208301915083600182028301111561092957600080fd5b9250929050565b60006020828403121561094257600080fd5b6000610950848285016108d1565b91505092915050565b60008060006040848603121561096e57600080fd5b600061097c868287016108d1565b935050602084013567ffffffffffffffff81111561099957600080fd5b6109a5868287016108e6565b92509250509250925092565b6109ba81610d6a565b82525050565b6109c981610d7c565b82525050565b60006109db8385610d4e565b93506109e8838584610da8565b82840190509392505050565b60006109ff82610d38565b610a098185610d4e565b9350610a19818560208601610db7565b80840191505092915050565b6000610a3082610d43565b610a3a8185610d59565b9350610a4a818560208601610db7565b610a5381610dea565b840191505092915050565b6000610a6b603283610d59565b91507f4552433139363750726f78793a206e657720696d706c656d656e746174696f6e60008301527f206973206e6f74206120636f6e747261637400000000000000000000000000006020830152604082019050919050565b6000610ad1601a83610d59565b91507f43616c6c6572206973206e6f742074686520476f7665726e6f720000000000006000830152602082019050919050565b6000610b11601a83610d59565b91507f4e657720476f7665726e6f7220697320616464726573732830290000000000006000830152602082019050919050565b6000610b51602683610d59565b91507f416464726573733a2064656c65676174652063616c6c20746f206e6f6e2d636f60008301527f6e747261637400000000000000000000000000000000000000000000000000006020830152604082019050919050565b6000610bb7603083610d59565b91507f4f6e6c79207468652070656e64696e6720476f7665726e6f722063616e20636f60008301527f6d706c6574652074686520636c61696d000000000000000000000000000000006020830152604082019050919050565b6000610c1d8284866109cf565b91508190509392505050565b6000610c3582846109f4565b915081905092915050565b6000602082019050610c5560008301846109b1565b92915050565b6000602082019050610c7060008301846109c0565b92915050565b60006020820190508181036000830152610c908184610a25565b905092915050565b60006020820190508181036000830152610cb181610a5e565b9050919050565b60006020820190508181036000830152610cd181610ac4565b9050919050565b60006020820190508181036000830152610cf181610b04565b9050919050565b60006020820190508181036000830152610d1181610b44565b9050919050565b60006020820190508181036000830152610d3181610baa565b9050919050565b600081519050919050565b600081519050919050565b600081905092915050565b600082825260208201905092915050565b6000610d7582610d88565b9050919050565b60008115159050919050565b600073ffffffffffffffffffffffffffffffffffffffff82169050919050565b82818337600083830152505050565b60005b83811015610dd5578082015181840152602081019050610dba565b83811115610de4576000848401525b50505050565b6000601f19601f8301169050919050565b610e0481610d6a565b8114610e0f57600080fd5b5056fe416464726573733a206c6f772d6c6576656c2064656c65676174652063616c6c206661696c6564a26469706673582212201bc4ee94a165ce51dc5066f0487862b25e898886d18c33603b4ad63afae9d5aa64736f6c63430008000033416464726573733a206c6f772d6c6576656c2064656c65676174652063616c6c206661696c6564",
  "devdoc": {
    "kind": "dev",
    "methods": {
      "admin()": {
        "returns": {
          "_0": "The address of the proxy admin/it's also the governor."
        }
      },
      "claimGovernance()": {
        "details": "Claim Governance of the contract to a new account (`newGovernor`). Can only be called by the new Governor."
      },
      "governor()": {
        "details": "Returns the address of the current Governor."
      },
      "implementation()": {
        "returns": {
          "_0": "The address of the implementation."
        }
      },
      "isGovernor()": {
        "details": "Returns true if the caller is the current Governor."
      },
      "transferGovernance(address)": {
        "details": "Transfers Governance of the contract to a new account (`newGovernor`). Can only be called by the current Governor. Must be claimed for this to complete",
        "params": {
          "_newGovernor": "Address of the new Governor"
        }
      },
      "upgradeTo(address)": {
        "details": "Upgrade the backing implementation of the proxy. Only the admin can call this function.",
        "params": {
          "newImplementation": "Address of the new implementation."
        }
      },
      "upgradeToAndCall(address,bytes)": {
        "details": "Upgrade the backing implementation of the proxy and call a function on the new implementation. This is useful to initialize the proxied contract.",
        "params": {
          "data": "Data to send as msg.data in the low level call. It should include the signature and the parameters of the function to be called, as described in https://solidity.readthedocs.io/en/v0.4.24/abi-spec.html#function-selector-and-argument-encoding.",
          "newImplementation": "Address of the new implementation."
        }
      }
    },
    "version": 1
  },
  "userdoc": {
    "kind": "user",
    "methods": {},
    "notice": "IngestMatery",
    "version": 1
  },
  "storageLayout": {
    "storage": [],
    "types": null
  }
}