{
  "address": "0x7436f9Ffd073D9aB7e3904866e03270dc18d4c33",
  "abi": [
    {
      "inputs": [
        {
          "internalType": "address",
          "name": "series_",
          "type": "address"
        },
        {
          "internalType": "uint256",
          "name": "startTime_",
          "type": "uint256"
        },
        {
          "internalType": "uint256",
          "name": "lockStartTime_",
          "type": "uint256"
        },
        {
          "internalType": "uint256",
          "name": "endTime_",
          "type": "uint256"
        },
        {
          "internalType": "uint256",
          "name": "claimEndTime_",
          "type": "uint256"
        }
      ],
      "stateMutability": "nonpayable",
      "type": "constructor"
    },
    {
      "anonymous": false,
      "inputs": [
        {
          "indexed": false,
          "internalType": "uint256",
          "name": "totalRewardETH",
          "type": "uint256"
        },
        {
          "indexed": false,
          "internalType": "uint256",
          "name": "totalRewardOGN",
          "type": "uint256"
        }
      ],
      "name": "Finale",
      "type": "event"
    },
    {
      "anonymous": false,
      "inputs": [
        {
          "indexed": true,
          "internalType": "address",
          "name": "userAddress",
          "type": "address"
        },
        {
          "indexed": true,
          "internalType": "uint256",
          "name": "amount",
          "type": "uint256"
        },
        {
          "indexed": false,
          "internalType": "uint256",
          "name": "points",
          "type": "uint256"
        }
      ],
      "name": "Stake",
      "type": "event"
    },
    {
      "anonymous": false,
      "inputs": [
        {
          "indexed": true,
          "internalType": "address",
          "name": "userAddress",
          "type": "address"
        }
      ],
      "name": "Unstake",
      "type": "event"
    },
    {
      "inputs": [
        {
          "internalType": "uint256",
          "name": "initialSupply",
          "type": "uint256"
        }
      ],
      "name": "bootstrap",
      "outputs": [],
      "stateMutability": "nonpayable",
      "type": "function"
    },
    {
      "inputs": [
        {
          "internalType": "address",
          "name": "userAddress",
          "type": "address"
        }
      ],
      "name": "claim",
      "outputs": [
        {
          "internalType": "uint256",
          "name": "",
          "type": "uint256"
        },
        {
          "internalType": "uint256",
          "name": "",
          "type": "uint256"
        }
      ],
      "stateMutability": "nonpayable",
      "type": "function"
    },
    {
      "inputs": [],
      "name": "claimEndTime",
      "outputs": [
        {
          "internalType": "uint256",
          "name": "",
          "type": "uint256"
        }
      ],
      "stateMutability": "view",
      "type": "function"
    },
    {
      "inputs": [],
      "name": "endTime",
      "outputs": [
        {
          "internalType": "uint256",
          "name": "",
          "type": "uint256"
        }
      ],
      "stateMutability": "view",
      "type": "function"
    },
    {
      "inputs": [
        {
          "internalType": "address",
          "name": "userAddress",
          "type": "address"
        }
      ],
      "name": "expectedRewards",
      "outputs": [
        {
          "internalType": "uint256",
          "name": "",
          "type": "uint256"
        },
        {
          "internalType": "uint256",
          "name": "",
          "type": "uint256"
        }
      ],
      "stateMutability": "view",
      "type": "function"
    },
    {
      "inputs": [
        {
          "internalType": "address",
          "name": "userAddress",
          "type": "address"
        }
      ],
      "name": "getPoints",
      "outputs": [
        {
          "internalType": "uint128",
          "name": "",
          "type": "uint128"
        }
      ],
      "stateMutability": "view",
      "type": "function"
    },
    {
      "inputs": [],
      "name": "getTotalPoints",
      "outputs": [
        {
          "internalType": "uint128",
          "name": "",
          "type": "uint128"
        }
      ],
      "stateMutability": "view",
      "type": "function"
    },
    {
      "inputs": [],
      "name": "lockStartTime",
      "outputs": [
        {
          "internalType": "uint256",
          "name": "",
          "type": "uint256"
        }
      ],
      "stateMutability": "view",
      "type": "function"
    },
    {
      "inputs": [
        {
          "internalType": "uint256",
          "name": "amount",
          "type": "uint256"
        },
        {
          "internalType": "uint256",
          "name": "blockStamp",
          "type": "uint256"
        }
      ],
      "name": "pointsInTime",
      "outputs": [
        {
          "internalType": "uint128",
          "name": "",
          "type": "uint128"
        }
      ],
      "stateMutability": "view",
      "type": "function"
    },
    {
      "inputs": [],
      "name": "season",
      "outputs": [
        {
          "internalType": "bool",
          "name": "bootstrapped",
          "type": "bool"
        },
        {
          "internalType": "bool",
          "name": "snapshotTaken",
          "type": "bool"
        },
        {
          "internalType": "uint128",
          "name": "totalPoints",
          "type": "uint128"
        }
      ],
      "stateMutability": "view",
      "type": "function"
    },
    {
      "inputs": [],
      "name": "series",
      "outputs": [
        {
          "internalType": "contract ISeries",
          "name": "",
          "type": "address"
        }
      ],
      "stateMutability": "view",
      "type": "function"
    },
    {
      "inputs": [],
      "name": "snapshot",
      "outputs": [
        {
          "internalType": "uint128",
          "name": "rewardETH",
          "type": "uint128"
        },
        {
          "internalType": "uint128",
          "name": "rewardOGN",
          "type": "uint128"
        }
      ],
      "stateMutability": "view",
      "type": "function"
    },
    {
      "inputs": [
        {
          "internalType": "address",
          "name": "userAddress",
          "type": "address"
        },
        {
          "internalType": "uint256",
          "name": "amount",
          "type": "uint256"
        }
      ],
      "name": "stake",
      "outputs": [
        {
          "internalType": "uint128",
          "name": "",
          "type": "uint128"
        }
      ],
      "stateMutability": "nonpayable",
      "type": "function"
    },
    {
      "inputs": [],
      "name": "startTime",
      "outputs": [
        {
          "internalType": "uint256",
          "name": "",
          "type": "uint256"
        }
      ],
      "stateMutability": "view",
      "type": "function"
    },
    {
      "inputs": [
        {
          "internalType": "address",
          "name": "userAddress",
          "type": "address"
        }
      ],
      "name": "unstake",
      "outputs": [
        {
          "internalType": "uint256",
          "name": "",
          "type": "uint256"
        },
        {
          "internalType": "uint256",
          "name": "",
          "type": "uint256"
        }
      ],
      "stateMutability": "nonpayable",
      "type": "function"
    },
    {
      "inputs": [
        {
          "internalType": "address",
          "name": "",
          "type": "address"
        }
      ],
      "name": "users",
      "outputs": [
        {
          "internalType": "bool",
          "name": "exists",
          "type": "bool"
        },
        {
          "internalType": "uint128",
          "name": "points",
          "type": "uint128"
        }
      ],
      "stateMutability": "view",
      "type": "function"
    }
  ],
  "transactionHash": "0x103d98551868331ce61a971c91baeb1cb6ebf24903b44ef15a46d31d7f868d87",
  "args": [
    "0xCcE8E784c777fb9435F89f4E45f8b7FC49f7669f",
    1657584000,
    1665360000,
    1667952000,
    1670544000
  ],
  "numDeployments": 1,
  "solcInputHash": "dff4d4389c4eb41a5891ad25f05e3896",
  "bytecode": "0x6101206040523480156200001257600080fd5b50604051620018fb380380620018fb8339810160408190526200003591620001af565b6001600160601b0319606086901b1660805260a084905260e082905260c0839052610100819052428411620000b15760405162461bcd60e51b815260206004820152601960248201527f536561736f6e3a20496e76616c696420737461727454696d650000000000000060448201526064015b60405180910390fd5b838311620001025760405162461bcd60e51b815260206004820152601d60248201527f536561736f6e3a20496e76616c6964206c6f636b537461727454696d650000006044820152606401620000a8565b828211620001535760405162461bcd60e51b815260206004820152601760248201527f536561736f6e3a20496e76616c696420656e6454696d650000000000000000006044820152606401620000a8565b818111620001a45760405162461bcd60e51b815260206004820152601c60248201527f536561736f6e3a20496e76616c696420636c61696d456e6454696d65000000006044820152606401620000a8565b505050505062000204565b600080600080600060a08688031215620001c7578081fd5b85516001600160a01b0381168114620001de578182fd5b602087015160408801516060890151608090990151929a91995097965090945092505050565b60805160601c60a05160c05160e051610100516115f962000302600039600081816101a1015281816106c20152610ce6015260008181610137015281816103e30152818161069901528181610be501528181610c6f01528181610e58015261113c0152600081816101c80152610dc90152600081816102020152818161044a0152818161050a0152818161061101528181610dfd01528181610e2a01528181610fff01526110ac0152600081816103400152818161039b015281816104730152818161054501528181610720015281816107f60152818161096c01528181610b9901528181610f4f015281816111ba015261127301526115f96000f3fe608060405234801561001057600080fd5b50600436106101005760003560e01c80639711715a11610097578063eb9b5da111610066578063eb9b5da114610315578063ee204abb14610328578063f12d870f1461033b578063f2888dbb1461037a57600080fd5b80639711715a14610224578063a87430ba14610262578063adc9772e146102b4578063c50b0fb0146102c757600080fd5b806340d1d255116100d357806340d1d2551461019c57806362c7fa76146101c357806377e5006f146101ea57806378e97925146101fd57600080fd5b80631e83409a146101055780633197cbb614610132578063326bfcc1146101675780633686a39e14610187575b600080fd5b610118610113366004611401565b61038d565b604080519283526020830191909152015b60405180910390f35b6101597f000000000000000000000000000000000000000000000000000000000000000081565b604051908152602001610129565b61016f610426565b6040516001600160801b039091168152602001610129565b61019a610195366004611464565b61053a565b005b6101597f000000000000000000000000000000000000000000000000000000000000000081565b6101597f000000000000000000000000000000000000000000000000000000000000000081565b6101186101f8366004611401565b610694565b6101597f000000000000000000000000000000000000000000000000000000000000000081565b600154610242906001600160801b0380821691600160801b90041682565b604080516001600160801b03938416815292909116602083015201610129565b610295610270366004611401565b60026020526000908152604090205460ff81169061010090046001600160801b031682565b6040805192151583526001600160801b03909116602083015201610129565b61016f6102c2366004611439565b61095f565b6000546102ef9060ff808216916101008104909116906201000090046001600160801b031683565b60408051931515845291151560208401526001600160801b031690820152606001610129565b61016f610323366004611494565b610b61565b61016f610336366004611401565b610b74565b6103627f000000000000000000000000000000000000000000000000000000000000000081565b6040516001600160a01b039091168152602001610129565b610118610388366004611401565b610b8b565b600080336001600160a01b037f000000000000000000000000000000000000000000000000000000000000000016146103e15760405162461bcd60e51b81526004016103d8906114b5565b60405180910390fd5b7f000000000000000000000000000000000000000000000000000000000000000042101561041457506000905080915091565b61041d83610bd6565b91509150915091565b6000805460ff161561044857506000546201000090046001600160801b031690565b7f000000000000000000000000000000000000000000000000000000000000000042106105345760007f00000000000000000000000000000000000000000000000000000000000000006001600160a01b03166318160ddd6040518163ffffffff1660e01b815260040160206040518083038186803b1580156104ca57600080fd5b505afa1580156104de573d6000803e3d6000fd5b505050506040513d601f19601f82011682018060405250810190610502919061147c565b905061052e817f0000000000000000000000000000000000000000000000000000000000000000610dbd565b91505090565b50600090565b336001600160a01b037f000000000000000000000000000000000000000000000000000000000000000016146105825760405162461bcd60e51b81526004016103d8906114b5565b60005460ff16156105d55760405162461bcd60e51b815260206004820152601c60248201527f536561736f6e3a20416c726561647920626f6f7473747261707065640000000060448201526064016103d8565b6040805160608101825260005460ff610100820416151560208301526201000090046001600160801b03169181019190915260018152610635827f0000000000000000000000000000000000000000000000000000000000000000610dbd565b6001600160801b03166040820181905281516000805460209094015161ffff1990941691151561ff00191691909117610100931515939093029290921771ffffffffffffffffffffffffffffffff000019166201000090910217905550565b6000807f00000000000000000000000000000000000000000000000000000000000000004210806106e557507f00000000000000000000000000000000000000000000000000000000000000004210155b806106ff57506000546201000090046001600160801b0316155b1561070f57506000928392509050565b600061071a84610ef5565b905060007f00000000000000000000000000000000000000000000000000000000000000006001600160a01b031663fbfa77cf6040518163ffffffff1660e01b815260040160206040518083038186803b15801561077757600080fd5b505afa15801561078b573d6000803e3d6000fd5b505050506040513d601f19601f820116820180604052508101906107af919061141d565b6000805491925090610100900460ff166107d357816001600160a01b0316316107e0565b6001546001600160801b03165b6000805491925090610100900460ff16610905577f00000000000000000000000000000000000000000000000000000000000000006001600160a01b031663602bc0986040518163ffffffff1660e01b815260040160206040518083038186803b15801561084d57600080fd5b505afa158015610861573d6000803e3d6000fd5b505050506040513d601f19601f82011682018060405250810190610885919061141d565b6040516370a0823160e01b81526001600160a01b03858116600483015291909116906370a082319060240160206040518083038186803b1580156108c857600080fd5b505afa1580156108dc573d6000803e3d6000fd5b505050506040513d601f19601f82011682018060405250810190610900919061147c565b610919565b600154600160801b90046001600160801b03165b9050600061093485602001516001600160801b0316846110ed565b9050600061094f86602001516001600160801b0316846110ed565b9199919850909650505050505050565b6000336001600160a01b037f000000000000000000000000000000000000000000000000000000000000000016146109a95760405162461bcd60e51b81526004016103d8906114b5565b600082116109f95760405162461bcd60e51b815260206004820152601760248201527f536561736f6e3a204e6f20696e636f6d696e67204f474e00000000000000000060448201526064016103d8565b60005460ff16610a4b5760405162461bcd60e51b815260206004820181905260248201527f536561736f6e3a20536561736f6e206e6f7420626f6f7473747261707065642e60448201526064016103d8565b6000610a578342610dbd565b90506000610a6485610ef5565b600080549192508391600290610a8a9084906201000090046001600160801b03166114ec565b92506101000a8154816001600160801b0302191690836001600160801b031602179055508181602001818151610ac091906114ec565b6001600160801b039081169091526001600160a01b03871660008181526002602090815260409182902086518154888401519096166101008102610100600160881b0319921515929092166001600160881b031990971696909617179055905192835287935090917f5af417134f72a9d41143ace85b0a26dce6f550f894f2cbc1eeee8810603d91b6910160405180910390a3602001519150505b92915050565b6000610b6d8383610dbd565b9392505050565b600080610b8083610ef5565b602001519392505050565b600080336001600160a01b037f000000000000000000000000000000000000000000000000000000000000000016146104145760405162461bcd60e51b81526004016103d8906114b5565b60008054819060ff16610c5d577f00000000000000000000000000000000000000000000000000000000000000004210610c525760405162461bcd60e51b815260206004820152601960248201527f536561736f6e3a204e6f7420626f6f7473747261707065642e0000000000000060448201526064016103d8565b506000928392509050565b6000610c6884610ef5565b90506000807f0000000000000000000000000000000000000000000000000000000000000000421015610ce457602083015160008054600290610cbb9084906201000090046001600160801b0316611556565b92506101000a8154816001600160801b0302191690836001600160801b03160217905550610d28565b7f0000000000000000000000000000000000000000000000000000000000000000421015610d2857610d2283602001516001600160801b0316611114565b90925090505b60408051808201825260018152600060208083018281526001600160a01b038b1680845260029092528483209351845491516001600160881b0319909216901515610100600160881b031916176101006001600160801b039092169190910217909255915190917fe5d648ba8f514a64a4104bf6922acc6e04ecab6464b46d696cf123c27079ddd791a2909590945092505050565b6000821580610dec57507f00000000000000000000000000000000000000000000000000000000000000008210155b15610df957506000610b5b565b60007f00000000000000000000000000000000000000000000000000000000000000008310610e285782610e4a565b7f00000000000000000000000000000000000000000000000000000000000000005b9050600062015180610e7c837f000000000000000000000000000000000000000000000000000000000000000061157e565b610e869190611517565b90506000610e948287611537565b90506001600160801b038110610eec5760405162461bcd60e51b815260206004820152601760248201527f536561736f6e3a20506f696e7473206f766572666c6f7700000000000000000060448201526064016103d8565b95945050505050565b60408051808201909152600080825260208201526001600160a01b03821660009081526002602090815260409182902082518084019093525460ff811615158084526101009091046001600160801b0316918301919091527f0000000000000000000000000000000000000000000000000000000000000000906110e6576040516307161ecd60e01b81526001600160a01b038581166004830152600091908316906307161ecd9060240160206040518083038186803b158015610fb857600080fd5b505afa158015610fcc573d6000803e3d6000fd5b505050506040513d601f19601f82011682018060405250810190610ff0919061147c565b905060008111801561102257507f00000000000000000000000000000000000000000000000000000000000000008111155b156110e0576040516370a0823160e01b81526001600160a01b038681166004830152600091908416906370a082319060240160206040518083038186803b15801561106c57600080fd5b505afa158015611080573d6000803e3d6000fd5b505050506040513d601f19601f820116820180604052508101906110a4919061147c565b90506110d0817f0000000000000000000000000000000000000000000000000000000000000000610dbd565b6001600160801b03166020850152505b50600182525b5092915050565b600080546201000090046001600160801b031661110a8484611537565b610b6d9190611517565b6000808261112757506000928392509050565b600054610100900460ff1615801561115f57507f00000000000000000000000000000000000000000000000000000000000000004210155b1561116c5761116c6111b6565b6001546000906111869085906001600160801b03166110ed565b6001549091506000906111aa908690600160801b90046001600160801b03166110ed565b91959194509092505050565b60007f00000000000000000000000000000000000000000000000000000000000000006001600160a01b031663fbfa77cf6040518163ffffffff1660e01b815260040160206040518083038186803b15801561121157600080fd5b505afa158015611225573d6000803e3d6000fd5b505050506040513d601f19601f82011682018060405250810190611249919061141d565b905060006040518060400160405280836001600160a01b0316316001600160801b031681526020017f00000000000000000000000000000000000000000000000000000000000000006001600160a01b031663602bc0986040518163ffffffff1660e01b815260040160206040518083038186803b1580156112ca57600080fd5b505afa1580156112de573d6000803e3d6000fd5b505050506040513d601f19601f82011682018060405250810190611302919061141d565b6040516370a0823160e01b81526001600160a01b03868116600483015291909116906370a082319060240160206040518083038186803b15801561134557600080fd5b505afa158015611359573d6000803e3d6000fd5b505050506040513d601f19601f8201168201806040525081019061137d919061147c565b6001600160801b0390811690915281516020808401516040805193851684529316908201529192507f524970edf64f36d519e36f01133bbed8f265248b90e244721ec383527b38e664910160405180910390a16000805461ff00191661010017905580516020909101516001600160801b03908116600160801b0291161760015550565b600060208284031215611412578081fd5b8135610b6d816115ab565b60006020828403121561142e578081fd5b8151610b6d816115ab565b6000806040838503121561144b578081fd5b8235611456816115ab565b946020939093013593505050565b600060208284031215611475578081fd5b5035919050565b60006020828403121561148d578081fd5b5051919050565b600080604083850312156114a6578182fd5b50508035926020909101359150565b6020808252601b908201527f536561736f6e3a204e6f742073657269657320636f6e74726163740000000000604082015260600190565b60006001600160801b0380831681851680830382111561150e5761150e611595565b01949350505050565b60008261153257634e487b7160e01b81526012600452602481fd5b500490565b600081600019048311821515161561155157611551611595565b500290565b60006001600160801b038381169083168181101561157657611576611595565b039392505050565b60008282101561159057611590611595565b500390565b634e487b7160e01b600052601160045260246000fd5b6001600160a01b03811681146115c057600080fd5b5056fea26469706673582212203214b089af964e07e889ee415091283f68a3cb93a90b66ab195b2ac9d43ecb1664736f6c63430008040033",
  "devdoc": {
    "events": {
      "Finale(uint256,uint256)": {
        "details": "Staking period has ended and reward snapshot taken",
        "params": {
          "totalRewardETH": "- Total ETH reward to split amongst stakers",
          "totalRewardOGN": "- Total OGN reward to split amongst stakers"
        }
      },
      "Stake(address,uint256,uint256)": {
        "details": "User has staked",
        "params": {
          "amount": "- amount of OGN staked",
          "points": "- points user received for this stake",
          "userAddress": "- address of the user"
        }
      },
      "Unstake(address)": {
        "details": "User has unstaked",
        "params": {
          "userAddress": "- address of the user"
        }
      }
    },
    "kind": "dev",
    "methods": {
      "bootstrap(uint256)": {
        "details": "Set the initial total points, potentially rolling over stake      totals from the previous season.",
        "params": {
          "initialSupply": "- The amount of staked OGN at the start of the      season."
        }
      },
      "claim(address)": {
        "params": {
          "userAddress": "- the user staking their OGN"
        },
        "returns": {
          "_0": "Amount of ETH profit share to pay the user",
          "_1": "Amount of OGN rewards to pay the user"
        }
      },
      "constructor": {
        "params": {
          "claimEndTime_": "- Timestamp at which users can no longer claim      profit share and rewards",
          "endTime_": "- Timestamp ending this season",
          "lockStartTime_": "- Timestamp at which new stakes are no longer accepted",
          "series_": "- The Series staking and registry contract",
          "startTime_": "- Timestamp starting this season"
        }
      },
      "expectedRewards(address)": {
        "details": "This will return zero values if outside the claim period.",
        "params": {
          "userAddress": "- Address for the user to calculate"
        },
        "returns": {
          "_0": "ethShare - Amount of ETH a user would receive if claimed now",
          "_1": "ognRewards - Amount of OGN a user would receive if claimed now"
        }
      },
      "getPoints(address)": {
        "params": {
          "userAddress": "- address for which to return their points"
        },
        "returns": {
          "_0": "total points"
        }
      },
      "getTotalPoints()": {
        "returns": {
          "_0": "total points of all users' stakes"
        }
      },
      "pointsInTime(uint256,uint256)": {
        "details": "Calculate the points a user would receive if they staked at a      specific block timestamp.",
        "params": {
          "amount": "- The amount of OGN they would stake",
          "blockStamp": "- The block timestamp to calculate for"
        },
        "returns": {
          "_0": "points. 0 if out of season."
        }
      },
      "stake(address,uint256)": {
        "details": "This may be called multiple times and the amount returned will      be for the user's totals, not the amount for this specific call.",
        "params": {
          "amount": "- the amount of (st)OGN being staked",
          "userAddress": "- the user staking their OGN"
        },
        "returns": {
          "_0": "total points received for the user's stake"
        }
      },
      "unstake(address)": {
        "params": {
          "userAddress": "- the user staking their OGN"
        },
        "returns": {
          "_0": "Amount of ETH profit share to pay the user",
          "_1": "Amount of OGN rewards to pay the user"
        }
      }
    },
    "title": "Story Season staking contract",
    "version": 1
  },
  "userdoc": {
    "kind": "user",
    "methods": {
      "claim(address)": {
        "notice": "Calculate and return  ETH profit share and OGN rewards and zero      out the user's stake points."
      },
      "expectedRewards(address)": {
        "notice": "Return the expected rewards for a user."
      },
      "getPoints(address)": {
        "notice": "Total points for a user's stake"
      },
      "getTotalPoints()": {
        "notice": "Total points of all stakes"
      },
      "stake(address,uint256)": {
        "notice": "Stake OGN for a share of ETH profits and OGN rewards"
      },
      "unstake(address)": {
        "notice": "Calculate and return  ETH profit share and OGN rewards and zero      out the user's stake points."
      }
    },
    "notice": "Season logic contract to calculate rewards of stakers",
    "version": 1
  },
  "storageLayout": {
    "storage": [
      {
        "astId": 13167,
        "contract": "contracts/staking/Season.sol:Season",
        "label": "season",
        "offset": 0,
        "slot": "0",
        "type": "t_struct(SeasonMeta)13144_storage"
      },
      {
        "astId": 13170,
        "contract": "contracts/staking/Season.sol:Season",
        "label": "snapshot",
        "offset": 0,
        "slot": "1",
        "type": "t_struct(Snapshot)13149_storage"
      },
      {
        "astId": 13175,
        "contract": "contracts/staking/Season.sol:Season",
        "label": "users",
        "offset": 0,
        "slot": "2",
        "type": "t_mapping(t_address,t_struct(User)13137_storage)"
      }
    ],
    "types": {
      "t_address": {
        "encoding": "inplace",
        "label": "address",
        "numberOfBytes": "20"
      },
      "t_bool": {
        "encoding": "inplace",
        "label": "bool",
        "numberOfBytes": "1"
      },
      "t_mapping(t_address,t_struct(User)13137_storage)": {
        "encoding": "mapping",
        "key": "t_address",
        "label": "mapping(address => struct Season.User)",
        "numberOfBytes": "32",
        "value": "t_struct(User)13137_storage"
      },
      "t_struct(SeasonMeta)13144_storage": {
        "encoding": "inplace",
        "label": "struct Season.SeasonMeta",
        "members": [
          {
            "astId": 13139,
            "contract": "contracts/staking/Season.sol:Season",
            "label": "bootstrapped",
            "offset": 0,
            "slot": "0",
            "type": "t_bool"
          },
          {
            "astId": 13141,
            "contract": "contracts/staking/Season.sol:Season",
            "label": "snapshotTaken",
            "offset": 1,
            "slot": "0",
            "type": "t_bool"
          },
          {
            "astId": 13143,
            "contract": "contracts/staking/Season.sol:Season",
            "label": "totalPoints",
            "offset": 2,
            "slot": "0",
            "type": "t_uint128"
          }
        ],
        "numberOfBytes": "32"
      },
      "t_struct(Snapshot)13149_storage": {
        "encoding": "inplace",
        "label": "struct Season.Snapshot",
        "members": [
          {
            "astId": 13146,
            "contract": "contracts/staking/Season.sol:Season",
            "label": "rewardETH",
            "offset": 0,
            "slot": "0",
            "type": "t_uint128"
          },
          {
            "astId": 13148,
            "contract": "contracts/staking/Season.sol:Season",
            "label": "rewardOGN",
            "offset": 16,
            "slot": "0",
            "type": "t_uint128"
          }
        ],
        "numberOfBytes": "32"
      },
      "t_struct(User)13137_storage": {
        "encoding": "inplace",
        "label": "struct Season.User",
        "members": [
          {
            "astId": 13134,
            "contract": "contracts/staking/Season.sol:Season",
            "label": "exists",
            "offset": 0,
            "slot": "0",
            "type": "t_bool"
          },
          {
            "astId": 13136,
            "contract": "contracts/staking/Season.sol:Season",
            "label": "points",
            "offset": 1,
            "slot": "0",
            "type": "t_uint128"
          }
        ],
        "numberOfBytes": "32"
      },
      "t_uint128": {
        "encoding": "inplace",
        "label": "uint128",
        "numberOfBytes": "16"
      }
    }
  }
}