{
  "address": "0x12e929eb29ED2307A28EB3E494062C58c32AaF7D",
  "abi": [
    {
      "anonymous": false,
      "inputs": [
        {
          "indexed": true,
          "internalType": "address",
          "name": "previousGovernor",
          "type": "address"
        },
        {
          "indexed": true,
          "internalType": "address",
          "name": "newGovernor",
          "type": "address"
        }
      ],
      "name": "GovernorshipTransferred",
      "type": "event"
    },
    {
      "anonymous": false,
      "inputs": [
        {
          "indexed": true,
          "internalType": "uint256",
          "name": "number",
          "type": "uint256"
        },
        {
          "indexed": true,
          "internalType": "address",
          "name": "season",
          "type": "address"
        }
      ],
      "name": "NewSeason",
      "type": "event"
    },
    {
      "anonymous": false,
      "inputs": [
        {
          "indexed": true,
          "internalType": "address",
          "name": "previousGovernor",
          "type": "address"
        },
        {
          "indexed": true,
          "internalType": "address",
          "name": "newGovernor",
          "type": "address"
        }
      ],
      "name": "PendingGovernorshipTransfer",
      "type": "event"
    },
    {
      "anonymous": false,
      "inputs": [
        {
          "indexed": true,
          "internalType": "address",
          "name": "season",
          "type": "address"
        }
      ],
      "name": "SeasonCancelled",
      "type": "event"
    },
    {
      "anonymous": false,
      "inputs": [
        {
          "indexed": true,
          "internalType": "uint256",
          "name": "number",
          "type": "uint256"
        },
        {
          "indexed": true,
          "internalType": "address",
          "name": "season",
          "type": "address"
        }
      ],
      "name": "SeasonStart",
      "type": "event"
    },
    {
      "inputs": [
        {
          "internalType": "address",
          "name": "userAddress",
          "type": "address"
        }
      ],
      "name": "balanceOf",
      "outputs": [
        {
          "internalType": "uint256",
          "name": "",
          "type": "uint256"
        }
      ],
      "stateMutability": "view",
      "type": "function"
    },
    {
      "inputs": [
        {
          "internalType": "uint256",
          "name": "seasonIndex",
          "type": "uint256"
        },
        {
          "internalType": "uint256",
          "name": "totalStaked",
          "type": "uint256"
        }
      ],
      "name": "bootstrapSeason",
      "outputs": [],
      "stateMutability": "nonpayable",
      "type": "function"
    },
    {
      "inputs": [],
      "name": "claim",
      "outputs": [
        {
          "internalType": "uint256",
          "name": "",
          "type": "uint256"
        },
        {
          "internalType": "uint256",
          "name": "",
          "type": "uint256"
        }
      ],
      "stateMutability": "nonpayable",
      "type": "function"
    },
    {
      "inputs": [],
      "name": "claimGovernance",
      "outputs": [],
      "stateMutability": "nonpayable",
      "type": "function"
    },
    {
      "inputs": [],
      "name": "currentClaimingIndex",
      "outputs": [
        {
          "internalType": "uint256",
          "name": "",
          "type": "uint256"
        }
      ],
      "stateMutability": "view",
      "type": "function"
    },
    {
      "inputs": [],
      "name": "currentStakingIndex",
      "outputs": [
        {
          "internalType": "uint256",
          "name": "",
          "type": "uint256"
        }
      ],
      "stateMutability": "view",
      "type": "function"
    },
    {
      "inputs": [],
      "name": "expectedClaimingSeason",
      "outputs": [
        {
          "internalType": "address",
          "name": "",
          "type": "address"
        }
      ],
      "stateMutability": "view",
      "type": "function"
    },
    {
      "inputs": [],
      "name": "expectedStakingSeason",
      "outputs": [
        {
          "internalType": "address",
          "name": "",
          "type": "address"
        }
      ],
      "stateMutability": "view",
      "type": "function"
    },
    {
      "inputs": [],
      "name": "governor",
      "outputs": [
        {
          "internalType": "address",
          "name": "",
          "type": "address"
        }
      ],
      "stateMutability": "view",
      "type": "function"
    },
    {
      "inputs": [
        {
          "internalType": "address",
          "name": "ogn_",
          "type": "address"
        },
        {
          "internalType": "address",
          "name": "vault_",
          "type": "address"
        }
      ],
      "name": "initialize",
      "outputs": [],
      "stateMutability": "nonpayable",
      "type": "function"
    },
    {
      "inputs": [],
      "name": "isGovernor",
      "outputs": [
        {
          "internalType": "bool",
          "name": "",
          "type": "bool"
        }
      ],
      "stateMutability": "view",
      "type": "function"
    },
    {
      "inputs": [
        {
          "internalType": "address",
          "name": "userAddress",
          "type": "address"
        }
      ],
      "name": "latestStakeTime",
      "outputs": [
        {
          "internalType": "uint256",
          "name": "",
          "type": "uint256"
        }
      ],
      "stateMutability": "view",
      "type": "function"
    },
    {
      "inputs": [],
      "name": "liveSeason",
      "outputs": [
        {
          "internalType": "uint256",
          "name": "",
          "type": "uint256"
        }
      ],
      "stateMutability": "view",
      "type": "function"
    },
    {
      "inputs": [],
      "name": "ogn",
      "outputs": [
        {
          "internalType": "address",
          "name": "",
          "type": "address"
        }
      ],
      "stateMutability": "view",
      "type": "function"
    },
    {
      "inputs": [],
      "name": "popSeason",
      "outputs": [],
      "stateMutability": "nonpayable",
      "type": "function"
    },
    {
      "inputs": [
        {
          "internalType": "address",
          "name": "season",
          "type": "address"
        }
      ],
      "name": "pushSeason",
      "outputs": [],
      "stateMutability": "nonpayable",
      "type": "function"
    },
    {
      "inputs": [
        {
          "internalType": "uint256",
          "name": "",
          "type": "uint256"
        }
      ],
      "name": "seasons",
      "outputs": [
        {
          "internalType": "address",
          "name": "",
          "type": "address"
        }
      ],
      "stateMutability": "view",
      "type": "function"
    },
    {
      "inputs": [
        {
          "internalType": "address",
          "name": "ogn_",
          "type": "address"
        }
      ],
      "name": "setOGN",
      "outputs": [],
      "stateMutability": "nonpayable",
      "type": "function"
    },
    {
      "inputs": [
        {
          "internalType": "address",
          "name": "vault_",
          "type": "address"
        }
      ],
      "name": "setVault",
      "outputs": [],
      "stateMutability": "nonpayable",
      "type": "function"
    },
    {
      "inputs": [
        {
          "internalType": "uint256",
          "name": "amount",
          "type": "uint256"
        }
      ],
      "name": "stake",
      "outputs": [
        {
          "internalType": "uint256",
          "name": "",
          "type": "uint256"
        },
        {
          "internalType": "uint256",
          "name": "",
          "type": "uint256"
        }
      ],
      "stateMutability": "nonpayable",
      "type": "function"
    },
    {
      "inputs": [],
      "name": "totalSupply",
      "outputs": [
        {
          "internalType": "uint256",
          "name": "",
          "type": "uint256"
        }
      ],
      "stateMutability": "view",
      "type": "function"
    },
    {
      "inputs": [
        {
          "internalType": "address",
          "name": "_newGovernor",
          "type": "address"
        }
      ],
      "name": "transferGovernance",
      "outputs": [],
      "stateMutability": "nonpayable",
      "type": "function"
    },
    {
      "inputs": [],
      "name": "unstake",
      "outputs": [
        {
          "internalType": "uint256",
          "name": "",
          "type": "uint256"
        }
      ],
      "stateMutability": "nonpayable",
      "type": "function"
    },
    {
      "inputs": [],
      "name": "vault",
      "outputs": [
        {
          "internalType": "address",
          "name": "",
          "type": "address"
        }
      ],
      "stateMutability": "view",
      "type": "function"
    }
  ],
  "transactionHash": "0xac648e83916116713fefa2fefb60b3dbbf3c1b361222fc039eddc7699612f3c5",
  "args": [],
  "numDeployments": 1,
  "solcInputHash": "dff4d4389c4eb41a5891ad25f05e3896",
  "bytecode": "0x608060405234801561001057600080fd5b506100273360008051602061206683398151915255565b600080516020612066833981519152546040516001600160a01b03909116906000907fc7c0c772add429241571afb3805861fb3cfa2af374534088b76cdb4325a87e9a908290a3611fe98061007d6000396000f3fe608060405234801561001057600080fd5b50600436106101585760003560e01c80636f0ca70b116100c3578063d38bfff41161007c578063d38bfff4146102ce578063df011cb5146102e1578063f2b7c69e146102e9578063f34e3852146102f2578063f5d709a1146102fb578063fbfa77cf1461030e57600080fd5b80636f0ca70b1461025757806370a082311461026a5780637ee5553d14610293578063a694fc3a1461029b578063b38b1f52146102ae578063c7af3352146102b657600080fd5b8063485cc95511610115578063485cc955146101f15780634be4e024146102045780634e71d92d1461020c5780635d36b19014610229578063602bc098146102315780636817031b1461024457600080fd5b806307161ecd1461015d5780630c340a2414610199578063144e5246146101b957806318160ddd146101ce5780631f1d5ee3146101d65780632def6620146101e9575b600080fd5b61018661016b366004611dbb565b6001600160a01b031660009081526007602052604090205490565b6040519081526020015b60405180910390f35b6101a1610327565b6040516001600160a01b039091168152602001610190565b6101cc6101c7366004611dbb565b610344565b005b600554610186565b6101cc6101e4366004611dbb565b6103e5565b610186610830565b6101cc6101ff366004611ddc565b610acb565b6101cc610c6f565b610214610e05565b60408051928352602083019190915201610190565b6101cc610ed1565b6001546101a1906001600160a01b031681565b6101cc610252366004611dbb565b610f77565b6101cc610265366004611e85565b61101b565b610186610278366004611dbb565b6001600160a01b031660009081526006602052604090205490565b6101a16111da565b6102146102a9366004611e55565b611326565b610186611594565b6102be611689565b6040519015158152602001610190565b6101cc6102dc366004611dbb565b6116ba565b6101a161175e565b61018660045481565b61018660035481565b6101a1610309366004611e55565b611871565b6000546101a1906201000090046001600160a01b031681565b600061033f600080516020611f948339815191525490565b905090565b61034c611689565b6103715760405162461bcd60e51b815260040161036890611ec9565b60405180910390fd5b6001600160a01b0381166103c35760405162461bcd60e51b815260206004820152601960248201527829b2b934b2b99d102d32b9379030b2323932b9b99d1027a3a760391b6044820152606401610368565b600180546001600160a01b0319166001600160a01b0392909216919091179055565b6103ed611689565b6104095760405162461bcd60e51b815260040161036890611ec9565b803b6104575760405162461bcd60e51b815260206004820152601d60248201527f5365726965733a20536561736f6e206e6f74206120636f6e74726163740000006044820152606401610368565b60025481901561070757600280546000919061047590600190611f4f565b8154811061049357634e487b7160e01b600052603260045260246000fd5b60009182526020918290200154604080516340d1d25560e01b815290516001600160a01b03909216935083926340d1d25592600480840193829003018186803b1580156104df57600080fd5b505afa1580156104f3573d6000803e3d6000fd5b505050506040513d601f19601f820116820180604052508101906105179190611e6d565b826001600160a01b0316633197cbb66040518163ffffffff1660e01b815260040160206040518083038186803b15801561055057600080fd5b505afa158015610564573d6000803e3d6000fd5b505050506040513d601f19601f820116820180604052508101906105889190611e6d565b116105d55760405162461bcd60e51b815260206004820152601860248201527f5365726965733a20496e76616c696420656e642074696d6500000000000000006044820152606401610368565b806001600160a01b0316633197cbb66040518163ffffffff1660e01b815260040160206040518083038186803b15801561060e57600080fd5b505afa158015610622573d6000803e3d6000fd5b505050506040513d601f19601f820116820180604052508101906106469190611e6d565b826001600160a01b03166378e979256040518163ffffffff1660e01b815260040160206040518083038186803b15801561067f57600080fd5b505afa158015610693573d6000803e3d6000fd5b505050506040513d601f19601f820116820180604052508101906106b79190611e6d565b10156107055760405162461bcd60e51b815260206004820152601a60248201527f5365726965733a20496e76616c69642073746172742074696d650000000000006044820152606401610368565b505b600280546001808201835560008390527f405787fa12a823e0f2b7631cc41b3ba8828b3321ca811111fa75cd3aa3bb5ace90910180546001600160a01b0319166001600160a01b03861690811790915591546107639190611f4f565b6040517f2c44fff2b20da83506e95ff9a6c5fbb3797c80ba3abef25e1cafdb8c6fdb6cea90600090a36002546001141561082c57600554604051631b4351cf60e11b815260048101919091526001600160a01b03831690633686a39e90602401600060405180830381600087803b1580156107dd57600080fd5b505af11580156107f1573d6000803e3d6000fd5b50506040516001600160a01b0385169250600091507f15a75de13661af63c89b09c2510276ddae1051a0a6d89587cf448b03be13af17908290a35b5050565b6002546000906108525760405162461bcd60e51b815260040161036890611f00565b336000818152600660205260408120549061086b61189b565b60405163f2888dbb60e01b81526001600160a01b03858116600483015291925060009182919084169063f2888dbb906024016040805180830381600087803b1580156108b657600080fd5b505af11580156108ca573d6000803e3d6000fd5b505050506040513d601f19601f820116820180604052508101906108ee9190611ea6565b9150915060035460045410156109b157600060026003548154811061092357634e487b7160e01b600052603260045260246000fd5b60009182526020909120015460405163f2888dbb60e01b81526001600160a01b0388811660048301529091169150819063f2888dbb906024016040805180830381600087803b15801561097557600080fd5b505af1158015610989573d6000803e3d6000fd5b505050506040513d601f19601f820116820180604052508101906109ad9190611ea6565b5050505b6001600160a01b0385166000908152600660205260408120819055600580548692906109de908490611f4f565b909155506109ef90508583836119c1565b60015460405163a9059cbb60e01b81526001600160a01b038781166004830152602482018790529091169063a9059cbb90604401602060405180830381600087803b158015610a3d57600080fd5b505af1158015610a51573d6000803e3d6000fd5b505050506040513d601f19601f82011682018060405250810190610a759190611e0e565b610ac15760405162461bcd60e51b815260206004820152601b60248201527f5365726965733a204f474e207472616e73666572206661696c656400000000006044820152606401610368565b5091935050505090565b600054610100900460ff16610ae65760005460ff1615610aea565b303b155b610b4d5760405162461bcd60e51b815260206004820152602e60248201527f496e697469616c697a61626c653a20636f6e747261637420697320616c72656160448201526d191e481a5b9a5d1a585b1a5e995960921b6064820152608401610368565b600054610100900460ff16158015610b6f576000805461ffff19166101011790555b6001600160a01b038316610bc15760405162461bcd60e51b815260206004820152601960248201527829b2b934b2b99d102d32b9379030b2323932b9b99d1027a3a760391b6044820152606401610368565b6001600160a01b038216610c175760405162461bcd60e51b815260206004820152601b60248201527f5365726965733a205a65726f20616464726573733a205661756c7400000000006044820152606401610368565b600180546001600160a01b0319166001600160a01b03858116919091179091556000805462010000600160b01b03191662010000928516929092029190911790558015610c6a576000805461ff00191690555b505050565b610c77611689565b610c935760405162461bcd60e51b815260040161036890611ec9565b600254610ce25760405162461bcd60e51b815260206004820152601c60248201527f5365726965733a204e6f20736561736f6e7320746f2063616e63656c000000006044820152606401610368565b600254610cf190600190611f4f565b60035410610d415760405162461bcd60e51b815260206004820152601860248201527f5365726965733a20536561736f6e2069732061637469766500000000000000006044820152606401610368565b6002805460009190610d5590600190611f4f565b81548110610d7357634e487b7160e01b600052603260045260246000fd5b600091825260209091200154600280546001600160a01b0390921692509080610dac57634e487b7160e01b600052603160045260246000fd5b600082815260208120820160001990810180546001600160a01b03191690559091019091556040516001600160a01b038316917f11fcddd71b326a2219d624751fd87130db438afeaf59a412a96af76d973d91a891a250565b6002546000908190610e295760405162461bcd60e51b815260040161036890611f00565b336000610e3461189b565b604051630f41a04d60e11b81526001600160a01b038481166004830152919250600091829190841690631e83409a906024016040805180830381600087803b158015610e7f57600080fd5b505af1158015610e93573d6000803e3d6000fd5b505050506040513d601f19601f82011682018060405250810190610eb79190611ea6565b91509150610ec68483836119c1565b909450925050509091565b7f44c4d30b2eaad5130ad70c3ba6972730566f3e6359ab83e800d905c61b1c51db546001600160a01b0316336001600160a01b031614610f6c5760405162461bcd60e51b815260206004820152603060248201527f4f6e6c79207468652070656e64696e6720476f7665726e6f722063616e20636f60448201526f6d706c6574652074686520636c61696d60801b6064820152608401610368565b610f7533611af9565b565b610f7f611689565b610f9b5760405162461bcd60e51b815260040161036890611ec9565b6001600160a01b038116610ff15760405162461bcd60e51b815260206004820152601e60248201527f5365726965733a205a65726f20616464726573733a204665655661756c7400006044820152606401610368565b600080546001600160a01b03909216620100000262010000600160b01b0319909216919091179055565b611023611689565b61103f5760405162461bcd60e51b815260040161036890611ec9565b60025482106110905760405162461bcd60e51b815260206004820152601d60248201527f5365726965733a20536561736f6e20646f6573206e6f742065786973740000006044820152606401610368565b6000600283815481106110b357634e487b7160e01b600052603260045260246000fd5b6000918252602091829020015460408051633163fd3b60e11b815290516001600160a01b03909216935083926362c7fa7692600480840193829003018186803b1580156110ff57600080fd5b505afa158015611113573d6000803e3d6000fd5b505050506040513d601f19601f820116820180604052508101906111379190611e6d565b42101561117b5760405162461bcd60e51b815260206004820152601260248201527114d95c9a595cce88139bdd081b1bd8dad95960721b6044820152606401610368565b604051631b4351cf60e11b8152600481018390526001600160a01b03821690633686a39e90602401600060405180830381600087803b1580156111bd57600080fd5b505af11580156111d1573d6000803e3d6000fd5b50505050505050565b600254600090600111156111ee5750600090565b600060026003548154811061121357634e487b7160e01b600052603260045260246000fd5b6000918252602091829020015460408051633163fd3b60e11b815290516001600160a01b03909216935083926362c7fa7692600480840193829003018186803b15801561125f57600080fd5b505afa158015611273573d6000803e3d6000fd5b505050506040513d601f19601f820116820180604052508101906112979190611e6d565b42101580156112b457506003546112af906001611f37565b600254115b1561130357600260035460016112ca9190611f37565b815481106112e857634e487b7160e01b600052603260045260246000fd5b6000918252602090912001546001600160a01b031692915050565b6002600354815481106112e857634e487b7160e01b600052603260045260246000fd5b600254600090819061134a5760405162461bcd60e51b815260040161036890611f00565b6000831161139a5760405162461bcd60e51b815260206004820152601760248201527f5365726965733a204e6f207374616b6520616d6f756e740000000000000000006044820152606401610368565b60015460009033906001600160a01b0316826113b4611bbd565b6040516323b872dd60e01b81526001600160a01b038581166004830152306024830152604482018a9052919250908316906323b872dd90606401602060405180830381600087803b15801561140857600080fd5b505af115801561141c573d6000803e3d6000fd5b505050506040513d601f19601f820116820180604052508101906114409190611e0e565b61148c5760405162461bcd60e51b815260206004820152601b60248201527f5365726965733a204f474e207472616e73666572206661696c656400000000006044820152606401610368565b6040516356e4bb9760e11b81526001600160a01b0384811660048301526024820189905282169063adc9772e90604401602060405180830381600087803b1580156114d657600080fd5b505af11580156114ea573d6000803e3d6000fd5b505050506040513d601f19601f8201168201806040525081019061150e9190611e2e565b6001600160a01b03841660009081526006602052604081208054929650899290919061153b908490611f37565b9250508190555086600560008282546115549190611f37565b9091555050506001600160a01b03909116600090815260076020908152604080832042905560069091529020549350506001600160801b03169050915091565b6002546000906001106115a75750600090565b6002545b80156116815760006115be600183611f4f565b9050600281815481106115e157634e487b7160e01b600052603260045260246000fd5b60009182526020918290200154604080516378e9792560e01b815290516001600160a01b03909216926378e9792592600480840193829003018186803b15801561162a57600080fd5b505afa15801561163e573d6000803e3d6000fd5b505050506040513d601f19601f820116820180604052508101906116629190611e6d565b421061166e5792915050565b508061167981611f66565b9150506115ab565b505060035490565b60006116a1600080516020611f948339815191525490565b6001600160a01b0316336001600160a01b031614905090565b6116c2611689565b6116de5760405162461bcd60e51b815260040161036890611ec9565b611706817f44c4d30b2eaad5130ad70c3ba6972730566f3e6359ab83e800d905c61b1c51db55565b806001600160a01b0316611726600080516020611f948339815191525490565b6001600160a01b03167fa39cc5eb22d0f34d8beaefee8a3f17cc229c1a1d1ef87a5ad47313487b1c4f0d60405160405180910390a350565b600254600090600111156117725750600090565b600060026004548154811061179757634e487b7160e01b600052603260045260246000fd5b60009182526020918290200154604080516340d1d25560e01b815290516001600160a01b03909216935083926340d1d25592600480840193829003018186803b1580156117e357600080fd5b505afa1580156117f7573d6000803e3d6000fd5b505050506040513d601f19601f8201168201806040525081019061181b9190611e6d565b42101580156118385750600454611833906001611f37565b600254115b1561184e57600260045460016112ca9190611f37565b6002600454815481106112e857634e487b7160e01b600052603260045260246000fd5b6002818154811061188157600080fd5b6000918252602090912001546001600160a01b0316905081565b6000806002600454815481106118c157634e487b7160e01b600052603260045260246000fd5b60009182526020918290200154604080516340d1d25560e01b815290516001600160a01b03909216935083926340d1d25592600480840193829003018186803b15801561190d57600080fd5b505afa158015611921573d6000803e3d6000fd5b505050506040513d601f19601f820116820180604052508101906119459190611e6d565b4210158015611962575060045461195d906001611f37565b600254115b156119bc5760016004600082825461197a9190611f37565b925050819055506002600454815481106119a457634e487b7160e01b600052603260045260246000fd5b6000918252602090912001546001600160a01b031690505b919050565b6000546201000090046001600160a01b03168215611a5d576040516308784ad360e31b81526001600160a01b038581166004830152602482018590528216906343c2569890604401602060405180830381600087803b158015611a2357600080fd5b505af1158015611a37573d6000803e3d6000fd5b505050506040513d601f19601f82011682018060405250810190611a5b9190611e0e565b505b8115611af35760015460405163c340a84d60e01b81526001600160a01b0391821660048201528582166024820152604481018490529082169063c340a84d90606401602060405180830381600087803b158015611ab957600080fd5b505af1158015611acd573d6000803e3d6000fd5b505050506040513d601f19601f82011682018060405250810190611af19190611e0e565b505b50505050565b6001600160a01b038116611b4f5760405162461bcd60e51b815260206004820152601a60248201527f4e657720476f7665726e6f7220697320616464726573732830290000000000006044820152606401610368565b806001600160a01b0316611b6f600080516020611f948339815191525490565b6001600160a01b03167fc7c0c772add429241571afb3805861fb3cfa2af374534088b76cdb4325a87e9a60405160405180910390a3611bba81600080516020611f9483398151915255565b50565b600080600260035481548110611be357634e487b7160e01b600052603260045260246000fd5b6000918252602091829020015460408051633163fd3b60e11b815290516001600160a01b03909216935083926362c7fa7692600480840193829003018186803b158015611c2f57600080fd5b505afa158015611c43573d6000803e3d6000fd5b505050506040513d601f19601f82011682018060405250810190611c679190611e6d565b4210158015611c845750600354611c7f906001611f37565b600254115b156119bc57600160036000828254611c9c9190611f37565b92505081905550600260035481548110611cc657634e487b7160e01b600052603260045260246000fd5b600091825260209091200154600554604051631b4351cf60e11b81526001600160a01b0390921692508291633686a39e91611d079160040190815260200190565b600060405180830381600087803b158015611d2157600080fd5b505af1158015611d35573d6000803e3d6000fd5b50505050600260035481548110611d5c57634e487b7160e01b600052603260045260246000fd5b60009182526020822001546003546040516001600160a01b039092169290917f15a75de13661af63c89b09c2510276ddae1051a0a6d89587cf448b03be13af179190a3919050565b80356001600160a01b03811681146119bc57600080fd5b600060208284031215611dcc578081fd5b611dd582611da4565b9392505050565b60008060408385031215611dee578081fd5b611df783611da4565b9150611e0560208401611da4565b90509250929050565b600060208284031215611e1f578081fd5b81518015158114611dd5578182fd5b600060208284031215611e3f578081fd5b81516001600160801b0381168114611dd5578182fd5b600060208284031215611e66578081fd5b5035919050565b600060208284031215611e7e578081fd5b5051919050565b60008060408385031215611e97578182fd5b50508035926020909101359150565b60008060408385031215611eb8578182fd5b505080516020909101519092909150565b6020808252601a908201527f43616c6c6572206973206e6f742074686520476f7665726e6f72000000000000604082015260600190565b60208082526018908201527f5365726965733a204e6f2061637469766520736561736f6e0000000000000000604082015260600190565b60008219821115611f4a57611f4a611f7d565b500190565b600082821015611f6157611f61611f7d565b500390565b600081611f7557611f75611f7d565b506000190190565b634e487b7160e01b600052601160045260246000fdfe7bea13895fa79d2831e0a9e28edede30099005a50d652d8957cf8a607ee6ca4aa2646970667358221220e09f07c4f96a08ffbe177d18a6503c4e80e67d108eef6a5b8659519df6fa3b8d64736f6c634300080400337bea13895fa79d2831e0a9e28edede30099005a50d652d8957cf8a607ee6ca4a",
  "devdoc": {
    "events": {
      "NewSeason(uint256,address)": {
        "details": "A new season has been registered",
        "params": {
          "number": "- The season ID (1-indexed)",
          "season": "- The address of the new season"
        }
      },
      "SeasonCancelled(address)": {
        "details": "A season has been cancelled and removed",
        "params": {
          "season": "- The address of the new season"
        }
      },
      "SeasonStart(uint256,address)": {
        "details": "A season has started",
        "params": {
          "number": "- The season ID (1-indexed)",
          "season": "- The address of the new season"
        }
      }
    },
    "kind": "dev",
    "methods": {
      "balanceOf(address)": {
        "params": {
          "userAddress": "- address for which to return their points"
        },
        "returns": {
          "_0": "total OGN staked"
        }
      },
      "bootstrapSeason(uint256,uint256)": {
        "params": {
          "totalStaked": "- The amount of totalStakedOGN to send to      Season.bootstrap()"
        }
      },
      "claim()": {
        "returns": {
          "_0": "claimedETH - amount of ETH profit share claimed",
          "_1": "claimedOGN - amount of OGN rewards claimed"
        }
      },
      "claimGovernance()": {
        "details": "Claim Governance of the contract to a new account (`newGovernor`). Can only be called by the new Governor."
      },
      "expectedClaimingSeason()": {
        "returns": {
          "_0": "address of the expected claiming season"
        }
      },
      "expectedStakingSeason()": {
        "returns": {
          "_0": "address of the expected claiming season"
        }
      },
      "governor()": {
        "details": "Returns the address of the current Governor."
      },
      "initialize(address,address)": {
        "params": {
          "ogn_": "- Address for the OGN token",
          "vault_": "- Address for the FeeVault"
        }
      },
      "isGovernor()": {
        "details": "Returns true if the caller is the current Governor."
      },
      "latestStakeTime(address)": {
        "params": {
          "userAddress": "- address for which to return their last stake time"
        },
        "returns": {
          "_0": "timestamp for last stake time for a user (or 0 if none)"
        }
      },
      "liveSeason()": {
        "returns": {
          "_0": "index of the live season"
        }
      },
      "pushSeason(address)": {
        "params": {
          "season": "- address for the new season"
        }
      },
      "setOGN(address)": {
        "details": "other contracts reference this value as well",
        "params": {
          "ogn_": "- address for the contract"
        }
      },
      "setVault(address)": {
        "details": "other contracts reference this value as well",
        "params": {
          "vault_": "- address for the contract"
        }
      },
      "stake(uint256)": {
        "params": {
          "amount": "- The amount of OGN to stake"
        },
        "returns": {
          "_0": "total amount of OGN staked by the user",
          "_1": "total points received for the user's entire stake for the      staking season"
        }
      },
      "totalSupply()": {
        "returns": {
          "_0": "total OGN staked from all users"
        }
      },
      "transferGovernance(address)": {
        "details": "Transfers Governance of the contract to a new account (`newGovernor`). Can only be called by the current Governor. Must be claimed for this to complete",
        "params": {
          "_newGovernor": "Address of the new Governor"
        }
      },
      "unstake()": {
        "returns": {
          "_0": "amount of OGN unstaked"
        }
      }
    },
    "title": "Story Series staking contract",
    "version": 1
  },
  "userdoc": {
    "kind": "user",
    "methods": {
      "balanceOf(address)": {
        "notice": "Total staked OGN for a user"
      },
      "bootstrapSeason(uint256,uint256)": {
        "notice": "Manually bootstrap a season.  This should only be used in the      rare case a season receives no new stakes, so was never      bootstraped."
      },
      "claim()": {
        "notice": "Claim profit share and OGN rewards."
      },
      "expectedClaimingSeason()": {
        "notice": "The claiming season, should claim/unstake be called.  This takes into account currentClaimingIndex potentially advancing."
      },
      "expectedStakingSeason()": {
        "notice": "The staking season, should stake() be called.  This takes into account currentStakingIndex potentially advancing."
      },
      "latestStakeTime(address)": {
        "notice": "Get the latest stake block timestamp for a user"
      },
      "liveSeason()": {
        "notice": "The current \"live\" season (earliest non-ended season)"
      },
      "popSeason()": {
        "notice": "Remove the final scheduled season if it is not an active      staking season."
      },
      "pushSeason(address)": {
        "notice": "Add a new season.  It will be the last season in the sequence."
      },
      "setOGN(address)": {
        "notice": "Set the address for the OGN token."
      },
      "setVault(address)": {
        "notice": "Set the address for the FeeVault."
      },
      "stake(uint256)": {
        "notice": "Stake OGN for fee sharing and rewards. Users can call this      multiple times to add to their stake. This contract must be      approved to transfer the given amount of OGN from the user."
      },
      "totalSupply()": {
        "notice": "Total staked OGN of all users"
      },
      "unstake()": {
        "notice": "Unstake previously staked OGN. This will unstake their full      OGN stake amount and pay out any rewards (if within a claim period)"
      }
    },
    "notice": "Primary interaction OGN staking contract for Story profit sharing      and rewards.",
    "version": 1
  },
  "storageLayout": {
    "storage": [
      {
        "astId": 886,
        "contract": "contracts/staking/Series.sol:Series",
        "label": "_initialized",
        "offset": 0,
        "slot": "0",
        "type": "t_bool"
      },
      {
        "astId": 889,
        "contract": "contracts/staking/Series.sol:Series",
        "label": "_initializing",
        "offset": 1,
        "slot": "0",
        "type": "t_bool"
      },
      {
        "astId": 14063,
        "contract": "contracts/staking/Series.sol:Series",
        "label": "vault",
        "offset": 2,
        "slot": "0",
        "type": "t_address"
      },
      {
        "astId": 14066,
        "contract": "contracts/staking/Series.sol:Series",
        "label": "ogn",
        "offset": 0,
        "slot": "1",
        "type": "t_address"
      },
      {
        "astId": 14069,
        "contract": "contracts/staking/Series.sol:Series",
        "label": "seasons",
        "offset": 0,
        "slot": "2",
        "type": "t_array(t_address)dyn_storage"
      },
      {
        "astId": 14072,
        "contract": "contracts/staking/Series.sol:Series",
        "label": "currentStakingIndex",
        "offset": 0,
        "slot": "3",
        "type": "t_uint256"
      },
      {
        "astId": 14075,
        "contract": "contracts/staking/Series.sol:Series",
        "label": "currentClaimingIndex",
        "offset": 0,
        "slot": "4",
        "type": "t_uint256"
      },
      {
        "astId": 14077,
        "contract": "contracts/staking/Series.sol:Series",
        "label": "totalStakedOGN",
        "offset": 0,
        "slot": "5",
        "type": "t_uint256"
      },
      {
        "astId": 14081,
        "contract": "contracts/staking/Series.sol:Series",
        "label": "stakedOGN",
        "offset": 0,
        "slot": "6",
        "type": "t_mapping(t_address,t_uint256)"
      },
      {
        "astId": 14085,
        "contract": "contracts/staking/Series.sol:Series",
        "label": "userLastStakingTime",
        "offset": 0,
        "slot": "7",
        "type": "t_mapping(t_address,t_uint256)"
      }
    ],
    "types": {
      "t_address": {
        "encoding": "inplace",
        "label": "address",
        "numberOfBytes": "20"
      },
      "t_array(t_address)dyn_storage": {
        "base": "t_address",
        "encoding": "dynamic_array",
        "label": "address[]",
        "numberOfBytes": "32"
      },
      "t_bool": {
        "encoding": "inplace",
        "label": "bool",
        "numberOfBytes": "1"
      },
      "t_mapping(t_address,t_uint256)": {
        "encoding": "mapping",
        "key": "t_address",
        "label": "mapping(address => uint256)",
        "numberOfBytes": "32",
        "value": "t_uint256"
      },
      "t_uint256": {
        "encoding": "inplace",
        "label": "uint256",
        "numberOfBytes": "32"
      }
    }
  }
}